:020000040800F2
:10000000A0070020894000081F4000082140000888
:100010002340000825400008274000080000000099
:10002000000000000000000000000000294000085F
:100030002B400008000000002D4000082F40000861
:10004000D9400008DD400008E1400008E540000814
:10005000E9400008ED400008F1400008F5400008C4
:10006000F9400008FD400008014100080541000872
:10007000094100080D410008114100081541000820
:10008000194100081D4100082141000825410008D0
:10009000294100082D410008314100083541000880
:1000A000394100083D410008414100084541000830
:1000B000494100084D4100085141000855410008E0
:1000C000594100085D410008614100086541000890
:1000D000694100087D22000871410008754100084F
:1000E000794100087D4100088141000885410008F0
:1000F000894100088D4100089141000895410008A0
:10010000994100089D410008A1410008A54100084F
:10011000A9410008AD410008B1410008B5410008FF
:10012000B9410008BD410008C1410008C5410008AF
:10013000C9410008CD410008D1410008D54100085F
:10014000D9410008DD410008E1410008E54100080F
:10015000E9410008ED410008F1410008F5410008BF
:10016000F9410008FD41000801420008054200086D
:10017000094200080D42000811420008154200081B
:10018000194200081D4200082DE9F04F80460FF289
:10019000B450A5B017461D46D0E90023CDE912237F
:1001A00004AE00200491706214AC00E04F440020C3
:1001B000ADF8020012AB4FF0FF3239460DF10200EC
:1001C00001F045F88146B9F1010F08DA3878B0F14D
:1001D000010969EB09096FEA09004FEAD079BDF816
:1001E000020025280CBFA9F101034B46012B07DBB8
:1001F0003A4602A9404601F005F8002800F19D8228
:10020000BDF80200252807D10020F0603061706140
:10021000B061F061306205E00028C7D1706A8EE2FB
:1002200040F0010017F8011F2029F9D023290DD033
:100230002B2904D02D2906D030290AD00CE040F01B
:10024000020080B2EEE740F00400FAE740F0080058
:10025000F7E740F01000F4E72A290DD129680A1DBC
:100260002A600968F162002904D5494240F004007F
:10027000F16280B27F1C13E00021F1620BE0F16AB1
:100280006FF00043994205D001EB810302EB43017B
:100290003039F1627F1C3A78A2F130010A29EED39D
:1002A00039782E2903D04FF0FF31B1621EE017F8E4
:1002B000011F2A2906D129680A1D2A607F1C0968A6
:1002C000B16213E00021B1620BE0B16A6FF000434C
:1002D000994205D001EB810302EB43013039B16251
:1002E0007F1C3A78A2F130010A29EED330860FF252
:1002F0005C40397800F0CCFF08B117F8010B8DF89D
:1003000042009DF84200682802BF397868296220BF
:1003100005D06C2804BF38786C2803D171208DF883
:1003200042007F1C14A8B0603978B1F1250025D0B7
:100330001C387BD0001F022878D9133800F0A08029
:10034000093873D0801E00F03181401E00F0DB8040
:10035000401E02286AD9001F00F0D580401F3AD005
:10036000401E00F08D80401E2AD0C01E0BD0801E83
:1003700000F08680C01E00F0838037E1F068411CE9
:10038000F16025213BE19DF842006C28286813D0DC
:10039000011D29600068B26A7060002A02D500F071
:1003A00083FF07E0002100F09BFF00281ABF71685F
:1003B000401AB06A306123E1011D296002680EE134
:1003C0002868011D296000210068CDE9020114A8F8
:1003D00070607821E6E09DF84200622818D0682815
:1003E00006D06A280BD06C2819D0712807D016E0E7
:1003F0002868011D29600068716A018000E12A688F
:10040000101D28601268706AC117C2E90001F7E088
:100410002868011D29600068716A0170F0E0286891
:10042000011D29600068716A0160E9E02868C01D4B
:1004300020F00700286000F108022A60D0E90023BC
:10044000CDE90223002B04D5F068421CF2602D2276
:100450000DE0308E820704D5F068421CF2602B223A
:1004600005E0C00704D5F068421CF2602022025566
:10047000F06814AA8018706002A800F0BBFBBFE00F
:100480009DF842006C2808BF2A6811D0712808BF67
:100490002A6802D02A686A280AD1D21D22F00702EF
:1004A0002A6094460CF108022A60DCE9002303E08C
:1004B000131D2B6000231268CDE90223682808BFB2
:1004C00092B207D0622808BFD2B203D0742818BFF6
:1004D0007A2802D10023CDE9022396F830000007E4
:1004E0005CD5DDE90223002B08BF002A56D041F07D
:1004F0002000782852D1F06830220255401C421C5E
:10050000F26001554AE09DF8420062280CD068284C
:1005100010D06A281AD06C2823D0712816D07428DD
:100520001FD07A280CD01CE02868021D2A6090F9A0
:1005300000201AE02868021D2A60B0F9002014E0AB
:100540002868021D2A60002302680FE02868C01D89
:1005500020F00700286000F108022A60D0E900239B
:1005600004E02868021D2A600268D317CDE902233F
:10057000002B04DAF068421CF2602D220DE0308E70
:10058000820704D5F068421CF2602B2205E0C00708
:1005900004D5F068421CF26020220255F06814AACB
:1005A0008018706002A800F076FA29E09DF84200F9
:1005B0006C2807D0F068411CF16029680A1D2A6088
:1005C00009681CE02868011D296001AA0068ADF8CF
:1005D00004000020ADF806004FF0FF30B06202A921
:1005E000404600F0B7F800280AD5A6E0F068421CA3
:1005F000F2602522025519B1F068421CF2600155E3
:10060000F06AF168401AB169401A3169401AF1691B
:10061000401A7169401A316AA0EB010996F830005E
:100620007F1C400711D420208DF800004FF0000AF5
:1006300009E0012300AA02A9404600F0E3FD0028DA
:100640007BD10AF1010ACA45F3DBF36814AA02A9B7
:10065000404600F0D7FD00286FD13020D6F818A012
:100660008DF800004FF0000B09E0012300AA02A959
:10067000404600F0C7FD00285FD10BF1010BD345C8
:10068000F3DB3369726802A9404600F0BBFD002825
:1006900053D13020D6F81CA08DF800004FF0000B8D
:1006A00009E0012300AA02A9404600F0ABFD0028A2
:1006B00043D10BF1010BD345F3DB30697168D6F8F8
:1006C00014A000EB010B0AE01BF8011B0498C047C3
:1006D000049090B3706A401C7062AAF1010ABAF1EA
:1006E000000FF1D13020D6F820A08DF800004FF097
:1006F000000B08E0012300AA02A9404600F082FD99
:10070000D8B90BF1010BD345F4DB96F83000400764
:100710007FF54DAD20208DF800004FF0000A01E07C
:100720000AF1010ACA45BFF642AD012300AA02A997
:10073000404600F067FD0028F2D04FF0FF3025B0B2
:10074000BDE8F08F0000000000000000686A6C74D3
:100750007A4C00002DE9F04F0F4695B03C6B834674
:100760009146002C48BF6FF0004400F0E5FD796B26
:10077000401802900FF6BC22D2E90001CDE9030136
:1007800097F83800400702D40298412805D240204B
:100790000DF1140A0290002509E000F0D3FD5FEA94
:1007A000000AF8D14FF0FF3072E1A4EB0804012CED
:1007B000C0F2B580B9F8001003AA0DF1010000F0F5
:1007C00019FE8046002800F1C180B9F8000018B970
:1007D000B8F1010800F1BA804445C0F2A080786900
:1007E000029908EB0002914280F08A807D634042CA
:1007F000396A401AB969401A796A401AF969401A87
:10080000B96A451A97F83800400710D420208DF8AF
:100810000000002609E0012300AA3946584600F0EE
:10082000F1FC002840F09280761CAE42F3DB7B693D
:1008300052463946584600F0E5FC002840F08680D4
:1008400030208DF800000026386A019008E001236E
:1008500000AA3946584600F0D5FC002876D1761C0F
:1008600001988642F3DBBB69FA683946584600F0C6
:10087000C9FC00286AD130208DF800000026786A73
:10088000019008E0012300AA3946584600F0BAFC5E
:1008900000285BD1761C01988642F3DBB869F968C1
:1008A000FB6942183946584600F0ACFC00284DD18F
:1008B00030208DF800000026B86A019008E001237E
:1008C00000AA3946584600F09DFC00283ED1761C0F
:1008D00001988642F3DB97F8380040070ED52020B8
:1008E0008DF80000002607E0012300AA394658468B
:1008F00000F088FC50BB761CAE42F5DB00257D6124
:10090000424678690DF10101504400F081FD78699B
:100910004044786139F8020B00287FF446AF786BC9
:100920007969401A396A401AB969401A796A401AD5
:10093000F969401AB96AA0EB010897F83800400736
:1009400019D420208DF80000A94612E04FF0FF35A1
:1009500097E0012400AE16F8011BB868D847B860CC
:100960000028F3D0F86A401CF862641EF3D109F144
:100970000109C145EDDB7B6952463946584600F016
:1009800041FC0028E2D130208DF80000A946386AE9
:1009900001900FE0012400AE16F8011BB868D8479B
:1009A000B8600028D2D0F86A401CF862641EF3D107
:1009B00009F1010901988145ECDBBB69FA68394608
:1009C000584600F01FFC0028C0D130208DF80000F0
:1009D000A946786A01900FE0012400AE16F8011BC9
:1009E000B868D847B8600028B0D0F86A401CF862F0
:1009F000641EF3D109F1010901988145ECDBB86966
:100A0000F968FB6942183946584600F0FBFB00289C
:100A10009CD130208DF80000A946B86A01900FE003
:100A2000012400AE16F8011BB868D847B86000284A
:100A30008CD0F86A401CF862641EF3D109F10109F8
:100A400001988145ECDB97F83800400717D5202046
:100A50008DF80000A94610E0012400AE16F8011B35
:100A6000B868D847B86000283FF470AFF86A401CF7
:100A7000F862641EF2D109F10109C145ECDB7D6128
:100A80007D6305A882451CBF504600F0FDFC28464A
:100A900015B0BDE8F08F2DE9FA47064682B03569FA
:100AA0000A466F2A08BF082705D041F020007828A1
:100AB00014BF0A271027D6E900013C248046894646
:100AC000642A18BF692A05D1002903DAD8F1000881
:100AD00069EB4909B9F1000F08BFB8F1000F0CD15B
:100AE000306B50B9082F3BD196F83800000737D546
:100AF00030203B2485F83B0032E0CDE90089FB172C
:100B0000404649463A4600F0FFFCB846A8FB0023A1
:100B1000DDE90089A8EB02023032A4F1010AD2B269
:100B200054463A2A03DB9DF80830513B9A180AF8DC
:100B3000052080465FEA010908BFB8F1000F03D025
:100B4000F06861198842D8D3082F09D196F8380087
:100B5000000705D5605D302802D0641E3020605546
:100B6000C4F13C00B0616119F160316B884207DA71
:100B7000081A30624FF6EF71308F0840308710E06E
:100B800000290ED596F8381001F01401102908D16B
:100B9000716B7269891A326A891A081A0128A8BF0A
:100BA000306204B0BDE8F0872DE9D04306460F4619
:100BB00014464FF00008DFF8389012E0E00707D540
:100BC00042464B463046394600F016FD06460F4673
:100BD00064104046494642464B4600F00DFD8046B3
:100BE0008946002CEAD130463946BDE8D083000062
:100BF000000024402DE9F04F04468FB08A46D4E926
:100C00000001CDE9020104AF4AF0200061280BD0B9
:100C1000206B002848BF062005D404BF4AF02000FE
:100C2000672801D1012020636168C1F30A5040F2B6
:100C3000FF7290421AD1080304BF2068002808D12F
:100C40000320A061AAF161001A2835D30FF2F851F0
:100C500007E00320A061AAF161001A2829D30FF24E
:100C6000E051E068032200F0D3FBA4E1012816DA8A
:100C7000204600F092FD012811DB002500204AF0FB
:100C8000200161291FD1E168302201F8012B4A1CA3
:100C9000E260BAF1610F0CBF782258220FE062685F
:100CA00040F2FE3161F31E52451A62604FF0FF3090
:100CB000E5E70FF28851D4E70FF28851D1E70A70C7
:100CC0006169891C616110B9002600256BE14AF059
:100CD0002000612840F09580206B00284CBF212621
:100CE000461CDDE9020136B2771CD4E900890022F6
:100CF000002300F073FD3ABF89F00040CDE9028087
:100D0000CDE902892D1F8DF810200DF1110901E0A8
:100D100000F20709012F32DBDDE902010022002386
:100D200000F074FD2BD21C2102A800F087FDDDE944
:100D3000020100F00DFEFF1F8046012F09DB00F0CD
:100D400033FE02460B46DDE9020100F045FECDE927
:100D5000020109F20700072105E008F00F0200F880
:100D6000012D4FEA2818B8F1010F01DB491EF4D517
:100D7000491E5CBF002200F8012DF9D5C8E70DF12E
:100D80001100A9EB00010DF11107B142B8BF0E46E9
:100D900036B230002ED4884206DA04A941184978C8
:100DA0000829A8BF0F2100DA002104AA821800E058
:100DB000761E12F80139401E8B42F9D00F2904D15A
:100DC00004A941184A78521C4A70002802D504AF81
:100DD000761C2D1D36B2701E0CD4C119AAF13A032F
:100DE0000A783032D2B23A2AA8BF9A1801F80129FB
:100DF000401EF5D5206B002840F1D580701E206381
:100E0000D1E0DDE902010022002300F0E7FC3CBF55
:100E100081F00041CDE902012DB247F297506843BD
:100E20003F4990FBF1F52DB2C5F10702012A04DB21
:100E3000DDE90201FFF7B8FE25E0C2F1000B002654
:100E4000384FDFF8E490984614E05FEACB7007D59E
:100E500042464B463046394600F0CEFB06460F462A
:100E60004FEA6B0B4046494642464B4600F0C4FBF6
:100E700080468946BBF1000FE7D1DDE90201324629
:100E80003B4600F069FECDE902014AF020006628E9
:100E90000CBF05F10A000620216B4618142EA8BFCE
:100EA000132630208DF810000DF11107DFF87C902B
:100EB000012E3DDBDDE9020100F060FD07F10801D4
:100EC00004220A23B0FBF3F303EB8307A0EB4700F4
:100ED000303001F8010D0A20B3FBF0F000EB800781
:100EE000A3EB4703303301F8013D521EE9D1083E20
:100EF00001F10807012EDBDBDDE9020100F03EFD18
:100F000000F05CFD02460B46DDE9020100F064FDE5
:100F100000224B4600F070FBCDE90201CAE700BF9A
:100F2000A08601000000F03F0000244084D79741D4
:100F30000DF11100381A0DF1110702E0401E6D1E6F
:100F40007F1C39783029F9D04AF02001662902D176
:100F50002DB2691C03E065290CBF01210021226B21
:100F60008E1836B2B042B8BF064636B231001AD437
:100F7000814204DAC85D3528A8BF392000DA302064
:100F8000CA19521E00E0761E12F80139491E83422A
:100F9000F9D0392802D1C85D401CC855002902D5B6
:100FA0007F1E761C6D1C2DB2009533B23A46514619
:100FB000204600F003F80FB0BDE8F08F2DE9F047B0
:100FC00086B006468A4690461D4600F006FF406AF7
:100FD000376B90F80090012D02DA01250FF26C2892
:100FE0004AF02000BDF93840662808BF641C12D0C2
:100FF000672875D114F1040F78DBBC4276DA96F8D5
:101000003800641C000702D4BD42B8BF2F4624B28A
:101010003F1B48BF0027F068B16924B2012C21DAD8
:1010200030234A1C0B54012F03DA96F838100907B5
:1010300002D502F80090521CB261E742B8BF7C4270
:1010400024B26142E7197162AF42B8BF3D462DB28A
:10105000F5612A46B3694146181800F0D9F9781BA2
:10106000B062B8E00818A54216DA2A46414600F0F8
:10107000CFF9B1696918B161601B7062012F03DAA1
:1010800096F83800000705D5F06801F80090F0697F
:10109000401CF061B7629EE02246414600F0B8F97C
:1010A000B06920182D1B012F03DA96F838100907B4
:1010B00003D5F16800F80190401C2DB2B061AF4239
:1010C000B8BF3D46F3682DB22A4604EB0801C018AC
:1010D00000F09EF9B0692818B061781B70627AE060
:1010E0005046612814D14FF0700A15E0BD4204DA71
:1010F00096F83810090758BF2F467F1E48BF0027B3
:10110000BAF1670F14BF4FF0450A4FF0650A03E0CC
:10111000412808BF4FF0500AB169F06818F8013B48
:101120000B544A1C012F05DA96F83810090758BFEE
:10113000B26115D502F80090531CB361012F0FDB8B
:101140006D1E2DB2AF42B8BF3D462DB22A46414674
:10115000181800F05DF9B0692818B061781B70624A
:10116000B069F16800EB0108200008F801AB03D476
:101170002B2008F8010B03E02D2108F8011B444245
:10118000002502AF08E00A2200A800F03FFE019807
:1011900007F8010B6D1C009C21B20129F3DA022D26
:1011A00006DA4AF02000652804BF302008F8010B59
:1011B0004DB9302008F8010B07E06D1E02A8285C2D
:1011C000303008F8010B012DF7DAB069F1684018EA
:1011D000A8EB0000F06196F8380000F01400102829
:1011E0000DD17069B1690818716A0818F169081899
:1011F000B16A0818716B8842BCBF081A306206B029
:10120000BDE8F087F8B504460D4616461F46002097
:1012100004E0E86A401CE8627F1E002047B116F82F
:10122000011BA868A047A8600028F2D14FF0FF304A
:10123000F2BD000000000000000000006E616E00C2
:101240004E414E00696E6600494E46003000F8B5CA
:1012500004460D4616461F4600F0E0FD3B4632466A
:101260002946204601B0BDE8F04000F0EEBD50F840
:10127000041B61B150F8042BD30744BFA9F101034B
:101280009A18002342F8043B091FFAD1EFE7704790
:101290000278C9B28A421AB11CBF10F8012FF9E7CF
:1012A00018BF00207047000000F10103810704D03F
:1012B00010F8011B89B18107FAD10268B2F101313E
:1012C000914311F0803F04BF50F8042FF6E710F867
:1012D000011B11B110F8011BFBE7C01A7047000099
:1012E000C9B2830706D0521E22D310F8013B99429F
:1012F000F7D11FE0083A13D302F1040241EA0121B9
:1013000041EA014150F8043B121F21BF4B40A3F1B9
:10131000013C2CEA030C1CF0803FF3D0C9B2001F43
:10132000083210F8013B521E28BF91EA030FF8D88B
:1013300018BF0120401E704780B500F06FFD0120EE
:1013400002BD000070B5054605F10F00C408E400B9
:10135000C046C046A54232D2082C04D2082402E07E
:10136000083000F091F82248026811000CD1011DEC
:101370000A6802B31368A34238BF111DF8D310E006
:101380001D68A5420DD2191D0B68002BF8D11268FB
:10139000011D00E0191D0B6893420CD01D68A54289
:1013A000F8D361B10D682A68A2F10803A3420AD2FA
:1013B0006A680A600FE000F06BFD0028D0D1C046DB
:1013C000C046002070BD63190B60121B6E685E6022
:1013D0000B681A602C60096800291DBF4A68002A42
:1013E000091D00210160C046C04605F1080070BD1E
:1013F0007C03002070B504460D46164600F00EFD35
:10140000324629462046BDE8704000F011BD00007C
:1014100062B38B0708D0521E11F8013B00F8013B64
:1014200000F024808B07F6D1830740F0208000BFB6
:10143000103A07D330B4B1E83810103AA0E83810A9
:10144000F9D230BC530724BFB1E80810A0E8081057
:1014500044BF51F8043B40F8043BD20724BF31F8A5
:10146000022B20F8022B44BF0B7803707047083A18
:1014700007D3B1E80810083A40F8043B40F804CB21
:10148000F7D25307E4E7000000B9704710B5A0F1A8
:1014900008042068082833D310F0070F30D1C04665
:1014A000C0461848416809B18C4203D2616044606B
:1014B00017E019464B680BB1A342FAD30A685318D8
:1014C0009C421BD3A34204D123689A180A600C469D
:1014D00007E04A681AB123681B199A420ED362606A
:1014E0004C60616851B1226813198B4206D1002308
:1014F000036008688018206048686060C046C04685
:1015000010BD00007C0300201B4213D1094236D1DC
:101510002AB18446B0FBF2F002FB10C2704700F023
:10152000CDBCFCD30022002370470B000200002139
:1015300000207047904271EB030CF6D370B5B1FAFE
:1015400081F4B3FA83F52C1BA340C4F1200532FAD1
:1015500005F63343A2405FF00046E64002E05B0838
:101560005FEA3202841A71EB030524BF2046294644
:101570007641F4D302000B003000002170BD012A37
:10158000CFD970B5140C20D0B1FA81F4B2FA82F53B
:10159000C4F120046419B4F12006D6D3B2405FF040
:1015A0000044F440002502E052085FEA3303C61A03
:1015B00071EB020E24BF3046714664416D41F3D396
:1015C00002000B002000290070BD0C46B1FBF2F1B7
:1015D00002FB11452D0445EA1045B5FBF2F402FB70
:1015E000145580B240EA0545B5FBF2F002FB1052FB
:1015F00040EA044070BD0000B0B581EA030C0CF075
:10160000004C40F2FF7515EA11541DBF15EA13573F
:10161000AC42AF4239E0E41923EA455343F4801366
:10162000C90241F0004141EA505EC7021100A7FB28
:10163000020200284FF00000EEFB01204FF00001F5
:10164000E3FB072118BF42F0010240180021494185
:10165000E3FB0E01A4F580640F0302D25200404167
:10166000494154F101046CDD470872F1004250F128
:10167000000051EB0451A1F580115CBF41EA0C015F
:10168000B0BD4CEA05510020B0BD05EA1357AC428D
:1016900014BFAF4241E050EA410E1CBF52EA430E74
:1016A00002E061460020B0BD24423C441BD15FEA09
:1016B000070EF6D0090302BF01460020AEF1140E5A
:1016C000B1FA81F7AEEB070401FA07FE0C37C7F158
:1016D000200100FA07F7C8404EEA000E23EA4553FE
:1016E00043F48013A2E733F00043B3FA83F704BF57
:1016F000B2FA82FE77440B3FE41BB7F1200E2FBFF6
:1017000002FA0EF3BB40C7F1200E22FA0EFE38BFDC
:1017100043EA0E03BA40641C82E750EA410E14BF4C
:1017200052EA430E6FF000014FF4001717EB430F1E
:101730008ABF194617EB410FB5E74CEA0551002067
:10174000B0BDD4F10104B4F120070FDAC4F12007D1
:10175000520828BF42F0010210FA07F501FA07F714
:10176000E1BF2A43E0403843E1400FE0352C98DCEC
:10177000C7F1200452EA400220FA07F218BF42F0F3
:10178000010231FA07F0A1400A43002172F1004240
:1017900050F1000051EB0C01B0BD30B4436803F0D0
:1017A000004201211B031B0B436004BF0368002B95
:1017B00008D10DE00368DD0F45EA440444605B0096
:1017C0000360491E4468E302F4D523031B0B436006
:1017D00043681A434260084630BC70474FF4001C0F
:1017E0001CEB410F94BF1CEB430F09E041EA030CD3
:1017F00050EA4C0C52EA0C0C03D2994208BF9042BA
:10180000704714BF8B428242704700004FF4001CA7
:101810001CEB410F94BF1CEB430F09E041EA030CA2
:1018200050EA4C0C52EA0C0C03D28B4208BF8242A5
:10183000704714BF994290427047000070B504464B
:101840000D466068C0F30A5040F2FF71884207D12C
:101850006068000304BF2068002817D0022070BD14
:1018600020B92046FFF799FF012867DA012D0FDB29
:1018700040F2FF71091A8D420AD3606800284CBFFC
:101880009FED2F0B9FED300B84ED000B012070BD01
:101890004142A942616806DA6FF31E51401941EADC
:1018A0000050606041E0401E63680122451962F308
:1018B0001F5305F1350001F000416360352803D363
:1018C00061600020206070BD002215F11F0F04DA56
:1018D00022682360002020356060684213D0521EC9
:1018E00025689241C0F12003D2439D4045EAD2725F
:1018F00025686668C54006FA03F32B4323606368D6
:1019000023FA00F06060606808436060B2F1004F45
:1019100003D80DD12078C0070AD52068401C20606C
:10192000206828B96068401C60604FF0FF3070BDCF
:101930006068884204BF20680028F6D1002070BD8E
:10194000000000000000F0FF000000000000F07F39
:10195000F446400D40EAC120490006D200F014F8D8
:10196000004248BF6FF00040604700F00DF84FF0B4
:10197000004188428CBF084640426047400D40EA23
:10198000C120490080F00D8040F00040490DA1F5D4
:101990008061491C05D4D1F11F0154BFC840C01754
:1019A00070474FF000007047010040F10980F44695
:1019B000404200F005F851F000416047010000BFCF
:1019C00009D0B0FA80F18840C91CC1F584610905CD
:1019D00001EBD0214005704770B44FF0004591EA0B
:1019E000030F44BF6B4000F06BBA00BF841A71EB69
:1019F000030604D26E40001BB141121973414FF42B
:101A0000001C1CEB410F34BF7CEB430684E00C0D43
:101A1000A4EB1356362E7DDC012E43DC45EAC323AE
:101A200043EA525312BFD20292025B08240545EAF0
:101A3000C12141EA5051D2EBC020994125D407D1B0
:101A4000B0FA80F610FA06F164D00020203608E0E3
:101A5000B1FA81F6B140C6F1200220FA02F2114338
:101A6000B0404FEAF474B4EB465434F001064FEA48
:101A700074040AD8D6F50016760D04F00044F04040
:101A800061FA06F25040F1404840C00A40EA415035
:101A900021F0004128BF5FEA500550F1000044EBFF
:101AA000D12137E045EAC323DB0A45EAC121C90A4F
:101AB000B6F120050EDD42EA0242120CC5F1200605
:101AC00003FA06F6EB4042EA06056D42984161F1E1
:101AD00000010DE062FA06F5F240554063FA06FC9B
:101AE00082EA0C02F3405A406D42904161EB0301DF
:101AF00011F4801F05D1641E620502D06D004041C3
:101B0000494121F48011430875F1004350F1000070
:101B100041EB045170BC70471CEB410F15D223F010
:101B2000004352EA43060BD04FEA4C0CBCEB410F8A
:101B300004D80C0D661E342EB7DDEBE7801A9941F0
:101B400050EA410608BF0021E4E708BF1CEB430F41
:101B500028BF6FF00001DDE7F0B540F2FF7581EAC4
:101B6000030C0CF0004C15EA11541DBF15EA135775
:101B7000AC42AF42E5E0BC41C1F31301C3F3130330
:101B8000801A994143F4801304D2641E40004941F5
:101B900080185941C90241EA5051B1FBF3F603FBE9
:101BA0001611A2FB0675D7EBC020A94102D2761E02
:101BB00080185941C90241EA5051B1FBF3FE03FBC1
:101BC0001E11A2FB0E75D7EBC020A94103D2AEF1C6
:101BD000010E80185941890241EA9051760546EA82
:101BE0008E2EB1FBF3F603FB1611A2FB0675D7EBA5
:101BF0008020A94102D2761E80185941C90241EACB
:101C000050514EEA060EB1FBF3F603FB1611A2FB90
:101C10000675D7EBC020A94102D2761E8018594123
:101C2000C90241EA5051B1FBF3F703FB1711A2FBC4
:101C30000735D3EBC020A94167F100070CBF004274
:101C400047F0010766F3D5274FEA1E31B80814F5AF
:101C5000806412DDBD0775F1004250EB0E5051EB70
:101C6000045111F5801F5CBF41EA0C01F0BD4CF03E
:101C70007F6141F0E0410020F0BDBD076D0840EA02
:101C80000E5041F48011D4F10104B4F120060ADAB7
:101C9000C4F120060200E04001FA06F3E1401843D7
:101CA000B24015430EE0342C13DCC6F1200445EAA3
:101CB00040056D0820FA06F2154321FA06F0A1400E
:101CC0000D43002175F1004250F1000051EB0C0171
:101CD000F0BD00205FEA0C01F0BDCFB992185B4166
:101CE000B3FA83F704BFB2FA82F6BF190B3FB7F11C
:101CF00020062FBF02FA06F3BB40C7F1200622FAE6
:101D000006F638BF3343BA401CB1E419641E33E70A
:101D10007F4231F00041B1FA81F404BFB0FA80F69D
:101D2000A4190B3CB4F120062FBF00FA06F1A14024
:101D3000C4F1200620FA06F638BF3143A0403C1B10
:101D40001AE7AC421ABF05EA1357AF4212E050EA55
:101D500041061CBF52EA4306BFE750EA410730463E
:101D600061461CBF41EA0551F0BD52EA430C08BF71
:101D7000C143F0BD00204FF4001616EB410F98BF91
:101D800016EB430F08BF16EB410F24BFC14305E01C
:101D900016EB430F0CBF61464CEA0551F0BD000045
:101DA00080B5134800F0F6F80FF248010160416079
:101DB0008160C1600161416181610FF23C02426258
:101DC0008162C162016341630FF2300282630FF2EC
:101DD0003402C2630164416401BD10B5044800F0DF
:101DE000D9F80446206808B9FFF7DAFF204610BD8D
:101DF00000000020000000002E00000066616C73EF
:101E000065000000747275650000000091FBF2F33C
:101E100003FB1211C0E900317047000080B5DFF804
:101E20000C0000F0B7F8806902BD000090000020AF
:101E300030B430B90FF24800D0E90045C2E900459E
:101E40001BE00170012030BC704730B431B90FF293
:101E50003800D0E90045C3E900450EE01AB930BCAE
:101E60006FF00100704708B10A7802800978481EB7
:101E7000804130BCC043C00F7047002030BC704769
:101E80000000000000000000000000000000000052
:101E90000749086808B1002070470648C008C0001C
:101EA00008600549C908C900091A0160704700BFE8
:101EB00090030020A7070020A00900207047000021
:101EC000841A71EB030603D2001BB141121973414E
:101ED0004FF4001C1CEB410F34BF7CEB430443E088
:101EE0000C0DA4EB1356352E50DC45EAC323DB0A58
:101EF00045EAC121C912B6F120050DDD63FA05F6E8
:101F0000EB4086EA0305124218BF45F00105C018F0
:101F100051F100010CD213E062FA06F5F24055408F
:101F2000F3415A40B340F3405A408018594107D317
:101F300049085FEA30005FEA350528BF45F0010532
:101F400001F58011420875F1004250F1000041EBAB
:101F5000045170BC4FF4001C1CEB410F38BF70479C
:101F60000020090D090570471CEB410F10D252EA01
:101F700043060BD0BCEB410F05D80C0DAB43661EDE
:101F8000342EB5DD02E0AB438018594170BC704778
:101F900070BC70477047000038B501240025DFF899
:101FA0007C0A00210170DFF8740A00214170DFF81B
:101FB0006C0A00218170DFF8640A0021C17000F012
:101FC00012FD00F056FB00F06EFB42F2F03000F024
:101FD000F3F800F0C4F800F0F9FB00F07FFB642098
:101FE00000F026FC642000F09DFCE4B2002C68D0D8
:101FF000012000F073F8010089B2012000F0AAFB73
:10200000022000F06BF810F10A0189B2022000F002
:10201000A1FB032000F062F810F1140189B2032043
:1020200000F098FB042000F059F810F11E0189B26D
:10203000042000F08FFB06222921DFF8E40900F0DC
:102040009AFDDFF8DC090379DFF8D4098278DFF83C
:10205000D0090178DFF8CC0900F08AFEDFF8C80962
:10206000007800280ED000A8DFF8C0190322FFF77F
:10207000DFF9032100A800F05AF80621DFF8A009D3
:1020800000F055F82800451CC0B2022190FBF1F287
:1020900002FB1102002A05D0DFF894094FF48051A9
:1020A000018004E0DFF88C094FF480510180DFF8F3
:1020B00084094FF4004101804FF47A7000F07EFBF8
:1020C00093E70021DFF8700900F0B6FE0021DFF889
:1020D0006C0900F04DFF002032BD00000100DFF868
:1020E00060090078002801D01E201FE09FED610AE2
:1020F000DFED610AC0EE800ADFF82009081810F948
:10210000010C1B3001EE100AB8EEC11ADFF83409D9
:10211000007801EE900AF8EE611AC1EEA00A71EEA5
:10212000200AFDEEE00A10EE900A40B2704738B582
:1021300004000D002800451E00280ED08021DFF885
:10214000FC0800F052FF0028F8D0217889B2DFF8AF
:10215000EC0800F01BFF641CECE731BDFEE780B526
:10216000DFF8E40840210170DFF8DC08002141704D
:10217000DFF8D40807218170DFF8CC080021C17096
:10218000DFF8C40800210171DFF8BC0800F09AFCF8
:102190001E2000F013FBDFF8B40820210170DFF8E7
:1021A000AC0801214170DFF8A4080C218170DFF830
:1021B0009C0800F0A0FC01BD10B588B0040001210E
:1021C000102000F0F7FF0121022000F0D5FFC02011
:1021D000019002208DF8080002208DF809000020EF
:1021E0008DF80A0000208DF80B0001A9DFF86008C7
:1021F00001F022F807220621DFF8540801F075F8F3
:1022000007220721DFF8480801F06FF80394002047
:10221000ADF810000020ADF812000020ADF8140059
:102220000020ADF818000C20ADF8160003A9DFF867
:102230000C0800F01FFE012240F22551DFF8FC07D8
:1022400000F0A8FE25208DF8000000208DF8010088
:1022500000208DF8020001208DF8030000A801F095
:1022600071F80121DFF8D40700F082FE08B010BD3C
:1022700000000000000004420000C84210B540F217
:102280002551DFF8B80700F0BFFE002800F0F0810C
:10229000DFF8AC0700210170DFF8B8070088C0B292
:1022A0006E2800F0E181DFF8B0170978142980F278
:1022B000DB81DFF8A4170978DFF8A0278854DFF85E
:1022C00098170978042940F09081DFF88C17097875
:1022D000DFF88827891811F8041C4C2958D1DFF839
:1022E00078170978DFF87427891811F8031C582922
:1022F00021D1DFF864170978DFF86027891811F811
:10230000021C642211FB02F1DFF84C271278DFF87F
:102310004C37D21812F8012C0A2312FB0311DFF8F4
:1023200038271278DFF83437D25C51183031DFF8B3
:102330003027117059E1DFF820170978DFF81C27E2
:10234000891811F8031C592940F04F81DFF808174C
:102350000978DFF80827891811F8021C642211FB9C
:1023600002F1DFF8F4261278DFF8F036D21812F80E
:10237000012C0A2312FB0311DFF8DC261278DFF8A8
:10238000DC36D25C51183031DFF8B82611702CE100
:10239000DFF8C4160978DFF8C426891811F8041C80
:1023A000522958D1DFF8B0160978DFF8B02689181D
:1023B00011F8031C582921D1DFF89C160978DFF8A1
:1023C0009C26891811F8021C642211FB02F1DFF827
:1023D00088261278DFF88436D21812F8012C0A23E6
:1023E00012FB0311DFF870261278DFF87036D25C2A
:1023F00051183031DFF86C261170F6E0DFF858160E
:102400000978DFF85826891811F8031C592940F07B
:10241000EC80DFF844160978DFF84026891811F8B7
:10242000021C642211FB02F1DFF82C261278DFF87F
:102430002C36D21812F8012C0A2312FB0311DFF8F4
:1024400018261278DFF81436D25C51183031DFF8D4
:1024500018261170C9E0DFF800160978DFF8FC25AE
:10246000891811F8041C4D2940F0BF80DFF8E815E9
:102470000978DFF8E825891811F8031C312925D1DE
:10248000DFF8D4150978DFF8D425891811F8021C73
:102490004E2902D15FF0FF3100E00121DFF8B825BD
:1024A0001278DFF8B835D21812F9012C303A5143BE
:1024B0000A22DFF8A4351B78DFF8A0451B5702FB82
:1024C00001313039DFF8542511708EE0DFF88815BE
:1024D0000978DFF88825891811F8031C322925D1DD
:1024E000DFF874150978DFF87425891811F8021CD3
:1024F0004E2902D15FF0FF3100E00121DFF85825BD
:102500001278DFF85835D21812F9012C303A5143BD
:102510000A22DFF844351B78DFF840451B5702FBE1
:1025200001313039DFF8F42451705EE0DFF828150E
:102530000978DFF82825891811F8031C332925D1DB
:10254000DFF814150978DFF81425891811F8021C32
:102550004E2902D15FF0FF3100E00121DFF8F824BD
:102560001278DFF8F834D21812F9012C303A5143BE
:102570000A22DFF8E4341B78DFF8E0441B5702FB43
:1025800001313039DFF8942491702EE0DFF8C8145F
:102590000978DFF8C824891811F8031C342924D1DC
:1025A000DFF8B4140978DFF8B424891811F8021C94
:1025B0004E2902D15FF0FF3100E00121DFF89824BD
:1025C0001278DFF89834D21812F9012C303A5143BE
:1025D0000A22DFF884341B78DFF880441B5702FBA3
:1025E00001313039DFF83424D170DFF86C14097808
:1025F000DFF86824891811F8011C432906D1C0B2FC
:10260000312803D1DFF8201401220A70DFF84814C2
:102610000978DFF84824891811F8011C432906D1EC
:10262000C0B2302803D1DFF8001400220A70DFF8AE
:1026300028140978022291FBF2F303FB1213002BFA
:1026400005D0DFF8EC134FF400420A8004E0DFF815
:10265000E4134FF400420A80DFF8FC130978491CA8
:10266000DFF8F423117003E0DFF8EC1300220A70A6
:1026700010BD00B583B00121022000F07DFD0120D6
:10268000009001208DF8040000208DF80600012044
:102690008DF8070002208DF8050000A9DFF8B003CF
:1026A00000F0CAFD07BD00B583B00121012000F094
:1026B00063FD4FF40040009001208DF804000020DD
:1026C0008DF8060001208DF8070002208DF8050026
:1026D00000A9DFF8980300F0AFFD07BD00B583B097
:1026E0000121022000F057FD0121062000F044FDE9
:1026F000C020009002208DF8040003208DF8050012
:1027000000208DF8060001208DF8070000A9DFF8F1
:10271000600300F091FD0320009000A9DFF8300372
:1027200000F08AFD02220621DFF8440300F0DDFDFF
:1027300002220721DFF8380300F0D7FD0222002132
:10274000DFF80C0300F0D1FD02220121C04800F0A7
:10275000CCFD07BD80B2012808D1DFF8182389B26B
:102760001160DFF8142389B211601CE080B20228E6
:1027700006D1C24A89B21160C14A89B2116012E021
:1027800080B2032806D1BF4A89B21160BE4A89B21D
:10279000116008E080B2042805D1BC4A89B21160FA
:1027A000BB4A89B211607047BA480068002804D05B
:1027B000B8480068401EB7490860704701B40098E7
:1027C000411E00910028FAD101B0704700B583B0D6
:1027D0000121102000F0D0FC0121012000F0EAFCD2
:1027E0004FF4D440009002208DF8040003208DF8AF
:1027F000050000208DF8060000208DF8070000A9D4
:10280000A54800F019FD01220921A34800F06DFD43
:1028100001220B21A04800F068FD01220D219E48F5
:1028200000F063FD01220E219B4800F05EFD07BD14
:1028300038B5040000259948006840084FF47A51E3
:10284000B0FBF1F0401E050095480580944800213A
:1028500041809348446092480021018190480021C2
:1028600081728F498F4800F0ABFD8F487021018045
:102870008D48012141808C48042181808A480021B3
:10288000816089480221818187480821C181864869
:102890004FF480710182844800214182824981483D
:1028A00000F0DFFD80488149098881607E497D48CC
:1028B00000F016FE7C487E49098881607A49794893
:1028C00000F054FE78487B49098881607649754854
:1028D00000F091FE78484FF40061018076484FF493
:1028E0008061418074484FF48071818072480B216F
:1028F000C18071484FF4805101816F484FF40051FD
:1029000041816D484FF4804181816B49654800F0F9
:10291000DBFE0121634800F096FD0121614800F0D3
:10292000E3FE31BD38B5040000255C48006880082E
:102930004FF47A51B0FBF1F0401E05005848446056
:1029400057480580564800210181554800214180A3
:1029500053495A4800F034FD5348602101805248E1
:10296000012141805048002181604F480021818130
:102970004D49524800F075FD0821504800F07EFE98
:1029800049480121418048480021816046494B481F
:1029900000F0A6FD0821494800F079FE42480121D7
:1029A00041804148002181603F49444800F0DEFDFC
:1029B0000821424800F075FE3B48012141803A4819
:1029C0000021816038493D4800F015FE08213B4850
:1029D00000F070FE0121394800F027FD0121374841
:1029E00000F031FD31BD00B583B00121082000F0B9
:1029F000C3FB4FF47040009001208DF804000220CA
:102A00008DF8050000208DF8060000208DF80700E5
:102A100000A92B4800F010FC07BD0000880300202F
:102A200074030020984000089A030020B04000087A
:102A3000180C02401A0C0240003001400010014006
:102A4000000200209C0300206C0300208C03002067
:102A500000040240041001409F03002024030020D2
:102A60009B0300209D0300209E03002000000240E5
:102A700000080240340400403400014038040040A3
:102A8000380001403C0400403C000140400400404C
:102A9000400001408403002000100240F8010020A3
:102AA00060030020000001403C030020940300204C
:102AB00096030020980300205003002000040040EB
:102AC000000C024010B582B0040000208DF8000018
:102AD00000F074F8607821780843E17808432179A0
:102AE0000843A17808438DF800000122202100A8A6
:102AF00000F022F813BD10B582B0040000208DF85C
:102B000000000122212100A800F035F89DF8000006
:102B100010F0D0008DF800009DF800002178627858
:102B20001143A278114308438DF8000001222121AE
:102B300000A800F001F813BD70B504000D001600E8
:102B4000B6B2022E01DB55F040050821844800F0A2
:102B5000CAFB2800C0B200F0CAF8B6B2002E05D0F9
:102B6000207800F0C4F8761E641CF6E708217C4843
:102B700000F0B7FB70BD70B504000D001600B6B2D2
:102B8000022E02DB55F0C00501E055F0800508215A
:102B9000734800F0A8FB2800C0B200F0A8F8B6B255
:102BA000002E06D0002000F0A2F82070761E641CD3
:102BB000F5E708216A4800F094FB70BD00B587B0C6
:102BC00001214FF4805000F0F5FA0121012000F0BE
:102BD000D3FA0121102000F0CFFA0121102000F0DB
:102BE000CBFA0121102000F0C7FA052205215D482B
:102BF00000F07BFB052206215A4800F076FB0522F7
:102C00000721584800F071FB02208DF804000020D5
:102C10008DF8060002208DF8070002208DF80500CF
:102C20002020009000A94F4800F006FB8020009073
:102C300000A94C4800F000FB4020009000A9494842
:102C400000F0FAFA484800F0A5F80020ADF80800B6
:102C50000020ADF80C000020ADF80E000020ADF80B
:102C600010004FF40070ADF812000820ADF8140009
:102C70000020ADF816000720ADF818004FF4827060
:102C8000ADF80A0002A9384800F0B0F80121364832
:102C900000F0D2F80820009001208DF804000020F8
:102CA0008DF8060002208DF8050000A92C4800F0E0
:102CB000C3FA08212A4800F014FB012000900020EC
:102CC0008DF8040000208DF8060002208DF8050024
:102CD00000208DF8070000A9214800F0ADFA02207D
:102CE000009000A91E4800F0A7FA07B000BD10B57B
:102CF00004001E484FF48051016002211A4800F080
:102D0000ADF800280AD119480068411E174A116021
:102D10000028F2D1FFF722FAC0B21EE0E4B221008F
:102D200089B2114800F098F810484FF480510160C2
:102D300001210D4800F092F800280AD10B480068E4
:102D4000411E0A4A11600028F2D1FFF707FAC0B20B
:102D500003E0054800F07EF8C0B210BD000000009E
:102D6000001002400000024000300140F401002049
:102D70000EB400B582B003A90091024600AB012158
:102D8000034878440A30FDF7FFF906BC5DF810FBF4
:102D9000D712000010B50400244884420AD1012152
:102DA0004FF4805000F024FA00214FF4805000F0DE
:102DB0001FFA1AE01E4884420AD101214FF48040D4
:102DC00000F007FA00214FF4804000F002FA0CE016
:102DD0001848844209D101214FF4004000F0F9F96C
:102DE00000214FF4004000F0F4F910BD10B40022AF
:102DF00003881A0012F441520B884C8823438C88B4
:102E00002343CC8823430C8923434C8923438C8957
:102E10002343CC8923431A430280838B4FF2FF74F0
:102E2000234083830B8A038210BC7047003001402B
:102E300000380040003C0040C9B2002904D002889C
:102E400052F04002028004E002884FF6BF731A403D
:102E5000028070478089704781817047020000209E
:102E600013890B4202D00123180001E0002318004F
:102E7000C0B270472DE9F04385B004000D005FF04B
:102E80000009002600275FF00008A8890028208A92
:102E9000814639F44059E88850EA0909A4F81090AD
:102EA000A0898146314810EA0909A8882989084380
:102EB0006989084350EA0909A4F80C90A08A814660
:102EC00039F44079A88950EA0909A4F8149000A8B7
:102ED00000F0D2F82348844202D02348844202D131
:102EE0000398060001E002980600A089000408D5B6
:102EF000192000FB06F029684900B0FBF1F007003B
:102F000007E0192000FB06F029688900B0FBF1F00A
:102F100007006420B7FBF0F0000181465FEA19105A
:102F2000642101FB10708046A08900040AD55FEA85
:102F3000C80032306421B0FBF1F010F0070050EA15
:102F4000090909E05FEA081032306421B0FBF1F0B2
:102F500010F00F0050EA0909A4F8089005B0BDE888
:102F6000F08300000010014000140140F3E9FFFF6E
:102F7000C9B2002904D0828952F40052828104E04F
:102F800082894DF6FF731A4082817047CA05D20DBF
:102F900082807047F0B4002300240025002689B207
:102FA00040F66A17B94206000F00FFB27F09FFB270
:102FB0003B0089B211F01F073C000127A7403D00EC
:102FC000012B01D10C3604E0022B01D1103600E0B8
:102FD0001436D2B2002A03D037682F43376002E09C
:102FE0003768AF433760F0BC70470200002089B2F9
:102FF000B1F5007F13880B4202D00123180001E0D5
:1030000000231800C0B2704770B4020000230025EE
:103010000024002089B240F66A16B1420E00F6B2D2
:103020007609F6B2340089B211F01F063500012688
:1030300016FA05F5012C02D19689354006E0022CDE
:1030400002D1168A354001E0968A354089B20E0ACF
:10305000B6B23300012616FA03F316883340002D6A
:1030600004D0002B02D00126300001E00026300001
:10307000C0B270BC70470000F0B4002100220023F1
:10308000022400250226DFF888713F6817F00C073C
:1030900039000F00002F04D0042F06D0082F08D0CD
:1030A0003CE0DFF8747107603BE0DFF870710760A7
:1030B00037E0DFF860713F68C7F380573D00DFF805
:1030C00054713F6817F03F073E00002D0DD0DFF828
:1030D0004C71B7FBF6F7DFF83CC1DCF800C0CCF36D
:1030E000881C0CFB07F73B000CE0DFF82C71B7FBEA
:1030F000F6F7DFF820C1DCF800C0CCF3881C0CFB2D
:1031000007F73B00DFF80C713F68C7F301477F1CEE
:103110007F003C00B3FBF4F7076002E0DFF8F870D3
:103120000760DFF8EC703F6817F0F0073900090915
:10313000DFF8EC70CF5D3A000768D7404760DFF8F2
:10314000D0703F6817F4E0573900890ADFF8D07073
:10315000CF5D3A004768D74087602D4F3F6817F42E
:1031600060473900490BDFF8B870CF5D3A00476817
:10317000D740C760F0BC7047C9B2002905D0294AC2
:1031800012680243274B1A6004E0264A1268824301
:10319000244B1A607047C9B2002905D0224A126830
:1031A0000243214B1A6004E01F4A126882431E4BFF
:1031B0001A607047C9B2002905D01C4A1268024340
:1031C0001A4B1A6004E0194A12688243174B1A60BE
:1031D0007047C9B2002905D0154A12680243144B42
:1031E0001A6004E0124A12688243114B1A60704759
:1031F000C9B2002905D00F4A126802430D4B1A606C
:1032000004E00C4A126882430A4B1A6070470000BF
:1032100008380240043802400024F40000127A000A
:10322000DC0100203038024040380240443802407F
:103230002038024024380240F0B400220023002449
:1032400000252A00102A4AD2012595402B000D683E
:103250001D402C009C4240D1056803261700FFB298
:103260007F00BE40B543056005680E791700FFB2C8
:103270007F00BE40354305600D79012D02D00D79E8
:10328000022D1AD1856803261700FFB27F00BE40C9
:10329000B543856085684E791700FFB27F00BE4058
:1032A00035438560456801269640B54345604568CD
:1032B0008E799640B6B235434560C568032617003F
:1032C000FFB27F00BE40B543C560C568CE79170028
:1032D000FFB27F00BE403543C560521CB2E7F0BC70
:1032E00070470183704741837047F0B40023002486
:1032F000D2B211F00705EDB2AD0012FA05F52B00C0
:1033000089B2CD1010EB850589B2CE1010EB860680
:10331000366A0F2711F0070C5FFA8CFC5FEA8C0C01
:1033200017FA0CF7BE432E6289B2CD1010EB85055B
:103330002D6A1D432C0089B2CD1010EB85052C623F
:10334000F0BC7047F0B4002300210F22C478002C99
:1033500021D0174C246814F4E064D4F5E064240A06
:103360002300D3F104042100D2B21A4144788C40E6
:1033700023008478144023431B0104780D4D6355CA
:10338000047864110C4D0126077817F01F07BE4022
:1033900045F8246009E004786411084D0126077897
:1033A00017F01F07BE4045F82460F0BC70470000CE
:1033B0000CED00E000E400E000E100E080E100E06E
:1033C000002203881A00A64B98420ED0AA4B9842BE
:1033D0000BD0B0F1804F08D0A24B984205D0A24B41
:1033E000984202D0A14B984204D14FF68F731A40F5
:1033F0004B881A439E4B984207D09E4B984204D06C
:103400004FF6FF431A400B891A4302804B68C36290
:103410000B880385924B984202D0974B984201D17A
:103420008B7A0386012383827047C9B2002904D0B6
:10343000028852F08002028004E002884FF67F7317
:103440001A4002807047C9B2002904D0028852F0A5
:103450000102028004E002884FF6FE731A400280E7
:10346000704770B4002300240022058C4FF6FE76CE
:1034700035400584058C2C0085882A00058B2B009F
:103480004FF68F752B404FF6FC752B400D882B4364
:103490004FF6FD752C408D892C434D882C43704D83
:1034A000A84202D0744DA84213D14FF6F7752C40B4
:1034B000CD892C434FF6FB752C408D882C434FF65D
:1034C000FF652A404FF6FF552A400D8A2A434D8A50
:1034D0002A43828003838D684563048470BC7047EF
:1034E00070B4002300240022058C4FF6EF7635409F
:1034F0000584058C2C0085882A00058B2B0048F656
:10350000FF752B404FF6FF452B400D8853EA0523EE
:103510004FF6DF752C408D8954EA05144D8854EA26
:1035200005144F4DA84202D0534DA84217D14FF673
:103530007F752C40CD8954EA05144FF6BF752C4099
:103540008D8854EA05144FF6FF352A404FF2FF7577
:103550002A400D8A52EA85024D8A52EA850282800B
:1035600003838D688563048470BC704770B4002346
:1035700000240022058C4FF6FF6635400584058C3B
:103580002C0085882A00858B2B004FF68F752B40E9
:103590004FF6FC752B400D882B434FF6FF552C4002
:1035A0008D8954EA05244D8854EA05242C4DA842FF
:1035B00002D0314DA84217D14FF2FF752C40CD8972
:1035C00054EA05244FF6FF352C408D8854EA052433
:1035D0004EF6FF752A404DF6FF752A400D8A52EAD5
:1035E00005124D8A52EA0512828083838D68C56375
:1035F000048470BC704770B4002300240022058C42
:103600004EF6FF7635400584058C2C0085882A000F
:10361000858B2B0048F6FF752B404FF6FF452B405E
:103620000D8853EA05234DF6FF752C408D8954EA29
:1036300005344D8854EA0534094DA84202D00E4D98
:10364000A84205D14BF6FF752A400D8A52EA851231
:10365000828083838D680564048470BC7047000099
:10366000000001400004004000080040000C004041
:103670000010004000140040000401400022038BB1
:103680001A004FF6F7731A400A430283704700226C
:10369000038B1A004FF2FF731A4052EA0122028391
:1036A00070470022838B1A004FF6F7731A400A43C3
:1036B000828370470022838B1A004FF2FF731A40F7
:1036C00052EA0122828370470A884B881A438B880A
:1036D0001A43CB881A430B891A434B891A438B89A7
:1036E0001A43A0F844207047C9B2002906D0B0F8A8
:1036F000442052F40042A0F8442005E0B0F84420F1
:103700005204520CA0F844207047000080B54E4887
:10371000006850F001004C4908604C4800210160ED
:10372000494800684A4908404749086049484A49A9
:1037300001604548006830F48020434908604748EC
:103740000021016000F005F845485FF0006101606C
:1037500001BD82B000200190002000903A4800682E
:1037600050F48030384908603748006810F4003061
:1037700000900198401C01900098002803D1019806
:10378000B0F5A06FF0D130480068800302D5012069
:10379000009001E000200090009801283ED13148BF
:1037A000006850F080502F4908602F48006850F49E
:1037B00080402D4908602548244909680160234854
:1037C000006850F40040214908602048006850F427
:1037D000A0501E4908601F48244901601A4800682B
:1037E00050F0807018490860174800688001FBD5C8
:1037F0001F4840F20561016014480068800880009D
:10380000124908601148006850F002000F49086032
:103810000E48006810F00C000828F9D10B48006829
:1038200030F4000009490860124813490160064855
:10383000006850F080600449086003480068000197
:10384000FBD502B070470000003802400838024043
:10385000FFFFF6FE04380240103000240C3802400E
:1038600008ED00E040380240007000400854400776
:10387000003C0240843802400030005010B4364A08
:103880000021134653F8084B844207D1002342F825
:10389000313002EBC1014B6010BC704753F8084B4C
:1038A000491C84421EBF491C53F8084B84421EBF6A
:1038B000491C53F8084B8442E8D0491C1029E1D335
:1038C00010BC704770B4244C0023254655F8086B93
:1038D0008E4209D1014604EBC303012A04BF5A6892
:1038E0005118596070BC704755F8086B5B1C8E42CC
:1038F0001EBF5B1C55F8086B8E421EBF5B1C55F843
:10390000086B8E42E6D05B1C102BDFD370BC704777
:1039100010B4114A0021134653F8084B844204D1D5
:1039200002EBC10010BC4068704753F8084B491CBB
:1039300084421EBF491C53F8084B84421EBF491CD9
:1039400053F8084B8442EBD0491C1029E4D310BC37
:103950000020704700000000040200202DE9F04123
:1039600004460D462078032116461F46084258D0CB
:10397000204600F09AF8002853D115B1D5E900018E
:103980008619012F3DD12088C00416D5A16904F104
:103990003D02204600F0A6F8626A804602B922691C
:1039A000E168204600F09EF8A6EB08010E1AA26A14
:1039B000E168204600F096F8361A46BB20884FF49E
:1039C000405108420ED06068E0602061A0626061F2
:1039D0006068E06204F23D00A06104F12400E0614F
:1039E000002060622DB1D5E9022304F13000C0E966
:1039F000002320884CF6FF61084020800020BDE8AD
:103A0000F081022F03D04FB916F1010F09D094F9BC
:103A100003003A46314600F06BF8064616F1010FF6
:103A2000CCD100F08BF8232101604FF0FF30BDE8CE
:103A3000F081000038B500F087F804462088800443
:103A40002ED5656809E04A1B294600F07FF810F181
:103A5000010F18BF00280CD04519E16894F9030044
:103A60008D42F0D30022002100F070F810F1010F18
:103A70000DD16068E0606061E062208840F4007011
:103A80002080204600F061F84FF0FF3032BD6568BD
:103A9000E5606561E5624DF6FF7120880840208091
:103AA000204600F052F8002032BDF8B5A0B9C0465B
:103AB000C04600240A4D08264FF0FF37286820B181
:103AC000FFF7B8FF002848BF3C462D1D761EF5D1F4
:103AD000C046C0462046F2BDBDE8F240AAE700005D
:103AE000BC010020914201D2501A7047002070475B
:103AF00030B583B004000D00012A02D1FFF708FFA2
:103B000007E0022A07D100940020019069460C20AA
:103B1000ABBE2D1801E0002A0CD100940195694636
:103B20000A20ABBE002805D1002221002800FFF7A3
:103B3000C9FE01E00020C04303B030BD0148FEF7DC
:103B400029BA0000FC0100207047704780B50028AA
:103B500002D400F003F802BD002002BD80B50029A8
:103B600001D1002002BD012801D0022802D100F0BD
:103B700004F802BD00F011F802BD30B583B00C00AE
:103B80001500012000F032F800900194029569467A
:103B90000520ABBE281A03B030BD10B584B01300A9
:103BA0000090019102930122040069460520ABBEFA
:103BB000181A2100FFF786FE04B010BD80B500F092
:103BC00033F802000023DB431068984204D0110050
:103BD0000220ABBE002010605068984204D0111D36
:103BE0000220ABBE0020506001BD000010B584B0C3
:103BF000040000F019F8A100421810680021C94320
:103C000088420DD107A00090002C01D1002000E0D7
:103C1000042001900320029069460120ABBE106091
:103C200004B010BD3A74740000487047EC010020E5
:103C300010B50446E0686169884252D3218849F290
:103C400002020A40022A08D008044CBF4FF4007058
:103C50004FF48440084320803CE001F4C041B1F5BA
:103C6000C04F06D1A168884203D32046FFF71DFF4D
:103C700080BB20884FF44061084202BF606804F1B5
:103C80003D01884217D14FF40070FDF75BFB606087
:103C900030B904F23D006060E060401CA0600AE0C2
:103CA000218841F040012180E06000F50071A160B1
:103CB000A0626068E06260682061A068606120784E
:103CC00040070AD502220021204600F00CF810F12E
:103CD000010F02D14FF0FF3010BD208840F4C040EA
:103CE0002080002010BD70B50C461546FFF72CFF54
:103CF00006462B4622460021FFF730FE044630469A
:103D0000FFF723FF204670BD816807E00268116855
:103D1000536889185B18C36008320260C268914218
:103D2000F4D04A1C8260087870472DE9FF4D00F1FD
:103D3000080100914FF0000A0168009A490802EB5F
:103D4000C1010191D3460021029103910168490804
:103D500000EBC101406800F0010501F108044008D2
:103D600004EBC0061FE000A8FFF7CEFF47B200A893
:103D7000FFF7CAFF8046DA450DD1B44208BF00F014
:103D80001BF8D4F800A005B1CA44606800EB0A0B28
:103D90000834DA45F1D00AF8018B002F09D57F1CD1
:103DA000E9D1DA45DFD1B442DDD1304604B0BDE817
:103DB000F08D7F1EDBD5F4E7012000F001B8000094
:103DC00080B5FFF7FBFE024A11001820ABBEFBE7EF
:103DD000260002000178090627D51D4A1368002134
:103DE000834204D1002342F82130FDF74DBB01216D
:103DF000536883421EBF022193688342F2D0D36886
:103E0000032183421EBF042113698342EAD0536910
:103E1000052183421EBF0621936983421EBF0721ED
:103E2000D3698342DED0FDF72FBB002101804FF024
:103E3000FF31C17000F23D014160C16001618162EA
:103E40004161C162816100F12401C16170470000DC
:103E5000BC01002038B5044603212078084202D076
:103E60006056002809D5C046C0462046FFF7B2FF7D
:103E7000C046C0464FF0FF3527E02046FFF715FE4D
:103E80000546C046C0462078400644BF6068FDF73E
:103E9000FBFA0020606094F90300022804D900F0C6
:103EA00016F808B14FF0FF35A06B48B100F01CF8D0
:103EB00008B14FF0FF35A06BFDF7E6FA0020A063D4
:103EC0002046FFF787FFC046C046284632BD10B5E2
:103ED00082B00200009269460220ABBE04001000CE
:103EE000FFF7CCFC200016BD00B583B00090FDF7B5
:103EF000DBF9019069460E20ABBE03B000BD0000A7
:103F000010B5144C206808B1FFF7A4FF606808B131
:103F1000FFF7A0FFA06808B1FFF79CFFE06808B1B9
:103F2000FFF798FF206908B1FFF794FF606908B1B7
:103F3000FFF790FFA06908B1FFF78CFFE06908B1B7
:103F4000FFF788FFBDE81040002200214FF0FF304E
:103F5000FFF7FCBDBC01002038B505460846FFF759
:103F6000F3FD0446E0686169884204D32046FFF708
:103F70005FFE002810D4E068401CE06000F8015D9E
:103F80002088010504D440050CD5EDB20A2D09D1D5
:103F90002046FFF78AFD28B12046FFF7D6FD4FF0F7
:103FA000FF3032BD2046FFF7D0FDE8B232BD000041
:103FB00010B5074979441831064C7C44163404E0A6
:103FC0000A68081D511888470146A142F8D110BD62
:103FD000080000003000000097D2FFFF9C010000A5
:103FE000040200200000000043FDFFFF020000006B
:103FF000020000002C020000A000000000000020D1
:10400000010200004EF68851CEF20001086840F42B
:10401000700008604FF00070E1EE100A70477047C2
:10402000FEE7FEE7FEE7FEE770477047704780B5A2
:10403000FEF7BAFB01BD000000F009F8002801D02E
:10404000FFF7B6FF0020FDF7A7FF00F002F8012000
:10405000704700F001B800000746FFF751FF3846EF
:10406000FFF7AEFEFBE738B504460D46284600F0E4
:1040700005F8A84218BF0024204632BD0149FFF7C9
:104080006BBF00BF3C01002001488047014800474A
:104090000D370008A540000825642C202564202C3D
:1040A00025640A00C046C046FFF7ACFFFFF7C4FF17
:1040B00043310000FFF7B3BFFFF7B2BFFFF7B1BF57
:1040C000FFF7B0BFFFF7AFBFFFF7AEBFFFF7ADBF62
:1040D000FFF7ACBFFFF7ABBFFFF7FEBFFFF7FEBFB9
:1040E000FFF7FEBFFFF7FEBFFFF7FEBFFFF7FEBF04
:1040F000FFF7FEBFFFF7FEBFFFF7FEBFFFF7FEBFF4
:10410000FFF7FEBFFFF7FEBFFFF7FEBFFFF7FEBFE3
:10411000FFF7FEBFFFF7FEBFFFF7FEBFFFF7FEBFD3
:10412000FFF7FEBFFFF7FEBFFFF7FEBFFFF7FEBFC3
:10413000FFF7FEBFFFF7FEBFFFF7FEBFFFF7FEBFB3
:10414000FFF7FEBFFFF7FEBFFFF7FEBFFFF7FEBFA3
:10415000FFF7FEBFFFF7FEBFFFF7FEBFFFF7FEBF93
:10416000FFF7FEBFFFF7FEBFFFF7FEBFFEF786B803
:10417000FFF7FEBFFFF7FEBFFFF7FEBFFFF7FEBF73
:10418000FFF7FEBFFFF7FEBFFFF7FEBFFFF7FEBF63
:10419000FFF7FEBFFFF7FEBFFFF7FEBFFFF7FEBF53
:1041A000FFF7FEBFFFF7FEBFFFF7FEBFFFF7FEBF43
:1041B000FFF7FEBFFFF7FEBFFFF7FEBFFFF7FEBF33
:1041C000FFF7FEBFFFF7FEBFFFF7FEBFFFF7FEBF23
:1041D000FFF7FEBFFFF7FEBFFFF7FEBFFFF7FEBF13
:1041E000FFF7FEBFFFF7FEBFFFF7FEBFFFF7FEBF03
:1041F000FFF7FEBFFFF7FEBFFFF7FEBFFFF7FEBFF3
:10420000FFF7FEBFFFF7FEBFFFF7FEBFFFF7FEBFE2
:10421000FFF7FEBFFFF7FEBFFFF7FEBFFFF7FEBFD2
:10422000E400F8FFDC00FAFF8100D1001F01040068
:1042300000390100203A0100203901002039010035
:1042400020390100203901002020010020E0001F5A
:1042500002040101D402002024030020D402002023
:10426000D4020020D4020020790100206001002047
:10427000E0001F0208020284020020D40200208411
:104280000200208402002084020020B9010020A046
:10429000010020E0000BFC0000203C0100207C011C
:1042A0000020E8000B0102030401020304060708D2
:1042B00009F8FF010010FD00027A030AFC0000016A
:04000005080040A50A
:00000001FF
