:020000040800F2
:10000000980700204D3D0008C73C0008C93C000887
:10001000CB3C0008CD3C0008CF3C000800000000AD
:10002000000000000000000000000000D13C0008BB
:10003000D33C000800000000D53C0008D73C000875
:10004000A53D0008A93D0008AD3D0008B13D0008F0
:10005000B53D0008B93D0008BD3D0008C13D0008A0
:10006000C53D0008C93D0008CD3D0008D13D000850
:10007000D53D0008D93D0008DD3D0008E13D000800
:10008000E53D0008E93D0008ED3D0008F13D0008B0
:10009000F53D0008F93D0008FD3D0008013E00085F
:1000A000053E0008093E00080D3E0008113E00080C
:1000B000153E0008193E00081D3E0008213E0008BC
:1000C000253E0008293E00082D3E0008313E00086C
:1000D000353E00085D2300083D3E0008413E000813
:1000E000453E0008493E00084D3E0008513E0008CC
:1000F000553E0008593E00085D3E0008613E00087C
:10010000653E0008693E00086D3E0008713E00082B
:10011000753E0008793E00087D3E0008813E0008DB
:10012000853E0008893E00088D3E0008913E00088B
:10013000953E0008993E00089D3E0008A13E00083B
:10014000A53E0008A93E0008AD3E0008B13E0008EB
:10015000B53E0008B93E0008BD3E0008C13E00089B
:10016000C53E0008C93E0008CD3E0008D13E00084B
:10017000D53E0008D93E0008DD3E0008E13E0008FB
:10018000E53E0008E93E00082DE9F04FA5B08046A5
:1001900015461E460FF2D850D0E90023CDE91223B0
:1001A000049104AF0020786214AC6FF0004900E0C5
:1001B00055440020ADF8020012AB4FF0FF32294643
:1001C0000DF1020001F035F88246BAF1010F08DAAC
:1001D0002878B0F1010A6AEB0A0A6FEA0A004FEACE
:1001E000D07ABDF8020025280CBFAAF101035346BE
:1001F000012B07DB2A4602A9404600F0F5FF002844
:1002000000F1EB80BDF80200252807D10020F8603E
:1002100038617861B861F861386205E00028C7D1BB
:10022000786ADCE040F0010015F8011F2029F9D0C0
:1002300023290ED02B2904D02D2906D030290CD00B
:100240000FE040F0020080B2EEE740F0040080B220
:10025000EAE740F0080080B2E6E740F0100080B224
:10026000E2E72A290DD131680A1D32600968F96276
:10027000002904D54942F96240F0040080B26D1CA7
:1002800011E00021F96209E0F96A494505D001EB66
:10029000810302EB43013039F9626D1C2A78A2F127
:1002A00030010A29F0D329782E291CBF4FF0FF31E5
:1002B000B9621CD115F8011F2A2906D131680A1D1F
:1002C00032600968B9626D1C11E00021B96209E071
:1002D000B96A494505D001EB810302EB430130398E
:1002E000B9626D1C2A78A2F130010A29F0D3388650
:1002F00029780FF2844000F0BDFF08B115F8010B1A
:100300008DF842009DF84200682804D128786828BA
:100310000AD1622005E06C2804BF28786C2803D13C
:1003200071208DF842006D1C14A8B8602A78104620
:10033000253828D01C3800F08B80001F022840F29E
:100340008780133800F0B080093800F08180801E6B
:1003500000F04A81401E00F0F080401E022877D94C
:10036000001F00F0EA80401F47D0401E00F09C8034
:10037000401E37D0C01E0CD0801E00F09580C01EDD
:1003800000F0928051E1F868411CF9602521015587
:1003900055E19DF842006C28306814D0011D316091
:1003A00000687860BA6A002A03D500F06FFF3861F0
:1003B00045E1002100F086FF00281ABF7968401A45
:1003C000B86A38613BE1011D3160026802A940460C
:1003D00000F0D6F9002840F132814FF0FF3025B00F
:1003E000BDE8F08F3068011D316000680021CDE963
:1003F000020114A878607821F2E09DF8420062289A
:1004000018D0682806D06A280BD06C2819D071281B
:1004100007D016E03068011D3160796A00680180FC
:100420000DE13268101D3060786AC1171268C2E9A8
:10043000000104E13068011D3160796A00680170D3
:10044000FDE03068011D3160796A00680160F6E006
:100450003068C01D20F007003060034603F108003B
:100460003060D3E90001CDE90201002904D5F86824
:10047000411CF9602D210DE0388E810704D5F86804
:10048000411CF9602B2105E0C00704D5F868411C28
:10049000F96020210155F86814A9401878601146C8
:1004A00002A800F06DFBCAE09DF842306C2B08BF3B
:1004B000306811D0712B08BF306802D06A2B3068C9
:1004C0000AD1C01D20F00700306084460CF10800FE
:1004D0003060DCE9000103E0011D316000680021AB
:1004E000CDE90201682B04BFDDE9020180B20BD027
:1004F000622B04BFDDE90201C0B205D0742B18BF26
:100500007A2B04D1DDE902010021CDE9020197F83F
:10051000300000075FD5DDE90201002908BF00288F
:1005200059D042F02000782855D1F8683021015583
:10053000401C411CF96002554DE09DF842006228C4
:100540000CD0682810D06A281AD06C2824D07128C2
:1005500016D0742820D07A280CD01DE03068011DF8
:10056000316090F900001BE03068011D3160B0F986
:10057000000015E03068011D31600068002110E0C6
:100580003068C01D20F007003060034603F108000A
:100590003060D3E9000104E03068011D316000687B
:1005A000C117CDE90201DDE90201002904DAF8688A
:1005B000411CF9602D210DE0388E810704D5F868C3
:1005C000411CF9602B2105E0C00704D5F868411CE7
:1005D000F96020210155F86814A940187860114687
:1005E00002A800F03AFA2AE09DF842006C2808D0F0
:1005F000F868411CF96031680A1D326009680155CC
:100600001DE03068011D31600068ADF80400002075
:10061000ADF806004FF0FF30B86201AA02A94046CB
:1006200000F0AEF800280AD5D7E6F868411CF9605A
:10063000252101551AB1F868411CF96002556D1C5D
:10064000F86AF968401AB969401A3969401AF969B3
:10065000401A7969401A396AA0EB010A97F830000C
:10066000400712D420208DF80000BAF1010F0CDBF6
:10067000D346012300AA02A9404600F0B5FD002898
:100680007FF4ABAEBBF1010BF3D1FB6814AA02A956
:10069000404600F0A9FD00287FF49FAE30208DF881
:1006A0000000D7F818B0BBF1010F0BDB012300AA43
:1006B00002A9404600F098FD00287FF48EAEBBF101
:1006C000010BF3D13B697A6802A9404600F08CFD2A
:1006D00000287FF482AE30208DF80000D7F81CB0DF
:1006E000BBF1010F0BDB012300AA02A9404600F079
:1006F0007BFD00287FF471AEBBF1010BF3D17B6968
:1007000038697968421802A9404600F06DFD00285A
:100710007FF463AE30208DF80000D7F820B0BBF135
:10072000010F0BDB012300AA02A9404600F05CFD8B
:1007300000287FF452AEBBF1010BF3D197F83000E3
:1007400040077FF536AD20208DF80000BAF1010F8B
:10075000FFF62FAD012300AA02A9404600F044FD98
:1007600000287FF43AAEBAF1010AF3D121E5000086
:100770000000000000000000686A6C747A4C000001
:100780002DE9F04F95B083460F461446D7F830A0B8
:10079000BAF1000F48BF6FF0004A00F0BFFD796B5F
:1007A000401801900FF67022D2E90001CDE9020154
:1007B00097F83800400702D40198412805D20DF17E
:1007C00010094020019000250AE000F0ADFD8146AF
:1007D000B9F1000FF7D14FF0FF303BE1AAEB080A67
:1007E000BAF1010FC0F2A98002AA21880DF101001F
:1007F00000F0F8FD5FEA000800F1BF80208818B91A
:10080000B8F1010800F1B980C245C0F2968078695C
:10081000019908EB0002914280F080807D634042A4
:10082000396A401AB969401A796A401AF969401A56
:10083000B96A451A97F83800400710D420208DF87F
:100840000000012D0BDB2E46012300AA3946584635
:1008500000F0CAFC002840F09080761EF4D17B693D
:100860004A463946584600F0BFFC002840F08580D3
:1008700030208DF800003E6A012E09DB012300AA1A
:100880003946584600F0B0FC002876D1761EF5D1E6
:10089000BB69FA683946584600F0A6FC00286CD1BE
:1008A00030208DF800007E6A012E09DB012300AAAA
:1008B0003946584600F098FC00285ED1761EF5D1E6
:1008C000FB69B869F96842183946584600F08CFC53
:1008D000002852D130208DF80000BE6A012E09DBBD
:1008E000012300AA3946584600F07EFC002844D176
:1008F000761EF5D197F8380040070DD520208DF8E9
:100900000000012D08DB012300AA3946584600F0FB
:100910006BFC90BB6D1EF6D100257D6142460DF14A
:1009200001017869484400F06BFD786940447861C2
:1009300034F8020B00287FF451AF786B7969401AC4
:10094000396A401AB969401A796A401AF969401A35
:10095000B96AA0EB010897F83800400712D42020AC
:100960008DF80000B8F1010F0CDB4446012300AA0A
:100970003946584600F038FC10B14FF0FF3562E0C0
:10098000641EF3D17B694A463946584600F02CFC78
:100990000028F2D130208DF800003C6A012C09DBE0
:1009A000012300AA3946584600F01EFC0028E4D175
:1009B000641EF5D1BB69FA683946584600F014FC4C
:1009C0000028DAD130208DF800007C6A012C09DB88
:1009D000012300AA3946584600F006FC0028CCD175
:1009E000641EF5D1FB69B869F96842183946584662
:1009F00000F0FAFB0028C0D130208DF80000BC6A5E
:100A0000012C09DB012300AA3946584600F0ECFB13
:100A10000028B2D1641EF5D197F83800400710D5F0
:100A200020208DF80000B8F1010F0ADB012300AA95
:100A30003946584600F0D8FB00289ED1B8F101088D
:100A4000F4D17D617D6304A881451CBF484600F058
:100A500013FD284615B0BDE8F08F2DE9FA4B86B09E
:100A600005462F696F2908BF082605D041F02000F0
:100A7000782814BF0A2610263C24D5E900018146B7
:100A80008B469DF81820642A18BF692A05D10029D1
:100A900003DAD9F100096BEB4B0BBBF1000F08BF78
:100AA000B9F1000F0CD1286B50B9082E44D195F83C
:100AB0003800000740D53B24302087F83B003BE05E
:100AC000A4F101084446F017CDE9046048465946B0
:100AD000DDE9042300F014FDCDE90201CDE9009B1E
:100AE000DDE90223DDE90401A0FB029BDDE9000151
:100AF000A0EB09003030C0B23A2803D39DF818109B
:100B00005139081808F80700DDE9029BBBF1000F16
:100B100008BFB9F1000F03D0E868E1198842CFD3CC
:100B2000082E09D195F83800000705D5E05D30287A
:100B300002D0641E3020E055C4F13C00A861E119E8
:100B4000E960296B884207DA081A2862288F4FF675
:100B5000EF710840288710E000290ED595F838106D
:100B600001F01401102908D1696B6A69891A2A6A8F
:100B7000891A0C1A012CA8BF2C6208B0BDE8F08BB2
:100B80002DE9F24F8EB0054604AFD5E90001CDE95D
:100B900002019DF8380040F020008DF80000612827
:100BA0000BD0286B002848BF062005D404BF9DF851
:100BB0000000672801D1012028636968C1F30A5049
:100BC00040F2FF7398421CD1080304BF2868002834
:100BD00009D10320A8619DF8380061381A2837D35D
:100BE0000FF2486108E00320A8619DF838006138E1
:100BF0001A282AD30FF22C610322E86800F000FCC7
:100C0000BBE1010017D1284600F0F1FC012812DBFE
:100C1000002400209DF80010612920D1E9683022CD
:100C200001F8012B4A1CEA609DF83820612A0CBFAC
:100C3000782258220FE040F2FE316A6861F31E52BA
:100C40006A60441A4FF0FF30E4E70FF2D451D3E763
:100C50000FF2D451D0E70A706969891C696110B933
:100C60000026B0467FE19DF80000612840F09780A3
:100C7000286B00284CBF2126461C36B2771CD5E9CC
:100C800000ABDDE902010022002300F0D3FC3ABFF3
:100C90008BF00040CDE902A0CDE902ABA4F104083D
:100CA0008DF810200DF11109012F33DBDDE9020170
:100CB0000022002300F0D6FC2CD21C2102A800F058
:100CC000E9FCDDE9020100F079FD0446FF1F012F78
:100CD00009DB00F09FFD02460B46DDE9020100F052
:100CE000B1FDCDE9020109F20700072104E004F09B
:100CF0000F0200F8012D2411012C01DB491EF6D54D
:100D0000491E5CBF002200F8012DF9D500F2070949
:100D1000012FCBDA0DF11100A9EB00010DF1110744
:100D2000B142B8BF0E4636B2002E31D430468842AA
:100D300006DA04A941184978082928BF0F2100D2F2
:100D4000002104AA821800E0761E401E12F8013924
:100D50008B42F9D00F2904D104A941184A78521CBA
:100D60004A70002803D504AF761C08F1040836B297
:100D7000701E0DD4C1190A783032D2B23A2A03D388
:100D80009DF838303A3B9A1801F80129401EF2D5F7
:100D9000286B002840F1E780701E2863E3E0DDE95E
:100DA00002010022002300F045FC05D2DDE902012A
:100DB00081F00041CDE9020124B247F2975060432F
:100DC0006F4990FBF1F80FFA88F8C8F10704002783
:100DD000DFF8B091012C19DBDDE902ABE00707D5A4
:100DE000504659463A464B4600F0ECFD82468B464B
:100DF0006410384649463A464B4600F0E3FD074644
:100E00008946002CEAD1CDE902AB21E0644292464A
:100E1000DFF874B114D0E00707D5504659463A467A
:100E20004B4600F0CFFD82468B466410384649465B
:100E30003A464B4600F0C6FD07468946002CEAD1EB
:100E4000DDE9020152465B4600F08EFECDE902016B
:100E50009DF8000066280CBF08F10A000620296BE7
:100E60004618142EA8BF132630208DF810000DF15F
:100E70001104464F012E33DBDDE9020100F0B4FC22
:100E800004F1080104220A24B0FBF4F303EB830EFF
:100E9000A0EB4E00303001F8010DB3FBF4F000EB95
:100EA0008004A3EB4403303301F8013D521EEAD124
:100EB00001F10804083E012EDCDBDDE9020100F04F
:100EC00093FC00F0B1FC02460B46DDE9020100F0A4
:100ED000B9FC00223B4600F075FDCDE90201CBE7ED
:100EE0000DF11100201A0DF111079DF81110302994
:100EF00006D1401EA8F1010817F8011F3029F8D0CB
:100F00009DF80010662904BF0FFA88F808F1010166
:100F100003D065290CBF012100212A6B8E1836B23F
:100F2000B042B8BF064636B2002E1CD431468142CC
:100F300004DAC85D352828BF392000D23020CA190C
:100F4000521E00E0761E491E12F801398342F9D084
:100F5000392802D1C85D401CC855002903D57F1E21
:100F6000761C08F101080FFA88F0009033B23A4677
:100F70009DF83810284600F00BF80FB0BDE8F08F50
:100F8000A0860100000024400000F03F84D7974174
:100F90002DE9F04786B006468A4690461C46BDF9C4
:100FA000385000F022FF406A90F80090376B012C17
:100FB00002DA01240FF278284AF02000662807D0D0
:100FC00067287AD16FF003018D427CDBBD427ADA6B
:100FD0006D1C66280AD096F83800000702D4BC427F
:100FE000B8BF27462DB27F1B48BF0027F068B16904
:100FF0002DB2012D21DA4A1C30230B54012F03DAC4
:1010000096F83810090702D502F80090521CB26118
:10101000EF42B8BF7D422DB269427162EF19A7421B
:10102000B8BF3C4624B2F46122464146B369181861
:1010300000F0E6F9381BB062BFE00818AC4216DADF
:101040002246414600F0DCF9B1696118B161281B04
:101050007062012F03DA96F83800000705D5F068B2
:1010600001F80090F069401CF061B762A5E02A46E3
:10107000414600F0C5F9B0692818B061641B012F22
:1010800003DA96F83810090704D5411CB161F168FC
:1010900000F8019024B2A742B8BF3C4624B22246D1
:1010A00005EB0801B069F368C01800F0A9F9B06950
:1010B0002018B061381B70627FE0BAF1610F14D163
:1010C0004FF0700A16E0BC4204DA96F838100907AF
:1010D00058BF27467F1E48BF0027BAF1670F14BFCD
:1010E0004FF0450A4FF0650A04E0BAF1410F08BF1E
:1010F0004FF0500AB1694A1CF06818F8013B0B54D4
:10110000012F03DA96F83810090702D502F800908B
:10111000521CB261012F10DB641E24B2A742B8BF7B
:101120003C4624B222464146B369181800F068F9DB
:10113000B0692018B061381B7062B069F16800EBCB
:10114000010808F801AB002D5CBF2B2008F8010B4B
:1011500003D52D2008F8010B6D42002402AF2DB2FB
:10116000012D0EDB0A22294600A800F057FE019847
:1011700007F8010B009D641C2DB2012DF2DA022C40
:1011800006DA4AF02000652804BF302008F8010B79
:101190001CB9302008F8010B09E0012C07DB641EA4
:1011A00002A8205C303008F8010B012CF7DAB06996
:1011B000F1684018A8EB0000F06196F8380000F0E4
:1011C000140010280DD17069B1690818716A0818E7
:1011D000F1690818B16A0818716B8842BCBF081A17
:1011E000306206B0BDE8F087F8B504460D461646F5
:1011F0001F46002077B116F8011BA868A047A86019
:1012000030B1E86A401CE86200207F1EF3D1F2BDD5
:101210004FF0FF30F2BD00000000000000000000B1
:101220006E616E004E414E00696E6600494E46008A
:101230003000F8B504460D4616461F4600F0F6FD90
:101240003B4632462946204601B0BDE8F04000F05A
:1012500005BE50F8041B61B150F8042BD30744BFFE
:10126000A9F101039A18002342F8043B091FFAD19F
:10127000EFE770470278C9B28A421AB11CBF10F872
:10128000012FF9E718BF00207047000000F10103AB
:10129000810704D010F8011B89B18107FAD10268D7
:1012A000B2F10131914311F0803F04BF50F8042F97
:1012B000F6E710F8011B11B110F8011BFBE7C01A8B
:1012C00070470000C9B2830706D0521E22D310F81F
:1012D000013B9942F7D11FE0083A13D302F104020F
:1012E00041EA012141EA014150F8043B121F21BFAC
:1012F0004B40A3F1013C2CEA030C1CF0803FF3D0DF
:10130000C9B2001F083210F8013B521E28BF91EAF3
:10131000030FF8D818BF0120401E704780B500F0B9
:1013200085FD012002BD000070B5054605F10F00E6
:10133000C408E400012000F03CFEA5422BD2082C9A
:1013400004D2082402E0083000F096F8244D286802
:1013500001000CD1291D0868B8B10268A24238BF4B
:10136000011DF8D316E01368A34213D2111D0A68B9
:10137000002AF8D10068291D00E0111D0A68824288
:1013800003D01368A342F8D304E000F061FE002804
:10139000D9D1002121B9012000F04FFE002070BDFD
:1013A0000E683068A0F10802A2423CBF7068086075
:1013B00007D3A2190A6073685360001B0A681060A3
:1013C0003460086800281DBF41680029001D002006
:1013D0002860012000F031FE06F1080070BD000019
:1013E0007403002070B504460D46164600F01EFD3D
:1013F000324629462046BDE8704000F021BD00007D
:1014000062B38B0708D0521E11F8013B00F8013B74
:1014100000F024808B07F6D1830740F0208000BFC6
:10142000103A07D330B4B1E83810103AA0E83810B9
:10143000F9D230BC530724BFB1E80810A0E8081067
:1014400044BF51F8043B40F8043BD20724BF31F8B5
:10145000022B20F8022B44BF0B7803707047083A28
:1014600007D3B1E80810083A40F8043B40F804CB31
:10147000F7D25307E4E7000000B9704710B5A0F1B8
:1014800008042068082837D310F0070034D1012061
:1014900000F08FFD1948416809B18C4203D26160A8
:1014A000446017E019464B680BB1A342FAD30A68AF
:1014B00053189C421BD3A34204D123689A180A6094
:1014C0000C4607E04A681AB123681B199A420ED3EA
:1014D00062604C60616851B1226813198B4206D179
:1014E000002303600868801820604868606001205D
:1014F000BDE8104000F0A1BD10BD00007403002045
:101500001B4213D1094236D12AB18446B0FBF2F016
:1015100002FB10C2704700F0AFBDFCD300220023D5
:1015200070470B000200002100207047904271EBD1
:10153000030CF6D370B5B1FA81F4B3FA83F52C1B22
:10154000A340C4F1200532FA05F63343A2405FF010
:101550000046E64002E05B085FEA3202841A71EB63
:10156000030524BF204629467641F4D302000B0030
:101570003000002170BD012ACFD970B5140C20D0E5
:10158000B1FA81F4B2FA82F5C4F120046419B4F11D
:101590002006D6D3B2405FF00044F440002502E0BC
:1015A00052085FEA3303C61A71EB020E24BF3046BD
:1015B000714664416D41F3D302000B002000290005
:1015C00070BD0C46B1FBF2F102FB11452D0445EA5A
:1015D0001045B5FBF2F402FB145580B240EA054514
:1015E000B5FBF2F002FB105240EA044070BD30B48B
:1015F0004168436801F0004201211B031B0B43605B
:1016000004BF0368002B0ED003684468DD0F45EA71
:10161000440444605B000360491EE302F4D5436860
:101620001B031B0B436043681A43426030BC0846EF
:10163000704700004FF4001C1CEB410F94BF1CEBE3
:10164000430F09E041EA030C50EA4C0C52EA0C0C3F
:1016500003D2994208BF9042704714BF8B42824226
:10166000704700004FF4001C1CEB410F94BF1CEBB3
:10167000430F09E041EA030C50EA4C0C52EA0C0C0F
:1016800003D28B4208BF8242704714BF99429042F6
:101690007047000070B50446606840F2FF72C0F306
:1016A0000A500D46904207D16068000304BF2068CD
:1016B00000281AD0022070BD010004D12046FFF797
:1016C00096FF012869DA012D11DB40F2FF71091A3A
:1016D0008D420CD3606800284CBF9FED310B9FED0D
:1016E000320B51EC100BC4E90001012070BD4142E6
:1016F000A942616806DA2E4A4019114041EA0050B9
:10170000606057E06268401E1203120B451942F4F4
:10171000801205F1350001F000416260352803D3E5
:1017200061600020206070BD002215F11F0F05DAF6
:10173000606822682060002020356060684213D015
:10174000521E25689241C0F12003D2439D4055EAC4
:10175000D27225686668C54006FA03F32B432360FE
:10176000636823FA00F06060606808436060B2F16B
:10177000004F03D80BD12078C00708D52068401C43
:101780002060206818B96068401C606012E06068E2
:10179000884204BF20680028F8D1002070BD0000F6
:1017A000000000000000F0FF000000000000F07FDB
:1017B000FFFF0F804FF0FF3070BD0000F446400D7A
:1017C00040EAC120490006D200F014F8004248BFA8
:1017D0006FF00040604700F00DF84FF00041884284
:1017E0008CBF084640426047400D40EAC120490096
:1017F00080F00D8040F00040490DA1F58061491C4A
:1018000005D4D1F11F0154BFC840C01770474FF035
:1018100000007047010040F10980F446404200F0AA
:1018200005F851F000416047010000BF09D0B0FA4F
:1018300080F18840C91CC1F58461090501EBD02104
:101840004005704770B44FF0004591EA030F44BF64
:101850006B4000F013BC00BF841A71EB030604D286
:101860006E40001BB141121973414FF4001C1CEB78
:10187000410F34BF7CEB430684E00C0DA4EB135600
:10188000362E7DDC012E43DC45EAC32343EA525366
:1018900012BFD20292025B08240545EAC12141EA47
:1018A0005051D2EBC020994125D407D1B0FA80F62F
:1018B00010FA06F164D00020203608E0B1FA81F673
:1018C000B140C6F1200220FA02F21143B0404FEAC3
:1018D000F474B4EB465434F001064FEA74040AD8A9
:1018E000D6F50016760D04F00044F04061FA06F2D9
:1018F0005040F1404840C00A40EA415021F00041C8
:1019000028BF5FEA500550F1000044EBD12137E0D9
:1019100045EAC323DB0A45EAC121C90AB6F120051D
:101920000EDD42EA0242120CC5F1200603FA06F669
:10193000EB4042EA06056D42984161F100010DE07D
:1019400062FA06F5F240554063FA06FC82EA0C02A0
:10195000F3405A406D42904161EB030111F4801F46
:1019600005D1641E620502D06D004041494121F459
:101970008011430875F1004350F1000041EB045120
:1019800070BC70471CEB410F15D223F0004352EAA4
:1019900043060BD04FEA4C0CBCEB410F04D80C0DA6
:1019A000661E342EB7DDEBE7801A994150EA4106F6
:1019B00008BF0021E4E708BF1CEB430F28BF6FF00E
:1019C0000001DDE7B0B581EA030C0CF0004C40F2F9
:1019D000FF7515EA11541DBF15EA1357AC42AF420B
:1019E00039E0E41923EA455343F48013C90241F076
:1019F000004141EA505EC7021100A7FB0202002825
:101A00004FF00000EEFB01204FF00001E3FB072147
:101A100018BF42F00102401800214941E3FB0E01CA
:101A2000A4F580640F0302D252004041494154F1B1
:101A300001046CDD470872F1004250F1000051EBE7
:101A40000451A1F580115CBF41EA0C01B0BD4CEA24
:101A500005510020B0BD05EA1357AC4214BFAF4298
:101A600041E050EA410E1CBF52EA430E02E06146DB
:101A70000020B0BD24423C441BD15FEA070EF6D0E3
:101A8000090302BF01460020AEF1140EB1FA81F73E
:101A9000AEEB070401FA07FE0C37C7F1200100FA8C
:101AA00007F7C8404EEA000E23EA455343F480137B
:101AB000A2E733F00043B3FA83F704BFB2FA82FE21
:101AC00077440B3FE41BB7F1200E2FBF02FA0EF351
:101AD000BB40C7F1200E22FA0EFE38BF43EA0E03C8
:101AE000BA40641C82E750EA410E14BF52EA430E2A
:101AF0006FF000014FF4001717EB430F8ABF194630
:101B000017EB410FB5E74CEA05510020B0BDD4F109
:101B10000104B4F120070FDAC4F12007520828BFEE
:101B200042F0010210FA07F501FA07F7E1BF2A4374
:101B3000E0403843E1400FE0352C98DCC7F1200449
:101B400052EA400220FA07F218BF42F0010231FACD
:101B500007F0A1400A43002172F1004250F1000059
:101B600051EB0C01B0BD0000F0B540F2FF7581EA09
:101B7000030C0CF0004C15EA11541DBF15EA135765
:101B8000AC42AF42E5E0BC41C1F31301C3F3130320
:101B9000801A994143F4801304D2641E40004941E5
:101BA00080185941C90241EA5051B1FBF3F603FBD9
:101BB0001611A2FB0675D7EBC020A94102D2761EF2
:101BC00080185941C90241EA5051B1FBF3FE03FBB1
:101BD0001E11A2FB0E75D7EBC020A94103D2AEF1B6
:101BE000010E80185941890241EA9051760546EA72
:101BF0008E2EB1FBF3F603FB1611A2FB0675D7EB95
:101C00008020A94102D2761E80185941C90241EABA
:101C100050514EEA060EB1FBF3F603FB1611A2FB80
:101C20000675D7EBC020A94102D2761E8018594113
:101C3000C90241EA5051B1FBF3F703FB1711A2FBB4
:101C40000735D3EBC020A94167F100070CBF004264
:101C500047F0010766F3D5274FEA1E31B80814F59F
:101C6000806412DDBD0775F1004250EB0E5051EB60
:101C7000045111F5801F5CBF41EA0C01F0BD4CF02E
:101C80007F6141F0E0410020F0BDBD076D0840EAF2
:101C90000E5041F48011D4F10104B4F120060ADAA7
:101CA000C4F120060200E04001FA06F3E1401843C7
:101CB000B24015430EE0342C13DCC6F1200445EA93
:101CC00040056D0820FA06F2154321FA06F0A140FE
:101CD0000D43002175F1004250F1000051EB0C0161
:101CE000F0BD00205FEA0C01F0BDCFB992185B4156
:101CF000B3FA83F704BFB2FA82F6BF190B3FB7F10C
:101D000020062FBF02FA06F3BB40C7F1200622FAD5
:101D100006F638BF3343BA401CB1E419641E33E7FA
:101D20007F4231F00041B1FA81F404BFB0FA80F68D
:101D3000A4190B3CB4F120062FBF00FA06F1A14014
:101D4000C4F1200620FA06F638BF3143A0403C1B00
:101D50001AE7AC421ABF05EA1357AF4212E050EA45
:101D600041061CBF52EA4306BFE750EA410730462E
:101D700061461CBF41EA0551F0BD52EA430C08BF61
:101D8000C143F0BD00204FF4001616EB410F98BF81
:101D900016EB430F08BF16EB410F24BFC14305E00C
:101DA00016EB430F0CBF61464CEA0551F0BD000035
:101DB00080B5134800F0CCF90FF248010160416092
:101DC0008160C1600161416181610FF23C02426248
:101DD0008162C162016341630FF2300282630FF2DC
:101DE0003402C2630164416401BD10B5044800F0CF
:101DF000AFF90446206808B9FFF7DAFF204610BDA6
:101E000000000020000000002E00000066616C73DE
:101E100065000000747275650000000091FBF2F32C
:101E200003FB1211C0E900317047000080B5DFF8F4
:101E30000C0000F08DF9806902BD0000D80100207F
:101E400030B438B90FF24400D0E90045C2E900458A
:101E5000002001E00170012030BC704730B439B976
:101E60000FF23000D0E90045C3E9004500200BE047
:101E700012B96FF0010007E008B10A780280097812
:101E8000481E8041C043C00F30BC704700000000B6
:101E900000000000000000000000000010B56B4CC6
:101EA0002068A0B3201D00F055F904F1080000F0EF
:101EB00051F904F10C0000F04DF904F1100000F0AC
:101EC00049F904F1140000F045F904F1180000F09C
:101ED00041F904F11C0000F03DF904F1200000F08C
:101EE00039F904F1240000F039F904F1280000F078
:101EF00035F904F12C0000F031F904F1300000F064
:101F00002DF904F13400BDE8104000F027B910BDF0
:101F100038B504464D4D286890BB281D00F019F9CE
:101F200005F1080000F015F905F10C0000F011F9B9
:101F300005F1100000F00DF905F1140000F009F9A9
:101F400005F1180000F005F905F11C0000F001F999
:101F500005F1200000F0FDF805F1240000F0FDF887
:101F600005F1280000F0F9F805F12C0000F0F5F873
:101F700005F1300000F0F1F805F1340000F0EDF863
:101F8000012028604CB1A078082806D205EB80001B
:101F9000001DBDE8324000F0DEB831BD40B18078B0
:101FA000082805D2294901EB8000001D00F0D4B8B3
:101FB000704738B50446254D286890BB281D00F0B1
:101FC000C8F805F1080000F0C4F805F10C0000F0B5
:101FD000C0F805F1100000F0BCF805F1140000F0A5
:101FE000B8F805F1180000F0B4F805F11C0000F095
:101FF000B0F805F1200000F0ACF805F1240000F085
:10200000ACF805F1280000F0A8F805F12C0000F06C
:10201000A4F805F1300000F0A0F805F1340000F05C
:102020009CF801202860052C06D205EB84002430A2
:10203000BDE8324000F093B831BD052805D2034910
:1020400001EB8000243000F08BB87047E4020020E0
:102050000649086808B1002070470548086005492E
:10206000C908C900091A0160704700BF8403002035
:10207000980700209809002070470000841A71EB2F
:10208000030603D2001BB141121973414FF4001C27
:102090001CEB410F34BF7CEB430443E00C0DA4EB7D
:1020A0001356352E50DC45EAC323DB0A45EAC1212D
:1020B000C912B6F120050DDD63FA05F6EB4086EA9C
:1020C0000305124218BF45F00105C01851F1000187
:1020D0000CD213E062FA06F5F2405540F3415A4043
:1020E000B340F3405A408018594107D349085FEA8A
:1020F00030005FEA350528BF45F0010501F5801184
:10210000420875F1004250F1000041EB045170BCEF
:102110004FF4001C1CEB410F38BF70470020090D25
:10212000090570471CEB410F10D252EA43060BD051
:10213000BCEB410F05D80C0DAB43661E342EB5DD4C
:1021400002E0AB438018594170BC704770BC7047C7
:1021500070477047704770477047704770477047C7
:102160007047000010B584B000A8DFF830150922D0
:10217000FFF756F9012442F2F03000F093F800F036
:1021800064F800F080F900F010F94FF47A7000F074
:10219000ACF94FF47A7000F021FA4FF4FA71012093
:1021A00000F03AF94FF4FA71022000F035F94FF4DB
:1021B000FA71032000F030F94FF4FA71042000F0B6
:1021C0002BF9E4B2002C1BD006222921DFF8D00421
:1021D00000F0FFFADFF8C8040379DFF8C40482785E
:1021E000DFF8BC040178DFF8BC0400F0EFFB092144
:1021F00000A800F012F8DFF8B00400F03CF9E0E7C6
:102200000021DFF8A80400F045FC0021DFF8A0045D
:1022100000F0DCFC002004B010BD38B504000D0057
:102220002800451E00280ED08021DFF8840400F02D
:102230000AFD0028F8D0217889B2DFF8740400F094
:10224000D3FC641CECE731BDFEE780B5DFF8640425
:1022500040210170DFF85C0400214170DFF8540474
:1022600007218170DFF84C040021C170DFF84404BD
:1022700000210171DFF83C0400F052FA1E2000F04A
:10228000FAF8DFF8340420210170DFF82C04012172
:102290004170DFF824040C218170DFF81C0400F089
:1022A00058FA01BD10B588B004000121102000F0DB
:1022B000AFFD0121022000F08DFDC0200190022021
:1022C0008DF8080002208DF8090000208DF80A0022
:1022D00000208DF80B0001A9DFF8E00300F0DAFD23
:1022E00007220621DFF8D40300F02DFE0722072184
:1022F000DFF8C80300F027FE03940020ADF81000BB
:102300000020ADF812000020ADF814000020ADF858
:1023100018000C20ADF8160003A9DFF8940300F0B4
:10232000D7FB012240F22551DFF8840300F060FC66
:1023300025208DF8000000208DF8010000208DF888
:10234000020001208DF8030000A800F029FE012101
:10235000DFF85C0300F03AFC08B010BD80B540F235
:102360002551DFF84C0300F07EFC00281CD0DFF87C
:1023700050030088C0B26E2812D0DFF848130978E5
:1023800014290DD2DFF83C130978DFF83C23885478
:10239000DFF830130978491CDFF82823117003E0B7
:1023A000DFF8201300220A7001BD00B583B00121BF
:1023B000022000F01EFD0121062000F00BFDC020D0
:1023C000009002208DF8040003208DF80500002005
:1023D0008DF8060001208DF8070000A9BB4800F029
:1023E00059FD0320009000A9B44800F053FD0222DB
:1023F0000621B64800F0A7FD02220721B34800F0ED
:10240000A2FD02220021AD4800F09DFD0222012123
:10241000AA4800F098FD07BD80B2012806D1AC4A59
:1024200089B21160AB4A89B2116019E080B202280A
:1024300006D1A94A89B21160A84A89B211600FE099
:1024400080B2032806D1A64A89B21160A54A89B292
:10245000116005E0A44A89B21160A44A89B21160F2
:102460007047A3480068002804D0A1480068401EB7
:102470009F490860704701B40098411E00910028F0
:10248000FAD101B0704700B583B00121102000F0EF
:10249000A1FC0121012000F0BBFC4FF4D4400090CE
:1024A00002208DF8040003208DF8050000208DF82F
:1024B000060000208DF8070000A98E4800F0EAFC15
:1024C000012209218B4800F03EFD01220B218948A1
:1024D00000F039FD01220D21864800F034FD012273
:1024E0000E21844800F02FFD07BD38B504000025FB
:1024F0008148006840088149B0FBF1F0401E0500AA
:102500007F4805807E48002141807D4844607C48AA
:10251000002101817A48002181727949794800F0CF
:102520007DFD7948702101807748012141807648FE
:1025300004218180744800218160734802218181D7
:1025400071480821C18170484FF4807101826E4842
:10255000002141826C496B4800F0B1FD6A486B492B
:10256000098881606849674800F0E8FD6648684965
:10257000098881606449634800F026FE6248654925
:102580000988816060495F4800F063FE62484FF44B
:102590000061018060484FF4806141805E484FF4E3
:1025A000807181805C480B21C1805B484FF4805171
:1025B000018159484FF40051418157484FF48041FF
:1025C000818155494F4800F0ADFE01214D4800F092
:1025D00068FD01214B4800F0B5FE31BD38B504005F
:1025E00000254548006840084449B0FBF1F0401E12
:1025F000050043484460424805804148002101816C
:102600003F48002141803E49444800F007FD3E48D4
:10261000602101803C48012141803B4800218160CC
:1026200039480021818138493C4800F048FD0821A3
:102630003A4800F051FE34480121418032480021DF
:1026400081603149354800F079FD0821334800F0B8
:102650004CFE2D48012141802B48002181602A49F0
:102660002E4800F0B1FD08212C4800F048FE264815
:10267000012141802448002181602349274800F03E
:10268000E8FD0821254800F043FE0121234800F021
:10269000FAFC0121214800F004FD31BD5C3D000839
:1026A0006C030020683D00088096980000300140CF
:1026B0000010014064030020800300200004024059
:1026C00004100140920300201C0300200008024077
:1026D0003404004034000140380400403800014018
:1026E0003C0400403C0001404004004040000140E8
:1026F0007C030020001002404C010020003FAB0191
:102700005803002000000140340300208C03002007
:102710008E030020900300204803002000040040A6
:1027200010B582B0040000208DF8000000F074F8AD
:10273000607821780843E178084321790843A1783B
:1027400008438DF800000122202100A800F022F8A3
:1027500013BD10B582B0040000208DF800000122E6
:10276000212100A800F035F89DF8000010F0D000FD
:102770008DF800009DF80000217862781143A2785E
:10278000114308438DF800000122212100A800F028
:1027900001F813BD70B504000D001600B6B2022E8C
:1027A00001D355F040050821844800F0CAFB2800F9
:1027B000C0B200F0CAF8B6B2012E05D3207800F0FE
:1027C000C4F8761E641CF6E708217C4800F0B7FBCD
:1027D00070BD70B504000D001600B6B2022E02D313
:1027E00055F0C00501E055F080050821734800F060
:1027F000A8FB2800C0B200F0A8F8B6B2012E06D39C
:10280000002000F0A2F82070761E641CF5E7082175
:102810006A4800F094FB70BD00B587B001214FF409
:10282000805000F0F5FA0121012000F0D3FA0121D7
:10283000102000F0CFFA0121102000F0CBFA012186
:10284000102000F0C7FA052205215D4800F07BFB4F
:10285000052206215A4800F076FB05220721584838
:1028600000F071FB02208DF8040000208DF80600B6
:1028700002208DF8070002208DF80500202000902E
:1028800000A94F4800F006FB8020009000A94C48AA
:1028900000F000FB4020009000A9494800F0FAFA3F
:1028A000484800F0A5F80020ADF808000020ADF879
:1028B0000C000020ADF80E000020ADF810004FF421
:1028C0000070ADF812000820ADF814000020ADF83B
:1028D00016000720ADF818004FF48270ADF80A001A
:1028E00002A9384800F0B0F80121364800F0D2F8CB
:1028F0000820009001208DF8040000208DF80600CB
:1029000002208DF8050000A92C4800F0C3FA082128
:102910002A4800F014FB0120009000208DF80400EC
:1029200000208DF8060002208DF8050000208DF8AB
:10293000070000A9214800F0ADFA0220009000A98C
:102940001E4800F0A7FA07B000BD10B504001E48ED
:102950004FF48051016002211A4800F0ADF80028C0
:102960000AD119480068411E174A11600028F2D1A7
:10297000FFF76AFCC0B21EE0E4B2210089B2114840
:1029800000F098F810484FF48051016001210D4883
:1029900000F092F800280AD10B480068411E0A4A4C
:1029A00011600028F2D1FFF74FFCC0B203E00548E8
:1029B00000F07EF8C0B210BD000000000010024020
:1029C0000000024000300140480100200EB400B574
:1029D00082B003A9009100AB02460121034878446C
:1029E0000A30FDF7D1FB06BC5DF810FB3D1300007B
:1029F00010B50400244884420AD101214FF48050CC
:102A000000F024FA00214FF4805000F01FFA1AE081
:102A10001E4884420AD101214FF4804000F007FA99
:102A200000214FF4804000F002FA0CE01848844284
:102A300009D101214FF4004000F0F9F900214FF4D1
:102A4000004000F0F4F910BD10B4002203881A0011
:102A500012F441520B884C8823438C882343CC8842
:102A600023430C8923434C8923438C892343CC89FA
:102A700023431A430280838B4FF2FF7423408383E6
:102A80000B8A038210BC70470030014000380040C0
:102A9000003C0040C9B2002904D0028852F0400234
:102AA000028004E002884FF6BF731A40028070472C
:102AB00080897047818170470200002013890B4292
:102AC00002D00123180001E000231800C0B27047B3
:102AD0002DE9F04385B004000D005FF000090026E9
:102AE00000275FF00008A8890028208A814639F471
:102AF0004059E88850EA0909A4F81090A089814655
:102B0000314810EA0909A8882989084369890843D6
:102B100050EA0909A4F80C90A08A814639F440795A
:102B2000A88950EA0909A4F8149000A800F0D2F886
:102B30002348844202D02348844202D103980600ED
:102B400001E002980600A089000408D5192000FBC6
:102B500006F029684900B0FBF1F0070007E01920F2
:102B600000FB06F029688900B0FBF1F00700642043
:102B7000B7FBF0F0000181465FEA1910642101FB08
:102B800010708046A08900040AD55FEAC800323080
:102B90006421B0FBF1F010F0070050EA090909E0E8
:102BA0005FEA081032306421B0FBF1F010F00F0042
:102BB00050EA0909A4F8089005B0BDE8F0830000C8
:102BC0000010014000140140F3E9FFFFC9B20029E1
:102BD00004D0828952F40052828104E082894DF649
:102BE000FF731A4082817047CA05D20D82807047F8
:102BF000F0B4002300240025002640F66A1789B2AD
:102C0000B94206000F00FFB27F09FFB23B0089B254
:102C100011F01F073C000127A7403D00012B01D107
:102C20000C3604E0022B01D1103600E01436D2B28B
:102C3000002A03D037682F43376002E03768AF437C
:102C40003760F0BC7047020000204FF4007389B277
:102C5000994213880B4202D00123180001E000239F
:102C60001800C0B2704770B4020000230025002491
:102C7000002040F66A1689B2B1420E00F6B276091B
:102C8000F6B2340089B211F01F063500012616FA9B
:102C900005F5012C02D19689354006E0022C02D1BF
:102CA000168A354001E0968A354089B20E0AB6B2DE
:102CB0003300012616FA03F316883340002D04D0A2
:102CC000002B02D00126300001E000263000C0B207
:102CD00070BC7047F0B400210022002302240025BC
:102CE0000226DFF888713F6817F00C0739000F00E3
:102CF000002F04D0042F06D0082F08D03CE0DFF8C6
:102D0000747107603BE0DFF87071076037E0DFF84F
:102D100060713F68C7F380573D00DFF854713F682A
:102D200017F03F073E00002D0DD0DFF84C71B7FBC8
:102D3000F6F7DFF83CC1DCF800C0CCF3881C0CFBD4
:102D400007F73B000CE0DFF82C71B7FBF6F7DFF874
:102D500020C1DCF800C0CCF3881C0CFB07F73B005B
:102D6000DFF80C713F68C7F301477F1C7F003C0010
:102D7000B3FBF4F7076002E0DFF8F8700760DFF8F4
:102D8000EC703F6817F0F00739000909DFF8EC70C4
:102D9000CF5D3A000768D7404760DFF8D0703F68E2
:102DA00017F4E0573900890ADFF8D070CF5D3A0098
:102DB0004768D74087602D4F3F6817F46047390058
:102DC000490BDFF8B870CF5D3A004768D740C7605D
:102DD000F0BC7047C9B2002905D0294A12680243E5
:102DE000274B1A6004E0264A12688243244B1A607B
:102DF0007047C9B2002905D0224A12680243214B0C
:102E00001A6004E01F4A126882431E4B1A60704722
:102E1000C9B2002905D01C4A126802431A4B1A6035
:102E200004E0194A12688243174B1A607047C9B20E
:102E3000002905D0154A12680243144B1A6004E0B9
:102E4000124A12688243114B1A607047C9B20029B6
:102E500005D00F4A126802430D4B1A6004E00C4A79
:102E6000126882430A4B1A6070470000083802401B
:102E7000043802400024F40000127A0030010020DF
:102E80003038024040380240443802402038024086
:102E900024380240F0B400220023002400252A0038
:102EA000102A4AD2012595402B000D681D402C00A8
:102EB0009C4240D1056803261700FFB27F00BE4048
:102EC000B543056005680E791700FFB27F00BE406C
:102ED000354305600D79012D02D00D79022D1AD1EF
:102EE000856803261700FFB27F00BE40B5438560AA
:102EF00085684E791700FFB27F00BE40354385607C
:102F0000456801269640B543456045688E799640F0
:102F1000B6B235434560C56803261700FFB27F008F
:102F2000BE40B543C560C568CE791700FFB27F00CB
:102F3000BE403543C560521CB2E7F0BC7047018308
:102F4000704741837047F0B400230024D2B211F0DF
:102F50000705EDB2AD0012FA05F52B0089B2CD10D0
:102F600010EB850589B2CE1010EB8606366A0F2766
:102F700011F0070C5FFA8CFC5FEA8C0C17FA0CF767
:102F8000BE432E6289B2CD1010EB85052D6A1D431C
:102F90002C0089B2CD1010EB85052C62F0BC704777
:102FA000F0B4002300210F22C478002C21D0174C4C
:102FB000246814F4E064D4F5E064240A2300D3F117
:102FC00004042100D2B21A4144788C402300847852
:102FD000144023431B0104780D4D6355047864119C
:102FE0000C4D0126077817F01F07BE4045F82460F6
:102FF00009E004786411084D0126077817F01F07CF
:10300000BE4045F82460F0BC704700000CED00E0C5
:1030100000E400E000E100E080E100E0002203883D
:103020001A00A64B98420ED0AA4B98420BD0B0F192
:10303000804F08D0A24B984205D0A24B984202D0B4
:10304000A14B984204D14FF68F731A404B881A4314
:103050009E4B984207D09E4B984204D04FF6FF43B8
:103060001A400B891A4302804B68C3620B880385A0
:10307000924B984202D0974B984201D18B7A0386AB
:10308000012383827047C9B2002904D0028852F01C
:103090008002028004E002884FF67F731A400280AB
:1030A0007047C9B2002904D0028852F001020280A0
:1030B00004E002884FF6FE731A400280704770B435
:1030C000002300240022058C4FF6FE76354005844F
:1030D000058C2C0085882A00058B2B004FF68F75F8
:1030E0002B404FF6FC752B400D882B434FF6FD759A
:1030F0002C408D892C434D882C43704DA84202D022
:10310000744DA84213D14FF6F7752C40CD892C434E
:103110004FF6FB752C408D882C434FF6FF652A40F7
:103120004FF6FF552A400D8A2A434D8A2A43828052
:1031300003838D684563048470BC704770B40023BA
:1031400000240022058C4FF6EF7635400584058C6F
:103150002C0085882A00058B2B0048F6FF752B4034
:103160004FF6FF452B400D8853EA05234FF6DF75D8
:103170002C408D8954EA05144D8854EA05144F4DAE
:10318000A84202D0534DA84217D14FF67F752C406C
:10319000CD8954EA05144FF6BF752C408D8854EA4A
:1031A00005144FF6FF352A404FF2FF752A400D8A6D
:1031B00052EA85024D8A52EA8502828003838D6835
:1031C0008563048470BC704770B40023002400221F
:1031D000058C4FF6FF6635400584058C2C008588EC
:1031E0002A00858B2B004FF68F752B404FF6FC7510
:1031F0002B400D882B434FF6FF552C408D8954EA08
:1032000005244D8854EA05242C4DA84202D0314DA6
:10321000A84217D14FF2FF752C40CD8954EA0524FE
:103220004FF6FF352C408D8854EA05244EF6FF7585
:103230002A404DF6FF752A400D8A52EA05124D8A42
:1032400052EA0512828083838D68C563048470BC52
:10325000704770B4002300240022058C4EF6FF76E0
:1032600035400584058C2C0085882A00858B2B0031
:1032700048F6FF752B404FF6FF452B400D8853EA6B
:1032800005234DF6FF752C408D8954EA05344D8891
:1032900054EA0534094DA84202D00E4DA84205D18A
:1032A0004BF6FF752A400D8A52EA8512828083838D
:1032B0008D680564048470BC704700000000014004
:1032C0000004004000080040000C004000100040D6
:1032D00000140040000401400022038B1A004FF646
:1032E000F7731A400A43028370470022038B1A00C7
:1032F0004FF2FF731A4052EA012202837047002204
:10330000838B1A004FF6F7731A400A438283704783
:103310000022838B1A004FF2FF731A4052EA0122F7
:10332000828370470A884B881A438B881A43CB885C
:103330001A430B891A434B891A438B891A43A0F805
:1033400044207047C9B2002906D0B0F8442052F496
:103350000042A0F8442005E0B0F844205204520C8A
:10336000A0F844207047000080B54E48006850F037
:1033700001004C4908604C48002101604948006840
:103380004A4908404749086049484A490160454858
:10339000006830F4802043490860474800210160FC
:1033A00000F005F845485FF00061016001BD82B0A2
:1033B00000200190002000903A48006850F48030CE
:1033C000384908603748006810F4003000900198D0
:1033D000401C01900098002803D10198B0F5A06F1F
:1033E000F0D130480068800302D50120009001E050
:1033F00000200090009801283ED13148006850F02C
:1034000080502F4908602F48006850F480402D49B3
:10341000086025482449096801602348006850F481
:103420000040214908602048006850F4A0501E491F
:1034300008601F48244901601A48006850F08070F5
:1034400018490860174800688001FBD51F4840F202
:103450000561016014480068800880001249086016
:103460001148006850F002000F4908600E480068DB
:1034700010F00C000828F9D10B48006830F4000067
:10348000094908601248134901600648006850F075
:10349000806004490860034800680001FBD502B061
:1034A000704700000038024008380240FFFFF6FE77
:1034B00004380240103000240C38024008ED00E0CF
:1034C000403802400070004008544007003C024071
:1034D000843802400030005010B40021514A134695
:1034E00053F8084B844206D1002342F8313002EBF6
:1034F000C1014B6025E0491C53F8084B84421EBFB4
:10350000491C53F8084B84421EBF491C53F8084B12
:103510008442E9D0491C53F8084B84421EBF491C21
:1035200053F8084B8442DFD0491C53F8084B8442BF
:103530001EBF491C53F8084B8442D5D0491C1029A2
:10354000CED310BC704770B40024364B1D4655F8DE
:10355000086B8E4208D1014603EBC403012A04BF65
:103560005A685118596025E0641C55F8086B8E4262
:103570001EBF641C55F8086B8E421EBF641C55F8B4
:10358000086B8E42E7D0641C55F8086B8E421EBF54
:10359000641C55F8086B8E42DDD0641C55F8086B2E
:1035A0008E421EBF641C55F8086B8E42D3D0641C3B
:1035B000102CCCD370BC704710B40021194A1346AC
:1035C00053F8084B844203D102EBC100406826E067
:1035D000491C53F8084B84421EBF491C53F8084B42
:1035E00084421EBF491C53F8084B8442ECD0491C4E
:1035F00053F8084B84421EBF491C53F8084B8442C1
:10360000E2D0491C53F8084B84421EBF491C53F8B2
:10361000084B8442D8D0491C1029D1D3002010BCBB
:1036200070470000500100202DE9F04104460D468E
:1036300016461F4620780321084258D0204600F045
:1036400099F8002853D115B1D5E900018619012F49
:103650003DD12088C00416D504F13D02A169204661
:1036600000F0A6F88046626A02B92269E168204645
:1036700000F09EF8A6EB08010E1AA26AE168204647
:1036800000F096F8361A46BB20884FF440510842A5
:103690000ED06068E0602061A06260616068E062F6
:1036A00004F23D00A06104F22400E06100206062A9
:1036B0002DB104F13000D5E90223C0E900232088B0
:1036C0004CF6FF61084020800020BDE8F081022F09
:1036D00003D04FB916F1010F09D03A46314694F99B
:1036E000030000F06BF8064616F1010FCCD100F094
:1036F0008BF8232101604FF0FF30E6E738B5044630
:10370000FEF706FC208880042FD5656809E04A1B77
:10371000294600F07FF810F1010F18BF00280CD0E7
:10372000451994F90300E1688D42F0D3002200218D
:1037300000F070F810F1010F0ED16068E060606178
:10374000E06220884FF40071084320802046FEF795
:1037500025FC4FF0FF3032BD6568E5606561E562CC
:1037600020884DF6FF71084020802046FEF716FCA9
:10377000002032BDF8B5B0B90220FEF71AFC0024D3
:103780000A4D08264FF0FF37286820B1FFF7B6FF33
:10379000002848BF3C462D1D761EF5D10220FEF7BD
:1037A0004CFC2046F2BDBDE8F240A7E71001002026
:1037B000914201D2501A70470020704730B583B053
:1037C00004000D00012A02D1FFF7F6FE07E0022AED
:1037D00007D100940020019069460C20ABBE2D1843
:1037E00001E0002A0CD10094019569460A20ABBE85
:1037F000002805D1002221002800FFF7A4FE01E0E7
:103800000020C04303B030BD0148FEF7A1BC00005A
:103810008803002080B5002802D400F003F802BD20
:10382000002002BD80B5002901D1002002BD012881
:1038300001D0022802D100F004F802BD00F011F816
:1038400002BD30B583B00C001500012000F032F845
:1038500000900194029569460520ABBE281A03B07A
:1038600030BD10B584B01300009001910293012285
:10387000040069460520ABBE181A2100FFF763FE5D
:1038800004B010BD80B500F033F802000023DB4324
:103890001068984204D011000220ABBE00201060D6
:1038A0005068984204D0111D0220ABBE0020506029
:1038B00001BD000010B584B0040000F019F8A100AB
:1038C000421810680021C94388420DD107A000901A
:1038D000002C01D1002000E0042001900320029080
:1038E00069460120ABBE106004B010BD3A7474008C
:1038F000004870474001002010B50446E068616947
:10390000884250D3218849F202020A40022A08D094
:1039100008044CBF4FF400704FF4844008432080EB
:1039200043E001F4C041B1F5C04F06D1A16888421F
:1039300003D32046FFF71EFF80BB20884FF4406171
:10394000084202BF606804F13D01884217D14FF47C
:103950000070FDF7E9FC606030B904F23D00606082
:10396000E060401CA0600AE0218841F04001218015
:10397000E06000F20021A160A0626068E06260681F
:103980002061A06860612078400708D502220021EC
:10399000204600F00DF810F1010F00D105E020885D
:1039A00040F4C0402080002010BD4FF0FF3010BD1B
:1039B00070B504460D461646FEF7AAFA33462A4667
:1039C00000212046FFF730FE05462046FEF7E6FAC6
:1039D000284670BD2DE9F04100F10801026801EBB5
:1039E000820243685808400002EB80000024002552
:1039F000264601270EE0F44518BFAC4208D014F863
:103A0000018B0CF8018B761E36B2002EF3D5012700
:103A1000F44513D1824201D1BDE8F08152F804CBC4
:103A20005FEAC37E48BFCC4452F804EBE644EFE7BC
:103A30000C686418091D51F8045B2D19AC42F7D0CD
:103A40005FB114F9016B002705E00C686418091DCB
:103A500051F8045B2D19AC42F7D0002ED4D514F8E0
:103A6000018BF445D4D00CF8018B761C36B2002EB5
:103A7000F7D4CCE738B5044620780321084202D0B9
:103A8000605600280BD50220FEF793FA204600F07E
:103A900033F80220FEF7D1FA4FF0FF3529E0204637
:103AA000FFF768FE05460220FEF783FA20784006FD
:103AB00044BF6068FDF7E0FC0020606094F90300FB
:103AC000022804D900F058F808B14FF0FF35A06B78
:103AD00048B100F05EF808B14FF0FF35A06BFDF77C
:103AE000CBFC0020A063204600F006F80220FEF781
:103AF000A4FA284632BD00000178090627D5002126
:103B00001C4A1368834204D1002342F82130FDF798
:103B1000B3BC0121536883421EBF022193688342D4
:103B2000F2D00321D36883421EBF0421136983426C
:103B3000EAD00521536983421EBF0621936983425F
:103B40001EBF0721D3698342DED0FDF795BC00215B
:103B500001804FF0FF31C17000F23D014160C16052
:103B6000016181624161C162816100F22401C16130
:103B7000704700001001002010B582B002000092D2
:103B800069460220ABBE04001000FFF7A5FC200030
:103B900016BD00B583B00090FDF778FB0190694633
:103BA0000E20ABBE03B000BD10B5144C206808B1A8
:103BB000FFF760FF606808B1FFF75CFFA06808B11D
:103BC000FFF758FFE06808B1FFF754FF206908B11C
:103BD000FFF750FF606908B1FFF74CFFA06908B11B
:103BE000FFF748FFE06908B1FFF744FF002200211A
:103BF0004FF0FF30BDE81040FFF70CBE1001002071
:103C000038B505460C462046FEF782F9E068616942
:103C1000884204D32046FFF76FFE00280FD4E168E6
:103C2000481CE0600D702088010504D440050CD5C7
:103C3000EDB20A2D09D12046FFF79CFD28B12046A0
:103C4000FEF7ACF94FF0FF3032BD2046FEF7A6F983
:103C5000E8B232BD10B5084979441C31074C7C44A8
:103C60001A34A14206D0081D0A6851188847014637
:103C7000A142F8D110BD00BF0800000030000000D4
:103C8000D3D5FFFF440200005001002000000000D7
:103C900045FDFFFF0200000002000000500200008E
:103CA0009A00000000000020500100004EF68851EC
:103CB000CEF20001086840F4700008604FF0007018
:103CC000E1EE100A70477047FEE7FEE7FEE7FEE709
:103CD00070477047704780B5FEF7C3FB01BD000019
:103CE00000F009F8002801D0FFF7B4FF0020FEF72C
:103CF00039FA00F002F80120704700F001B8000026
:103D00000746FFF751FFFEF7C9F8384600F002F802
:103D1000FBE7000080B5FFF7B5FD024A110018204F
:103D2000ABBEFBE72600020038B504460D46284628
:103D300000F006F8A84218BF0024204632BD00005B
:103D40000149FFF75DBF00BF900000200148804798
:103D50000148004769330008753D00087878797993
:103D60007A7A0D0A0000000025642C202564202C9E
:103D700025640A00C046C046FFF798FFFFF7B0FF72
:103D8000FFF7A1BFFFF7A0BFFFF79FBFFFF79EBFE1
:103D9000FFF79DBFFFF79CBFFFF79BBFFFF79ABFE1
:103DA000FFF799BFFFF7FEBFFFF7FEBFFFF7FEBFAC
:103DB000FFF7FEBFFFF7FEBFFFF7FEBFFFF7FEBF37
:103DC000FFF7FEBFFFF7FEBFFFF7FEBFFFF7FEBF27
:103DD000FFF7FEBFFFF7FEBFFFF7FEBFFFF7FEBF17
:103DE000FFF7FEBFFFF7FEBFFFF7FEBFFFF7FEBF07
:103DF000FFF7FEBFFFF7FEBFFFF7FEBFFFF7FEBFF7
:103E0000FFF7FEBFFFF7FEBFFFF7FEBFFFF7FEBFE6
:103E1000FFF7FEBFFFF7FEBFFFF7FEBFFFF7FEBFD6
:103E2000FFF7FEBFFFF7FEBFFFF7FEBFFFF7FEBFC6
:103E3000FFF7FEBFFFF7FEBFFEF790BAFFF7FEBF2A
:103E4000FFF7FEBFFFF7FEBFFFF7FEBFFFF7FEBFA6
:103E5000FFF7FEBFFFF7FEBFFFF7FEBFFFF7FEBF96
:103E6000FFF7FEBFFFF7FEBFFFF7FEBFFFF7FEBF86
:103E7000FFF7FEBFFFF7FEBFFFF7FEBFFFF7FEBF76
:103E8000FFF7FEBFFFF7FEBFFFF7FEBFFFF7FEBF66
:103E9000FFF7FEBFFFF7FEBFFFF7FEBFFFF7FEBF56
:103EA000FFF7FEBFFFF7FEBFFFF7FEBFFFF7FEBF46
:103EB000FFF7FEBFFFF7FEBFFFF7FEBFFFF7FEBF36
:103EC000FFF7FEBFFFF7FEBFFFF7FEBFFFF7FEBF26
:103ED000FFF7FEBFFFF7FEBFFFF7FEBFFFF7FEBF16
:103EE000FFF7FEBFFFF7FEBFFFF7FEBFE400F8FFDE
:103EF000DC00FAFF210000010400008D0000208E8C
:103F00000000208D0000208D0000208D0000208DFD
:103F100000002074000020E0001F02040101940250
:103F20000020E40200209402002094020020940269
:103F30000020CD000020B4000020E0001F02080295
:103F400002440200209402002044020020440200A7
:103F500020440200200D010020F4000020E0000BAE
:103F60005000002090000020D0000020E8000B014D
:103F70000203040102030406070809F8FF01001008
:083F8000FD00027A030A0000B3
:0400000508003D753D
:00000001FF
