:020000040800F2
:10000000680400202D140008D3130008D51300083D
:10001000D7130008D9130008DB1300080000000004
:10002000000000000000000000000000DD130008D8
:10003000DF13000800000000E1130008E3130008CC
:10004000791400087D140008811400088514000844
:10005000891400088D1400089114000895140008F4
:10006000991400089D140008A1140008A5140008A4
:10007000A9140008AD140008B1140008B514000854
:10008000B9140008BD140008C1140008C514000804
:10009000C9140008CD140008D1140008D5140008B4
:1000A000D9140008DD140008E1140008E514000864
:1000B000E9140008ED140008F1140008F514000814
:1000C000F9140008FD1400080115000805150008C2
:1000D000091500082B030008111500081515000864
:1000E000191500081D150008211500082515000820
:1000F000291500082D1500083115000835150008D0
:10010000391500083D15000841150008451500087F
:10011000491500084D15000851150008551500082F
:10012000591500085D1500086115000865150008DF
:10013000691500086D15000871150008751500088F
:10014000791500087D15000881150008851500083F
:10015000891500088D1500089115000895150008EF
:10016000991500089D150008A1150008A51500089F
:10017000A9150008AD150008B1150008B51500084F
:10018000B9150008BD15000870B584B000A8DFF8E7
:100190009C13092200F000FA012400F0E5F84FF466
:1001A000E14000F06CF800F047F800F0F7F84FF489
:1001B0007A7000F036F900F032F86421022000F085
:1001C00090F94FF4FA71022000F08BF940F2EE2121
:1001D000022000F086F94FF47A71022000F081F9D4
:1001E0004FF4FA71042000F07CF9002501267519FE
:1001F0004FF44870854202D15FF0FF300600C82DF1
:1002000001D101200600290089B2022000F069F91D
:1002100000F00AF8DFF8180300F0B6F9E7E7C6487F
:100220004FF4004101807047C448006890F40040DA
:10023000C24908607047FEE780B5C148402101709F
:10024000BF4800214170BE4807218170BC48002191
:10025000C170BB4800210171B94800F0DFF91E20D0
:1002600000F092F9B74820210170B6480121417091
:10027000B4480C218170B34800F0E9F901BD10B514
:1002800088B004000121102000F0BCFB01210220F5
:1002900000F09AFBC020019002208DF80800022097
:1002A0008DF8090000208DF80A0000208DF80B0061
:1002B00001A9A54800F0E8FB07220621A24800F0AA
:1002C0003CFC07220721A04800F037FC03940020E3
:1002D000ADF810000020ADF812000020ADF81400B9
:1002E0000020ADF818000C20ADF8160003A99148C5
:1002F00000F050FC012240F225518E4800F0D6FC5F
:1003000025208DF8000000208DF8010000208DF8D8
:10031000020001208DF8030000A800F029FD012152
:10032000844800F0B5FC08B010BD80B540F22551FE
:10033000804800F0E6FC002815D084480088C0B250
:100340006E280DD082490978142909D2804909788C
:10035000804A88547E490978491C7D4A117002E020
:100360007B4900220A7001BD00B583B00121012044
:1003700000F02AFB4FF40040009001208DF80400AB
:1003800000208DF8060001208DF8070002208DF86E
:10039000050000A9704800F077FB07BD00B583B0E9
:1003A0000121022000F01FFB0121062000F00CFBC0
:1003B000C020009002208DF8040003208DF8050075
:1003C00000208DF8060001208DF8070000A9634881
:1003D00000F05AFB0320009002208DF80400032057
:1003E0008DF8050000208DF8060001208DF807002B
:1003F00000A9554800F048FB02220621574800F0AA
:100400009CFB02220721554800F097FB02220021A5
:100410004D4800F092FB022201214B4800F08DFB79
:1004200007BD38B5040000254D48006840084D4917
:10043000B0FBF1F0401E05004B4844604A4805807F
:1004400049480021018148480021418046494748E8
:1004500000F0CCFC464860210180454801214180E4
:1004600043480021816042480021818140493F4842
:1004700000F00DFD08213D4800F016FE3C4801212A
:1004800041803B48002181603949384800F03EFDF9
:100490000821364800F011FE3548012141803448DA
:1004A000002181603249314800F076FD08212F4853
:1004B00000F00DFE2E48012141802D480021816071
:1004C0002B492A4800F0ADFD0821284800F008FE1D
:1004D0000121264800F0BFFC0121244800F0C9FC9E
:1004E00031BD80B2012803D1224A89B2116010E0E7
:1004F00080B2022803D1204A89B2116009E080B29B
:10050000032803D11D4A89B2116002E01C4A89B256
:10051000116070471B480068002804D01948006823
:10052000401E184908607047000000003C14000895
:10053000A086010000100140180002401400024093
:10054000500000205C000020000402400410014024
:100550006000002018000020000002400008024057
:1005600014000020003FAB014400002000040040C4
:100570003000002034040040380400403C040040B7
:10058000400400405800002001B40098411E009132
:100590000028FAD101B07047103A07D330B4B1E85F
:1005A0003810103AA0E83810F9D230BC530724BFF5
:1005B000B1E80810A0E8081044BF51F8043B40F827
:1005C000043BD20724BF31F8022B20F8022B44BF92
:1005D0000B7803707047083A07D3B1E80810083A5F
:1005E00040F8043B40F804CBF7D25307E4E710B4DB
:1005F00050F8041B81B102681218001D50F8043B2A
:10060000DC0744BFA9F10104E31852F8044B43F896
:10061000044B091FF9D1EBE710BC704710B582B04D
:10062000040000208DF8000000F074F86078217854
:100630000843E178084321790843A17808438DF8FD
:1006400000000122202100A800F022F813BD10B5FF
:1006500082B0040000208DF800000122212100A8B2
:1006600000F035F89DF8000010F0D0008DF8000083
:100670009DF80000217862781143A2781143084365
:100680008DF800000122212100A800F001F813BD1F
:1006900070B504000D001600B6B2022E01D355F05D
:1006A00040050821844800F046FA2800C0B200F056
:1006B000CAF8B6B2012E05D3207800F0C4F8761E31
:1006C000641CF6E708217C4800F033FA70BD70B571
:1006D00004000D001600B6B2022E02D355F0C0057C
:1006E00001E055F080050821734800F024FA280045
:1006F000C0B200F0A8F8B6B2012E06D3002000F078
:10070000A2F82070761E641CF5E708216A4800F004
:1007100010FA70BD00B587B001214FF4805000F091
:1007200071F90121012000F04FF90121102000F0A2
:100730004BF90121102000F047F90121102000F0B1
:1007400043F9052205215D4800F0F7F9052206214D
:100750005A4800F0F2F905220721584800F0EDF957
:1007600002208DF8040000208DF8060002208DF88C
:10077000070002208DF805002020009000A94F48B6
:1007800000F082F98020009000A94C4800F07CF92C
:100790004020009000A9494800F076F9484800F050
:1007A000A9FC0020ADF808000020ADF80C000020E6
:1007B000ADF80E000020ADF810004FF40070ADF859
:1007C00012000820ADF814000020ADF81600072034
:1007D000ADF818004FF48270ADF80A0002A938484D
:1007E00000F0B4FC0121364800F0D6FC082000904F
:1007F00001208DF8040000208DF8060002208DF8FD
:10080000050000A92C4800F03FF908212A4800F013
:1008100090F90120009000208DF8040000208DF850
:10082000060002208DF8050000208DF8070000A9C1
:10083000214800F029F90220009000A91E4800F08C
:1008400023F907B000BD10B504001E484FF48051D5
:10085000016002211A4800F0B1FC00280AD11948B1
:100860000068411E174A11600028F2D1FFF7E3FC2F
:10087000C0B21EE0E4B2210089B2114800F09CFC35
:1008800010484FF48051016001210D4800F096FCA2
:1008900000280AD10B480068411E0A4A116000284E
:1008A000F2D1FFF7C8FCC0B203E0054800F082FCBB
:1008B000C0B210BD00000000001002400000024065
:1008C0000030014010000020F0B40021002200237D
:1008D000022400250226DFF888713F6817F00C0714
:1008E00039000F00002F04D0042F06D0082F08D0A5
:1008F0003CE0DFF8747107603BE0DFF8707107607F
:1009000037E0DFF860713F68C7F380573D00DFF8DC
:1009100054713F6817F03F073E00002D0DD0DFF8FF
:100920004C71B7FBF6F7DFF83CC1DCF800C0CCF344
:10093000881C0CFB07F73B000CE0DFF82C71B7FBC1
:10094000F6F7DFF820C1DCF800C0CCF3881C0CFB04
:1009500007F73B00DFF80C713F68C7F301477F1CC6
:100960007F003C00B3FBF4F7076002E0DFF8F870AB
:100970000760DFF8EC703F6817F0F00739000909ED
:10098000DFF8EC70CF5D3A000768D7404760DFF8CA
:10099000D0703F6817F4E0573900890ADFF8D0704B
:1009A000CF5D3A004768D74087602D4F3F6817F406
:1009B00060473900490BDFF8B870CF5D3A004768EF
:1009C000D740C760F0BC7047C9B2002905D0294A9A
:1009D00012680243274B1A6004E0264A12688243D9
:1009E000244B1A607047C9B2002905D0224A126808
:1009F0000243214B1A6004E01F4A126882431E4BD7
:100A00001A607047C9B2002905D01C4A1268024317
:100A10001A4B1A6004E0194A12688243174B1A6095
:100A20007047C9B2002905D0154A12680243144B19
:100A30001A6004E0124A12688243114B1A60704730
:100A4000C9B2002905D00F4A126802430D4B1A6043
:100A500004E00C4A126882430A4B1A607047000097
:100A600008380240043802400024F40000127A00E2
:100A70000000002030380240403802404438024034
:100A80002038024024380240F0B400220023002421
:100A900000252A00102A4AD2012595402B000D6816
:100AA0001D402C009C4240D1056803261700FFB270
:100AB0007F00BE40B543056005680E791700FFB2A0
:100AC0007F00BE40354305600D79012D02D00D79C0
:100AD000022D1AD1856803261700FFB27F00BE40A1
:100AE000B543856085684E791700FFB27F00BE4030
:100AF00035438560456801269640B54345604568A5
:100B00008E799640B6B235434560C5680326170016
:100B1000FFB27F00BE40B543C560C568CE791700FF
:100B2000FFB27F00BE403543C560521CB2E7F0BC47
:100B300070470183704741837047F0B4002300245D
:100B4000D2B211F00705EDB2AD0012FA05F52B0097
:100B500089B2CD1010EB850589B2CE1010EB860658
:100B6000366A0F2711F0070C5FFA8CFC5FEA8C0CD9
:100B700017FA0CF7BE432E6289B2CD1010EB850533
:100B80002D6A1D432C0089B2CD1010EB85052C6217
:100B9000F0BC70472DE9F04385B004000D005FF014
:100BA0000009002600275FF00008A8890028208A95
:100BB000814639F44059E88850EA0909A4F81090B0
:100BC000A0898146314810EA0909A8882989084383
:100BD0006989084350EA0909A4F80C90A08A814663
:100BE00039F44079A88950EA0909A4F8149000A8BA
:100BF000FFF76AFE2348844202D02348844202D190
:100C00000398060001E002980600A089000408D5B8
:100C1000192000FB06F029684900B0FBF1F007003D
:100C200007E0192000FB06F029688900B0FBF1F00D
:100C300007006420B7FBF0F0000181465FEA19105D
:100C4000642101FB10708046A08900040AD55FEA88
:100C5000C80032306421B0FBF1F010F0070050EA18
:100C6000090909E05FEA081032306421B0FBF1F0B5
:100C700010F00F0050EA0909A4F8089005B0BDE88B
:100C8000F08300000010014000140140F3E9FFFF71
:100C9000C9B2002904D0828952F40052828104E052
:100CA00082894DF6FF731A4082817047F0B40023A9
:100CB00000240025002640F66A1789B2B9420600D2
:100CC0000F00FFB27F09FFB23B0089B211F01F078E
:100CD0003C000127A7403D00012B01D10C3604E068
:100CE000022B01D1103600E01436D2B2002A03D014
:100CF00037682F43376002E03768AF433760F0BC96
:100D0000704770B40200002300250024002040F644
:100D10006A1689B2B1420E00F6B27609F6B2340014
:100D200089B211F01F063500012616FA05F5012CCF
:100D300002D19689354006E0022C02D1168A354050
:100D400001E0968A354089B20E0AB6B23300012618
:100D500016FA03F316883340002D04D0002B02D07E
:100D60000126300001E000263000C0B270BC7047A0
:100D7000F0B4002300210F22C478002C21D0174C9E
:100D8000246814F4E064D4F5E064240A2300D3F169
:100D900004042100D2B21A4144788C4023008478A4
:100DA000144023431B0104780D4D635504786411EE
:100DB0000C4D0126077817F01F07BE4045F8246048
:100DC00009E004786411084D0126077817F01F0721
:100DD000BE4045F82460F0BC704700000CED00E018
:100DE00000E400E000E100E080E100E00022038890
:100DF0001A00A64B98420ED0AA4B98420BD0B0F1E5
:100E0000804F08D0A24B984205D0A24B984202D006
:100E1000A14B984204D14FF68F731A404B881A4366
:100E20009E4B984207D09E4B984204D04FF6FF430A
:100E30001A400B891A4302804B68C3620B880385F2
:100E4000924B984202D0974B984201D18B7A0386FD
:100E5000012383827047C9B2002904D0028852F06E
:100E60008002028004E002884FF67F731A400280FD
:100E70007047C9B2002904D0028852F001020280F2
:100E800004E002884FF6FE731A400280704770B487
:100E9000002300240022058C4FF6FE7635400584A1
:100EA000058C2C0085882A00058B2B004FF68F754A
:100EB0002B404FF6FC752B400D882B434FF6FD75EC
:100EC0002C408D892C434D882C43704DA84202D074
:100ED000744DA84213D14FF6F7752C40CD892C43A1
:100EE0004FF6FB752C408D882C434FF6FF652A404A
:100EF0004FF6FF552A400D8A2A434D8A2A438280A5
:100F000003838D684563048470BC704770B400230C
:100F100000240022058C4FF6EF7635400584058CC1
:100F20002C0085882A00058B2B0048F6FF752B4086
:100F30004FF6FF452B400D8853EA05234FF6DF752A
:100F40002C408D8954EA05144D8854EA05144F4D00
:100F5000A84202D0534DA84217D14FF67F752C40BE
:100F6000CD8954EA05144FF6BF752C408D8854EA9C
:100F700005144FF6FF352A404FF2FF752A400D8ABF
:100F800052EA85024D8A52EA8502828003838D6887
:100F90008563048470BC704770B400230024002271
:100FA000058C4FF6FF6635400584058C2C0085883E
:100FB0002A00858B2B004FF68F752B404FF6FC7562
:100FC0002B400D882B434FF6FF552C408D8954EA5A
:100FD00005244D8854EA05242C4DA84202D0314DF9
:100FE000A84217D14FF2FF752C40CD8954EA052451
:100FF0004FF6FF352C408D8854EA05244EF6FF75D8
:101000002A404DF6FF752A400D8A52EA05124D8A94
:1010100052EA0512828083838D68C563048470BCA4
:10102000704770B4002300240022058C4EF6FF7632
:1010300035400584058C2C0085882A00858B2B0083
:1010400048F6FF752B404FF6FF452B400D8853EABD
:1010500005234DF6FF752C408D8954EA05344D88E3
:1010600054EA0534094DA84202D00E4DA84205D1DC
:101070004BF6FF752A400D8A52EA851282808383DF
:101080008D680564048470BC704700000000014056
:101090000004004000080040000C00400010004028
:1010A00000140040000401400022038B1A004FF698
:1010B000F7731A400A43028370470022038B1A0019
:1010C0004FF2FF731A4052EA012202837047002256
:1010D000838B1A004FF6F7731A400A4382837047D6
:1010E0000022838B1A004FF2FF731A4052EA01224A
:1010F0008283704710B50400244884420AD101213C
:101100004FF48050FFF79CFC00214FF48050FFF714
:1011100097FC1AE01E4884420AD101214FF4804016
:10112000FFF77FFC00214FF48040FFF77AFC0CE0D2
:101130001848844209D101214FF40040FFF771FCA7
:1011400000214FF40040FFF76CFC10BD10B40022EA
:1011500003881A0012F441520B884C8823438C8870
:101160002343CC8823430C8923434C8923438C8914
:101170002343CC8923431A430280838B4FF2FF74AD
:10118000234083830B8A038210BC704700300140E8
:1011900000380040003C0040C9B2002904D0028859
:1011A00052F04002028004E002884FF6BF731A40FA
:1011B000028070478089704781817047020000205B
:1011C00013890B4202D00123180001E0002318000C
:1011D000C0B2704780B54E48006850F001004C49DD
:1011E00008604C4800210160494800684A490840AD
:1011F0004749086049484A4901604548006830F459
:1012000080204349086047480021016000F005F84C
:1012100045485FF00061016001BD82B0002001908F
:10122000002000903A48006850F480303849086047
:101230003748006810F4003000900198401C01907D
:101240000098002803D10198B0F5A06FF0D1304884
:101250000068800302D50120009001E0002000908A
:10126000009801283ED13148006850F080502F4945
:1012700008602F48006850F480402D4908602548D8
:101280002449096801602348006850F4004021495E
:1012900008602048006850F4A0501E4908601F48AC
:1012A000244901601A48006850F0807018490860AD
:1012B000174800688001FBD51F4840F205610160B6
:1012C00014480068800880001249086011480068CE
:1012D00050F002000F4908600E48006810F00C0042
:1012E0000828F9D10B48006830F40000094908606B
:1012F0001248134901600648006850F080600449B4
:101300000860034800680001FBD502B07047000088
:101310000038024008380240FFFFF6FE0438024061
:10132000103000240C38024008ED00E04038024044
:101330000070004008544007003C024084380240DE
:101340000030005010B5084979441C31074C7C44EA
:101350001A34A14206D0081D0A6851188847014670
:10136000A142F8D110BD00BF2C0000004C000000CD
:1013700050F8041B61B150F8042BD30744BFA9F106
:1013800001039A18002342F8043B091FFAD1EFE742
:1013900070470000DDFFFFFF4C0000001800002038
:1013A000000000004BF2FFFF1800000014020000D4
:1013B00000000020000000004EF68851CEF200012F
:1013C000086840F4700008604FF00070E1EE100A09
:1013D00070477047FEE7FEE7FEE7FEE7704770479D
:1013E000704780B5FFF796F801BD000000F009F8DE
:1013F000002801D0FFF7A6FF0020FEF7C5FE00F091
:1014000002F80120704700F001B800000746384696
:1014100000F002F8FBE7000080B5C046C046024A73
:1014200011001820ABBEFBE72600020001488047F0
:1014300001480047D51100084914000878787979E7
:101440007A7A0D0A00000000C046C046FFF7B4FFDC
:10145000FFF7CCFFFFF7BDBFFFF7BCBFFFF7BBBF78
:10146000FFF7BABFFFF7B9BFFFF7B8BFFFF7B7BFC6
:10147000FFF7B6BFFFF7B5BFFFF7FEBFFFF7FEBF31
:10148000FFF7FEBFFFF7FEBFFFF7FEBFFFF7FEBF90
:10149000FFF7FEBFFFF7FEBFFFF7FEBFFFF7FEBF80
:1014A000FFF7FEBFFFF7FEBFFFF7FEBFFFF7FEBF70
:1014B000FFF7FEBFFFF7FEBFFFF7FEBFFFF7FEBF60
:1014C000FFF7FEBFFFF7FEBFFFF7FEBFFFF7FEBF50
:1014D000FFF7FEBFFFF7FEBFFFF7FEBFFFF7FEBF40
:1014E000FFF7FEBFFFF7FEBFFFF7FEBFFFF7FEBF30
:1014F000FFF7FEBFFFF7FEBFFFF7FEBFFFF7FEBF20
:10150000FFF7FEBFFFF7FEBFFFF7FEBFFEF70DBF01
:10151000FFF7FEBFFFF7FEBFFFF7FEBFFFF7FEBFFF
:10152000FFF7FEBFFFF7FEBFFFF7FEBFFFF7FEBFEF
:10153000FFF7FEBFFFF7FEBFFFF7FEBFFFF7FEBFDF
:10154000FFF7FEBFFFF7FEBFFFF7FEBFFFF7FEBFCF
:10155000FFF7FEBFFFF7FEBFFFF7FEBFFFF7FEBFBF
:10156000FFF7FEBFFFF7FEBFFFF7FEBFFFF7FEBFAF
:10157000FFF7FEBFFFF7FEBFFFF7FEBFFFF7FEBF9F
:10158000FFF7FEBFFFF7FEBFFFF7FEBFFFF7FEBF8F
:10159000FFF7FEBFFFF7FEBFFFF7FEBFFFF7FEBF7F
:1015A000FFF7FEBFFFF7FEBFFFF7FEBFFFF7FEBF6F
:1015B000FFF7FEBFFFF7FEBFFFF7FEBFFFF7FEBF5F
:1015C00000000000010203040102030406070809E9
:0815D00000100000007A030A7C
:040000050800144992
:00000001FF
