:020000040800F2
:1000000078040020B91500085F1500086115000884
:10001000631500086515000867150008000000005A
:10002000000000000000000000000000691500084A
:100030006B150008000000006D1500086F15000822
:1000400005160008091600080D160008111600080C
:1000500015160008191600081D16000821160008BC
:1000600025160008291600082D160008311600086C
:1000700035160008391600083D160008411600081C
:1000800045160008491600084D16000851160008CC
:1000900055160008591600085D160008611600087C
:1000A00065160008691600086D160008711600082C
:1000B00075160008791600087D16000881160008DC
:1000C00085160008891600088D160008911600088C
:1000D000951600082B0300089D160008A1160008BD
:1000E000A5160008A9160008AD160008B1160008EC
:1000F000B5160008B9160008BD160008C11600089C
:10010000C5160008C9160008CD160008D11600084B
:10011000D5160008D9160008DD160008E1160008FB
:10012000E5160008E9160008ED160008F1160008AB
:10013000F5160008F9160008FD160008011700085A
:1001400005170008091700080D1700081117000807
:1001500015170008191700081D17000821170008B7
:1001600025170008291700082D1700083117000867
:1001700035170008391700083D1700084117000817
:10018000451700084917000870B584B000A8DFF8CB
:10019000DC14092200F0A6FA01244FF4E14000F03B
:1001A00068F800F039F800F055F900F0E5F84FF480
:1001B0007A7000F081F94FF47A7000F0F6F94FF49C
:1001C000FA71022000F00FF94FF4FA71012000F0EB
:1001D0000AF94FF4FA71032000F005F94FF4FA71AF
:1001E000042000F000F90025012675194FF448702D
:1001F000854202D15FF0FF300600C82D01D10120F9
:100200000600290089B2012000F0EDF8DFF8600453
:1002100000F018F9E9E7FEE780B5DFF85C0440215B
:100220000170DFF8540400214170DFF84C0407210D
:100230008170DFF844040021C170DFF83C04002124
:100240000171DFF8340400F08FFA1E2000F0FAF894
:10025000DFF8280420210170DFF82004012141701B
:10026000DFF818040C218170DFF8100400F095FA13
:1002700001BD10B588B004000121102000F068FC19
:100280000121022000F046FCC020019002208DF8E0
:10029000080002208DF8090000208DF80A000020D7
:1002A0008DF80B0001A9DFF8D80300F093FC0722BA
:1002B0000621DFF8CC0300F0E6FC07220721DFF877
:1002C000C00300F0E0FC03940020ADF81000002013
:1002D000ADF812000020ADF814000020ADF81800B1
:1002E0000C20ADF8160003A9DFF8880300F0F8FC35
:1002F000012240F22551DFF87C0300F07DFD25202E
:100300008DF8000000208DF8010000208DF802001B
:1003100001208DF8030000A800F0D0FD0121DFF8D6
:10032000540300F05BFD08B010BD80B540F22551CC
:10033000DFF8400300F08BFD00281CD0DFF84403F9
:100340000088C0B26E2812D0DFF83C130978142957
:100350000DD2DFF834130978DFF830238854DFF842
:1003600028130978491CDFF82023117003E0DFF817
:10037000181300220A7001BD00B583B001210220CC
:1003800000F0D7FB0121062000F0C4FBC020009044
:1003900002208DF8040003208DF8050000208DF860
:1003A000060001208DF8070000A9B94800F012FCF2
:1003B0000320009000A9B24800F00CFC02220621A4
:1003C000B34800F060FC02220721B14800F05BFC5A
:1003D00002220021AA4800F056FC02220121A8486E
:1003E00000F051FC07BD80B2012806D1A94A89B2AC
:1003F0001160A94A89B2116019E080B2022806D1C1
:10040000A64A89B21160A64A89B211600FE080B293
:10041000032806D1A34A89B21160A34A89B21160A8
:1004200005E0A24A89B21160A14A89B21160704701
:10043000A0480068002804D09E480068401E9D49DE
:100440000860704701B40098411E00910028FAD15D
:1004500001B0704700B583B00121102000F05AFBB5
:100460000121012000F074FB4FF4D44000900220E1
:100470008DF8040003208DF8050000208DF806009B
:1004800000208DF8070000A98B4800F0A3FB012293
:100490000921894800F0F7FB01220B21864800F072
:1004A000F2FB01220D21844800F0EDFB01220E2118
:1004B000814800F0E8FB07BD38B5040000257F48FF
:1004C000006840087E49B0FBF1F0401E05007D4801
:1004D00005807C48002141807A48446079480021A9
:1004E00001817848002181727649774800F024FD27
:1004F00076487021018075480121418073480421AC
:1005000081807248002181607048022181816F489A
:100510000821C1816D484FF4807101826B48002130
:1005200041826A49684800F058FD6848684909886E
:1005300081606649644800F08FFD64486549098818
:1005400081606249604800F0CDFD604862490988D9
:1005500081605E495C4800F00AFE60484FF400612B
:1005600001805E484FF4806141805C484FF48071A7
:1005700081805A480B21C18058484FF48051018135
:1005800056484FF40051418154484FF480418181D5
:1005900052494D4800F054FE01214B4800F00FFD38
:1005A0000121494800F05CFE31BD38B5040000254A
:1005B0004248006840084249B0FBF1F0401E050087
:1005C000404844603F4805803E48002101813D4845
:1005D000002141803B49424800F0AEFC3B4860218D
:1005E00001803A4801214180384800218160374824
:1005F0000021818135493A4800F0EFFC0821384854
:1006000000F0F8FD3148012141803048002181602F
:100610002E49334800F020FD0821314800F0F3FD59
:100620002A480121418029480021816027492C481E
:1006300000F058FD08212A4800F0EFFD2348012171
:1006400041802248002181602049254800F08FFD2B
:100650000821234800F0EAFD0121214800F0A1FC17
:1006600001211F4800F0ABFC31BD0000C815000897
:10067000A086010000100140600000206C000020F6
:100680000004024004100140760000201800002001
:1006900000080240340400403400014038040040A7
:1006A000380001403C0400403C0001404004004050
:1006B00040000140680000200010024014000020AB
:1006C000003FAB015400002000000140300000203A
:1006D0007000002072000020740000204400002000
:1006E00000040040103A07D330B4B1E83810103A93
:1006F000A0E83810F9D230BC530724BFB1E8081085
:10070000A0E8081044BF51F8043B40F8043BD2076E
:1007100024BF31F8022B20F8022B44BF0B78037062
:100720007047083A07D3B1E80810083A40F8043B8C
:1007300040F804CBF7D25307E4E710B450F8041B99
:1007400081B102681218001D50F8043BDC0744BF59
:10075000A9F10104E31852F8044B43F8044B091FB4
:10076000F9D1EBE710BC704710B582B0040000204F
:100770008DF8000000F074F8607821780843E17883
:10078000084321790843A17808438DF8000001222D
:10079000202100A800F022F813BD10B582B004009B
:1007A00000208DF800000122212100A800F035F87A
:1007B0009DF8000010F0D0008DF800009DF80000BA
:1007C000217862781143A278114308438DF8000024
:1007D0000122212100A800F001F813BD70B504002A
:1007E0000D001600B6B2022E01D355F040050821C7
:1007F000844800F046FA2800C0B200F0CAF8B6B249
:10080000012E05D3207800F0C4F8761E641CF6E7AC
:1008100008217C4800F033FA70BD70B504000D006B
:100820001600B6B2022E02D355F0C00501E055F015
:1008300080050821734800F024FA2800C0B200F0B7
:10084000A8F8B6B2012E06D3002000F0A2F820705E
:10085000761E641CF5E708216A4800F010FA70BDA6
:1008600000B587B001214FF4805000F071F90121EB
:10087000012000F04FF90121102000F04BF9012177
:10088000102000F047F90121102000F043F9052263
:1008900005215D4800F0F7F9052206215A4800F0CD
:1008A000F2F905220721584800F0EDF902208DF8F1
:1008B000040000208DF8060002208DF807000220B9
:1008C0008DF805002020009000A94F4800F082F923
:1008D0008020009000A94C4800F07CF94020009056
:1008E00000A9494800F076F9484800F0DBFC0020F8
:1008F000ADF808000020ADF80C000020ADF80E00A7
:100900000020ADF810004FF40070ADF81200082080
:10091000ADF814000020ADF816000720ADF818005F
:100920004FF48270ADF80A0002A9384800F0E6FCE6
:100930000121364800F008FD0820009001208DF8C4
:10094000040000208DF8060002208DF8050000A9A3
:100950002C4800F03FF908212A4800F090F90120C6
:10096000009000208DF8040000208DF80600022081
:100970008DF8050000208DF8070000A9214800F03F
:1009800029F90220009000A91E4800F023F907B0C1
:1009900000BD10B504001E484FF4805101600221D3
:1009A0001A4800F0E3FC00280AD119480068411EEB
:1009B000174A11600028F2D1FFF72DFCC0B21EE0EB
:1009C000E4B2210089B2114800F0CEFC10484FF487
:1009D0008051016001210D4800F0C8FC00280AD1B7
:1009E0000B480068411E0A4A11600028F2D1FFF747
:1009F00012FCC0B203E0054800F0B4FCC0B210BD68
:100A000000000000001002400000024000300140E1
:100A100010000020F0B40021002200230224002551
:100A20000226DFF888713F6817F00C0739000F00C5
:100A3000002F04D0042F06D0082F08D03CE0DFF8A8
:100A4000747107603BE0DFF87071076037E0DFF832
:100A500060713F68C7F380573D00DFF854713F680D
:100A600017F03F073E00002D0DD0DFF84C71B7FBAB
:100A7000F6F7DFF83CC1DCF800C0CCF3881C0CFBB7
:100A800007F73B000CE0DFF82C71B7FBF6F7DFF857
:100A900020C1DCF800C0CCF3881C0CFB07F73B003E
:100AA000DFF80C713F68C7F301477F1C7F003C00F3
:100AB000B3FBF4F7076002E0DFF8F8700760DFF8D7
:100AC000EC703F6817F0F00739000909DFF8EC70A7
:100AD000CF5D3A000768D7404760DFF8D0703F68C5
:100AE00017F4E0573900890ADFF8D070CF5D3A007B
:100AF0004768D74087602D4F3F6817F4604739003B
:100B0000490BDFF8B870CF5D3A004768D740C7603F
:100B1000F0BC7047C9B2002905D0294A12680243C7
:100B2000274B1A6004E0264A12688243244B1A605D
:100B30007047C9B2002905D0224A12680243214BEE
:100B40001A6004E01F4A126882431E4B1A60704705
:100B5000C9B2002905D01C4A126802431A4B1A6018
:100B600004E0194A12688243174B1A607047C9B2F1
:100B7000002905D0154A12680243144B1A6004E09C
:100B8000124A12688243114B1A607047C9B2002999
:100B900005D00F4A126802430D4B1A6004E00C4A5C
:100BA000126882430A4B1A607047000008380240FE
:100BB000043802400024F40000127A0000000020F3
:100BC0003038024040380240443802402038024069
:100BD00024380240F0B400220023002400252A001B
:100BE000102A4AD2012595402B000D681D402C008B
:100BF0009C4240D1056803261700FFB27F00BE402B
:100C0000B543056005680E791700FFB27F00BE404E
:100C1000354305600D79012D02D00D79022D1AD1D1
:100C2000856803261700FFB27F00BE40B54385608C
:100C300085684E791700FFB27F00BE40354385605E
:100C4000456801269640B543456045688E799640D3
:100C5000B6B235434560C56803261700FFB27F0072
:100C6000BE40B543C560C568CE791700FFB27F00AE
:100C7000BE403543C560521CB2E7F0BC70470183EB
:100C8000704741837047F0B400230024D2B211F0C2
:100C90000705EDB2AD0012FA05F52B0089B2CD10B3
:100CA00010EB850589B2CE1010EB8606366A0F2749
:100CB00011F0070C5FFA8CFC5FEA8C0C17FA0CF74A
:100CC000BE432E6289B2CD1010EB85052D6A1D43FF
:100CD0002C0089B2CD1010EB85052C62F0BC70475A
:100CE0002DE9F04385B004000D005FF000090026F7
:100CF00000275FF00008A8890028208A814639F47F
:100D00004059E88850EA0909A4F81090A089814662
:100D1000314810EA0909A8882989084369890843E4
:100D200050EA0909A4F80C90A08A814639F4407968
:100D3000A88950EA0909A4F8149000A8FFF76AFEF0
:100D40002348844202D02348844202D103980600FB
:100D500001E002980600A089000408D5192000FBD4
:100D600006F029684900B0FBF1F0070007E0192000
:100D700000FB06F029688900B0FBF1F00700642051
:100D8000B7FBF0F0000181465FEA1910642101FB16
:100D900010708046A08900040AD55FEAC80032308E
:100DA0006421B0FBF1F010F0070050EA090909E0F6
:100DB0005FEA081032306421B0FBF1F010F00F0050
:100DC00050EA0909A4F8089005B0BDE8F0830000D6
:100DD0000010014000140140F3E9FFFFC9B20029EF
:100DE00004D0828952F40052828104E082894DF657
:100DF000FF731A4082817047F0B40023002400255D
:100E0000002640F66A1789B2B94206000F00FFB209
:100E10007F09FFB23B0089B211F01F073C00012798
:100E2000A7403D00012B01D10C3604E0022B01D17B
:100E3000103600E01436D2B2002A03D037682F43B0
:100E4000376002E03768AF433760F0BC704770B47A
:100E50000200002300250024002040F66A1689B213
:100E6000B1420E00F6B27609F6B2340089B211F042
:100E70001F063500012616FA05F5012C02D19689C8
:100E8000354006E0022C02D1168A354001E0968AF0
:100E9000354089B20E0AB6B23300012616FA03F3C2
:100EA00016883340002D04D0002B02D001263000DC
:100EB00001E000263000C0B270BC7047F0B40023DF
:100EC00000210F22C478002C21D0174C246814F480
:100ED000E064D4F5E064240A2300D3F10404210083
:100EE000D2B21A4144788C402300847814402343C2
:100EF0001B0104780D4D6355047864110C4D0126D7
:100F0000077817F01F07BE4045F8246009E0047811
:100F10006411084D0126077817F01F07BE4045F8F9
:100F20002460F0BC704700000CED00E000E400E03D
:100F300000E100E080E100E0002203881A00A64BF7
:100F400098420ED0AA4B98420BD0B0F1804F08D0F7
:100F5000A24B984205D0A24B984202D0A14B984296
:100F600004D14FF68F731A404B881A439E4B984218
:100F700007D09E4B984204D04FF6FF431A400B898E
:100F80001A4302804B68C3620B880385924B9842D8
:100F900002D0974B984201D18B7A0386012383823A
:100FA0007047C9B2002904D0028852F08002028042
:100FB00004E002884FF67F731A4002807047C9B27E
:100FC000002904D0028852F00102028004E0028865
:100FD0004FF6FE731A400280704770B4002300245D
:100FE0000022058C4FF6FE7635400584058C2C00DA
:100FF00085882A00058B2B004FF68F752B404FF606
:10100000FC752B400D882B434FF6FD752C408D89C8
:101010002C434D882C43704DA84202D0744DA842F9
:1010200013D14FF6F7752C40CD892C434FF6FB7545
:101030002C408D882C434FF6FF652A404FF6FF5514
:101040002A400D8A2A434D8A2A43828003838D6871
:101050004563048470BC704770B4002300240022F0
:10106000058C4FF6EF7635400584058C2C0085887D
:101070002A00058B2B0048F6FF752B404FF6FF45E5
:101080002B400D8853EA05234FF6DF752C408D89E0
:1010900054EA05144D8854EA05144F4DA84202D075
:1010A000534DA84217D14FF67F752C40CD8954EA95
:1010B00005144FF6BF752C408D8854EA05144FF681
:1010C000FF352A404FF2FF752A400D8A52EA850209
:1010D0004D8A52EA8502828003838D688563048489
:1010E00070BC704770B4002300240022058C4FF6BA
:1010F000FF6635400584058C2C0085882A00858B89
:101100002B004FF68F752B404FF6FC752B400D884A
:101110002B434FF6FF552C408D8954EA05244D880A
:1011200054EA05242C4DA84202D0314DA84217D1D3
:101130004FF2FF752C40CD8954EA05244FF6FF3558
:101140002C408D8854EA05244EF6FF752A404DF652
:10115000FF752A400D8A52EA05124D8A52EA05129D
:10116000828083838D68C563048470BC704770B4CB
:10117000002300240022058C4EF6FF7635400584BE
:10118000058C2C0085882A00858B2B0048F6FF757E
:101190002B404FF6FF452B400D8853EA05234DF6B3
:1011A000FF752C408D8954EA05344D8854EA053486
:1011B000094DA84202D00E4DA84205D14BF6FF754D
:1011C0002A400D8A52EA8512828083838D680564E5
:1011D000048470BC7047000000000140000400401F
:1011E00000080040000C00400010004000140040C7
:1011F000000401400022038B1A004FF6F7731A40D7
:101200000A43028370470022038B1A004FF2FF73D8
:101210001A4052EA0122028370470022838B1A008F
:101220004FF6F7731A400A43828370470022838B7C
:101230001A004FF2FF731A4052EA0122828370476C
:101240000A884B881A438B881A43CB881A430B8928
:101250001A434B891A438B891A43A0F844207047DC
:10126000C9B2002906D0B0F8442052F40042A0F8D8
:10127000442005E0B0F844205204520CA0F8442069
:10128000704750F8041B61B150F8042BD30744BFDA
:10129000A9F101039A18002342F8043B091FFAD16F
:1012A000EFE7704710B50400244884420AD10121B9
:1012B0004FF48050FFF76AFC00214FF48050FFF795
:1012C00065FC1AE01E4884420AD101214FF4804097
:1012D000FFF74DFC00214FF48040FFF748FC0CE085
:1012E0001848844209D101214FF40040FFF73FFC28
:1012F00000214FF40040FFF73AFC10BD10B400226B
:1013000003881A0012F441520B884C8823438C88BE
:101310002343CC8823430C8923434C8923438C8962
:101320002343CC8923431A430280838B4FF2FF74FB
:10133000234083830B8A038210BC70470030014036
:1013400000380040003C0040C9B2002904D00288A7
:1013500052F04002028004E002884FF6BF731A4048
:1013600002807047808970478181704702000020A9
:1013700013890B4202D00123180001E0002318005A
:10138000C0B2704780B54E48006850F001004C492B
:1013900008604C4800210160494800684A490840FB
:1013A0004749086049484A4901604548006830F4A7
:1013B00080204349086047480021016000F005F89B
:1013C00045485FF00061016001BD82B000200190DE
:1013D000002000903A48006850F480303849086096
:1013E0003748006810F4003000900198401C0190CC
:1013F0000098002803D10198B0F5A06FF0D13048D3
:101400000068800302D50120009001E000200090D8
:10141000009801283ED13148006850F080502F4993
:1014200008602F48006850F480402D490860254826
:101430002449096801602348006850F400402149AC
:1014400008602048006850F4A0501E4908601F48FA
:10145000244901601A48006850F0807018490860FB
:10146000174800688001FBD51F4840F20561016004
:10147000144800688008800012490860114800681C
:1014800050F002000F4908600E48006810F00C0090
:101490000828F9D10B48006830F4000009490860B9
:1014A0001248134901600648006850F08060044902
:1014B0000860034800680001FBD502B070470000D7
:1014C0000038024008380240FFFFF6FE04380240B0
:1014D000103000240C38024008ED00E04038024093
:1014E0000070004008544007003C0240843802402D
:1014F0000030005010B5084979441C31074C7C4439
:101500001A34A14206D0081D0A68511888470146BE
:10151000A142F8D110BD00BF080000002800000063
:1015200063FDFFFF600000001800002000000000C5
:101530000BF2FFFF18000000140200000000002062
:10154000000000004EF68851CEF20001086840F419
:10155000700008604FF00070E1EE100A70477047AD
:10156000FEE7FEE7FEE7FEE770477047704780B58D
:10157000FEF75EFF01BD000000F009F8002801D071
:10158000FFF7B8FF0020FEF7FFFD00F002F8012092
:10159000704700F001B800000746384600F002F836
:1015A000FBE7000080B5C046C046024A1100182083
:1015B000ABBEFBE726000200014880470148004718
:1015C00085130008D5150008787879797A7A0D0A9C
:1015D00000000000C046C046FFF7B4FFFFF7CCFF95
:1015E000FFF7BDBFFFF7BCBFFFF7BBBFFFF7BABF39
:1015F000FFF7B9BFFFF7B8BFFFF7B7BFFFF7B6BF39
:10160000FFF7B5BFFFF7FEBFFFF7FEBFFFF7FEBF57
:10161000FFF7FEBFFFF7FEBFFFF7FEBFFFF7FEBFFE
:10162000FFF7FEBFFFF7FEBFFFF7FEBFFFF7FEBFEE
:10163000FFF7FEBFFFF7FEBFFFF7FEBFFFF7FEBFDE
:10164000FFF7FEBFFFF7FEBFFFF7FEBFFFF7FEBFCE
:10165000FFF7FEBFFFF7FEBFFFF7FEBFFFF7FEBFBE
:10166000FFF7FEBFFFF7FEBFFFF7FEBFFFF7FEBFAE
:10167000FFF7FEBFFFF7FEBFFFF7FEBFFFF7FEBF9E
:10168000FFF7FEBFFFF7FEBFFFF7FEBFFFF7FEBF8E
:10169000FFF7FEBFFFF7FEBFFEF747BEFFF7FEBF37
:1016A000FFF7FEBFFFF7FEBFFFF7FEBFFFF7FEBF6E
:1016B000FFF7FEBFFFF7FEBFFFF7FEBFFFF7FEBF5E
:1016C000FFF7FEBFFFF7FEBFFFF7FEBFFFF7FEBF4E
:1016D000FFF7FEBFFFF7FEBFFFF7FEBFFFF7FEBF3E
:1016E000FFF7FEBFFFF7FEBFFFF7FEBFFFF7FEBF2E
:1016F000FFF7FEBFFFF7FEBFFFF7FEBFFFF7FEBF1E
:10170000FFF7FEBFFFF7FEBFFFF7FEBFFFF7FEBF0D
:10171000FFF7FEBFFFF7FEBFFFF7FEBFFFF7FEBFFD
:10172000FFF7FEBFFFF7FEBFFFF7FEBFFFF7FEBFED
:10173000FFF7FEBFFFF7FEBFFFF7FEBFFFF7FEBFDD
:10174000FFF7FEBFFFF7FEBFFFF7FEBF0000000080
:101750000102030401020304060708090010000047
:04176000007A030AFE
:04000005080015D505
:00000001FF
