:020000040800F2
:10000000C805002081330008593200085B3200081F
:100010005D3200085F320008613200080000000015
:100020000000000000000000000000006332000833
:1000300065320008000000006732000869320008DD
:10004000C1330008C5330008C9330008CD330008A8
:10005000D1330008D5330008D9330008DD33000858
:10006000E1330008E5330008E9330008ED33000808
:10007000F1330008F5330008F9330008FD330008B8
:100080000134000805340008093400080D34000864
:100090001134000815340008193400081D34000814
:1000A0002134000825340008293400082D340008C4
:1000B0003134000835340008393400083D34000874
:1000C0004134000845340008493400084D34000824
:1000D00051340008E1140008593400085D34000868
:1000E0006134000865340008693400086D34000884
:1000F0007134000875340008793400087D34000834
:100100008134000885340008893400088D340008E3
:100110009134000895340008993400089D34000893
:10012000A1340008A5340008A9340008AD34000843
:10013000B1340008B5340008B9340008BD340008F3
:10014000C1340008C5340008C9340008CD340008A3
:10015000D1340008D5340008D9340008DD34000853
:10016000E1340008E5340008E9340008ED34000803
:10017000F1340008F5340008F9340008FD340008B3
:10018000013500080535000840B2002809D540B205
:1001900010F00F02DFF89C3BD2180B0102F8043C70
:1001A00004E040B2DFF8942C0B018354704710B583
:1001B0000400B4F1807F01D3012013E02002000A83
:1001C000401EDFF8741B08600F215FF0FF30FFF75F
:1001D000DBFFDFF8680B00210160DFF8640C07210A
:1001E0000160002010BD00002DE9F84F2DED048BBB
:1001F00084B0DFF84C0B006842F21071B0FBF1F0F4
:10020000FFF7D5FF00200021CDE9020100208DF885
:1002100000005FF0000A002700265FF0000BFFB22D
:10022000142F06DAFFB2DFF81C0C002139547F1CB2
:10023000F5E701F0CFF800F081FF00F03FFF42F258
:10024000107000F0B5FF42F2107001F061F801F09B
:10025000ECFA01F0E3F901F0EFF9012810D100F018
:1002600071FD00F0ADFE01F0D7F8DFED038A9FEDE0
:10027000039ADFED019A04E000000000003C1C46F8
:10028000FEE7DFF8C40B0088DFF8C01B09786422A2
:10029000514311FA80F0DFF8B81B097841F270720F
:1002A00002FB01008346DDE90201BBEB00008DF893
:1002B00000005FFA8BFB58460021CDE90201DFF810
:1002C000F80C01F0FDF9DFF8F00CC088DFF8EC1C49
:1002D0000988401ADFF8E01CC880DFF8DC0C0089D0
:1002E000DFF8801D0988401ADFF8CC1C0881DFF890
:1002F000C80C4089DFF8701D0988401ADFF8B81C67
:10030000488100219DF80000DFF8AC2CB2F90620EE
:1003100000EE102AF8EEC00ADFF89C2CB2F900209B
:1003200000EE102AB8EEC00A00F038FBF0EE400AEA
:100330000020B0EE608A0400DFF8180B408800EE61
:10034000100AB8EE400A10EE100A01F05FFB00221E
:100350005FF0804301F098FB01F078FC00EE100A9A
:100360002000F0EE480A00F043FADFF8EC0A80EDD6
:10037000000A01219DF80000DFF83C2CB2F90820AA
:1003800000EE102AF8EEC00ADFF82C2CB2F9022099
:1003900000EE102AB8EEC00A00F000FBF0EE400AB2
:1003A0000120B0EE608A0400DFF8A80A808800EE21
:1003B000100AB8EE400A10EE100A01F027FB0022E6
:1003C0005FF0804301F060FB01F040FC00EE100A9A
:1003D0002000F0EE480A00F00BFADFF87C0A80ED0E
:1003E000010A02219DF80000DFF8CC2BB2F90A20A7
:1003F00000EE102AF8EEC00ADFF8BC2BB2F9042098
:1004000000EE102AB8EEC00A00F0C8FAF0EE400A7A
:1004100002209FEDBA0A00F0EBF9DFF83C0A80ED0C
:10042000020ADFF8300A0088002800F0CE80DFF8EA
:10043000240A008801F052FC80468946DFF8180A39
:10044000006801F0E3FA02000B0000205FF0804139
:1004500001F052FC04000D00DFF8FC09406801F0D7
:10046000D5FA22002B0001F00FFB42464B4601F06B
:100470000BFB04000D00DFF8F40B006801F0C6FA76
:1004800002000B002000290001F0F6FC0022DFF83A
:10049000E03B01F015FE01F087FEDFF8D81B088075
:1004A000DFF8B009008801F019FC80468946DFF8C2
:1004B000A809006801F0AAFA04000D00DFF8980905
:1004C000406801F0A3FA02000B0000205FF08041B9
:1004D00001F012FC22002B0001F0D6FA42464B46F6
:1004E00001F0D2FA04000D00DFF8800B006801F083
:1004F0008DFA02000B002000290001F0BDFC002253
:10050000DFF86C3B01F0DCFD01F04EFEDFF8641B10
:100510004880DFF84009008800EE100AB8EE400A73
:10052000DFF83409D0ED000ADFF82C0990ED011A4C
:1005300060EE810A20EE200ADFF8300BD0ED000AD1
:1005400080EE200ADFED910A30EE200ABDEEC00AEF
:1005500010EE100ADFF81C1B8880DFF8F80800880E
:1005600001F0BCFB04000D00DFF8EC0890ED000A80
:10057000DFF8E408D0ED010A20EE200A10EE100AA0
:1005800001F044FA02000B0000205FF0804101F00E
:10059000B3FB22002B0001F077FA04000D00DFF816
:1005A000CC0A006801F032FA02000B00200029009A
:1005B00001F062FC0022DFF8B83A01F081FD01F0A1
:1005C000F3FDDFF8B01AC8800AE00020042807DA3B
:1005D000DFF8A01A40F68C2221F81020401CF5E725
:1005E000DFF8900A018889B2012000F0D1F8DFF825
:1005F000840A418889B2022000F0CAF8DFF8740A40
:10060000818889B2032000F0C3F8DFF8680AC18846
:1006100089B2042000F0BCF8504610F1010AC0B2C3
:10062000022190FBF1F202FB1102002A05D0DFF853
:10063000800A4FF48051018004E0DFF8780A4FF41B
:1006400080510180DFF86C0A4FF400410180DFF82F
:10065000680A006800040CD5DFF8540A4FF4005112
:100660000180DFF8D40A0078DFF8D817012242545D
:100670000BE0DFF8400A4FF400510180DFF8B80AC0
:100680000078DFF8C01700224254DFF8AC0A007887
:10069000401CDFF8A41A0870DFF89C0A00781528BF
:1006A00003DBDFF8940A002101700020060000201F
:1006B0000700FFB2142F06DAFFB2DFF88807385CB4
:1006C00086197F1CF5E7F6B2142E09DADFF8180C4C
:1006D000007800280DD0DFF8100C0021017008E030
:1006E000DFF8040C0078002803D1DFF8FC0B0121AF
:1006F0000170642000F08AFFC3E5000000000000E4
:10070000C0B2DFF8A81A11F82010FA291AD0FB2974
:1007100017D0FD290BD0FF2914D1C0B2DFF88C1AF5
:1007200011EB80014978DFF82C27D1800AE0C0B2B4
:10073000DFF8781A11EB80014978DFF8182751802B
:1007400000E0FFE7C0B2DFF8641A11EB800189789E
:10075000FC2911D0FE2918D1C0B2DFF8501A11EBD4
:100760008001C978DFF8EC261180DFF8E816DFF8A1
:10077000E42612880A8008E0C0B2DFF8301A11EBD4
:100780008001C978DFF8CC269180704700C02845E9
:1007900080B2012808D1DFF8542B89B21160DFF84C
:1007A000502B89B2116022E080B2022808D1DFF814
:1007B000442B89B21160DFF8402B89B2116016E03A
:1007C00080B2032808D1DFF8342B89B21160DFF83A
:1007D000302B89B211600AE080B2042807D1DFF81B
:1007E000242B89B21160DFF8EC2C89B211607047BC
:1007F00010B52DED0A8BB0EE40AAB0EE608A040071
:100800003AEE480AF0EE40AAE4B2DFF8FC0A10EB38
:10081000840090ED000A30EE2A0AE4B2DFF8E80A1C
:1008200010EB840080ED000A1AEE900A01F0EEF859
:1008300031F0004141EC190BDFF8D00A006801F0FB
:10084000E5F853EC192B01F0D5FC0AD89FED510ABD
:10085000B0EE40BAE4B2DFF8B00A002140F824104C
:100860003DE0DFF86C0B90ED000AB0EE40BAE4B268
:10087000DFF8940A10EB840090ED000ADFF8880B93
:10088000D0ED000AB4EE600AF1EE10FA08DBE4B233
:10089000DFF8740ADFF8701B096840F824101EE0C6
:1008A000DFF8640B90ED000AB1EE400AE4B2DFF825
:1008B000580A10EB8400D0ED000AB4EE600AF1EEA5
:1008C00010FA0CDBE4B2DFF8400A10EB8400DFF82A
:1008D000381B91ED000AB1EE400A80ED000ADFF806
:1008E0002C0B90ED000A2AEE800AF0EE40BAE4B23A
:1008F000DFF8140A10EB840090ED000A20EE0B0ADA
:10090000B0EE40CAE4B2DFF8080B10EB840090EDC3
:10091000000A3AEEC00ADFF8FC0AD0ED000A20EE29
:10092000200AF0EE40CAE4B2DFF8E40A10EB8400DB
:10093000C0ED00AA3BEE8C0A30EE2C0A10EE100A35
:1009400001F064F80022DFF8903B01F095FA0022F4
:10095000DFF8883B01F0B4FB01F078F908EE900A6B
:100960009FED0D0AF4EE408AF1EE10FA04DBB0EED2
:10097000000AF0EE408A08E0F5EE408AF1EE10FA47
:1009800003D59FED040AF0EE408AB0EE680ABDEC94
:100990000A8B10BD00000000010000402DE9F84363
:1009A0002DED048BF0EE408AB0EE608A07000E0059
:1009B000FFB200EE107AB8EE400ADFEDDD0A80EEFD
:1009C000209AF6B2DFF8880B10EB860090ED000A53
:1009D00038EE400AF6B2DFF87C0B10EB8600D0ED63
:1009E000000A40EE090AF6B2DFF8680B10EB860049
:1009F000C0ED000AF6B2DFF8600B50F8260001F0F7
:100A000005F880468946F6B2DFF8500B10EB8600F9
:100A100090ED000AF6B2DFF8480B10EB8600D0ED3F
:100A2000000A30EE200AF1EE490A20EE800A10EEAC
:100A3000100A00F0EBFF04000D0019EE100A00F0A0
:100A4000E5FFDFF8202BDFF8203B01F01DF8220046
:100A50002B0001F035FB42464B4601F031FB01F023
:100A6000F5F8F6B2DFF8F01A41F82600B1EE490ABF
:100A7000F6B2DFF8F80A10EB8600D0ED000AF6B205
:100A8000DFF8DC0A10EB860090ED001A00EE201A69
:100A9000F6B2DFF8CC0A10EB860080ED001AB1EE5A
:100AA000490AF6B2DFF8C40A10EB8600D0ED000A5E
:100AB000F6B2DFF8A80A10EB860090ED001A00EEFF
:100AC000201AF6B2DFF8940A10EB860080ED001AC7
:100AD000F6B2DFF8980A50F8260000F097FF0400FD
:100AE0000D0019EE100A00F091FFDFF8842ADFF8FC
:100AF000843A00F0C9FF22002B0001F0E1FA01F076
:100B0000A5F8F6B2DFF8641A41F82600F6B2DFF86D
:100B1000440A10EB860090ED000A38EEC00AF6B2E7
:100B2000DFF8540A10EB860080ED000AF6B2DFF819
:100B3000280A50F8260000F069FFDFF8402ADFF8A5
:100B4000403A01F0BDFA01F081F8F6B2DFF8341A4C
:100B500041F82600F6B2DFF8000A10EB860090EDAF
:100B6000000AF6B2DFF81C0A10EB8600D0ED000A8E
:100B700080EE200AF6B2DFF8100A10EB860080ED56
:100B8000000AF6B2DFF8D40910EB860090ED000AF7
:100B9000F6B2DFF8F00910EB8600D0ED000A80EE27
:100BA000200AF6B2DFF8E40910EB860080ED000AB7
:100BB000F6B2DFF8D40910EB860090ED000AF6B229
:100BC000DFF8B40910EB8600D0ED000AF6B2DFF8CA
:100BD000840910EB860090ED001A00EE201AF6B2A0
:100BE000DFF8700910EB860080ED001AF6B2DFF82E
:100BF0009C0910EB860090ED000AF6B2DFF8780948
:100C000010EB8600D0ED000AF6B2DFF8440910EBD5
:100C1000860090ED001A00EE201AF6B2DFF83009D7
:100C200010EB860080ED001AF6B2DFF85C0910EBDD
:100C3000860090ED000AF6B2DFF81C0910EB860082
:100C4000D0ED000AF6B2DFF8100910EB860090ED47
:100C5000001A00EE601AF6B2DFF8FC0810EB86000E
:100C600080ED001AF6B2DFF8200910EB860090ED57
:100C7000000AF6B2DFF8E80810EB8600D0ED000AB3
:100C8000F6B2DFF8DC0810EB860090ED001A00EEFB
:100C9000601AF6B2DFF8C80810EB860080ED001A83
:100CA000F6B2DFF8E80810EB860090ED000AF6B225
:100CB000DFF8A40810EB8600D0ED000AF6B2DFF8EA
:100CC0009C0810EB860090ED001A00EE601AF6B258
:100CD000DFF8880810EB860080ED001AF6B2DFF826
:100CE000AC0810EB860090ED000AF6B2DFF8700851
:100CF00010EB8600D0ED000AF6B2DFF8700810EBBA
:100D0000860090ED001A00EE601AF6B2DFF85C087B
:100D100010EB860080ED001AF6B2DFF8380810EB11
:100D2000860090ED000ABDEC048BBDE8F183000065
:100D300000007A4418ED00E014E000E018E000E064
:100D40002400002010B5002400200400B4F57A7FB0
:100D500037DA994800F0B4FC984800889649C98869
:100D6000081896490880BF480088934909890818DF
:100D7000BC490880BC4800888F4949890818BA498D
:100D80000880DFF80C0800888B4909880818DFF80C
:100D900000180880DFF8FC07008887494988081890
:100DA000DFF8F0170880DFF8F007008882498988AB
:100DB0000818DFF8E4170880642000F027FC641CA2
:100DC000C4E77E48B0F900004FF47A7190FBF1F06F
:100DD0007A490880A348B0F900004FF47A7190FB7B
:100DE000F1F0A0490880A048B0F900004FF47A71F2
:100DF00090FBF1F09C490880DFF89407B0F90000FF
:100E00004FF47A7190FBF1F0DFF884170880DFF877
:100E10008407B0F900004FF47A7190FBF1F0DFF82D
:100E200074170880DFF87007B0F900004FF47A718A
:100E300090FBF1F0DFF86017088010BD00E400E0DF
:100E400010E000E080000020BA010020BE01002078
:100E5000BF0100208C010020D8000020F8B52DED46
:100E6000048B04000D005448B0F9040000EE100A91
:100E7000B8EEC00A10EE100A00F0C8FD41EC180BE5
:100E80004D48B0F9000000EE100AB8EEC00A10EEAE
:100E9000100A00F0BBFD41EC190B53EC182B51EC80
:100EA000180B00F0F1FD06000F0053EC192B51EC6C
:100EB000190B00F0E9FD32003B0001F001F941ECB3
:100EC000100B01F0AFF9B0EE408AF0EE608A3A48BC
:100ED000B0F9020000EE100AB8EEC00A10EE100AD7
:100EE00000F094FD53EC182B00F0C6FF41EC100B02
:100EF00001F070FA53EC102BDFF8A006DFF8A01613
:100F000000F0C2FD00F0A2FE20602B48B0F9040002
:100F100000EE100AB8EEC00A10EE100A00F076FDDE
:100F200041EC180B2448B0F9020000EE100AB8EEAC
:100F3000C00A10EE100A00F069FD41EC190B53ECE9
:100F4000182B51EC180B00F09FFD06000F0053EC1E
:100F5000192B51EC190B00F097FD32003B0001F00A
:100F6000AFF841EC100B01F05DF9B0EE408AF0EE05
:100F7000608A1148B0F90000404200EE100AB8EE55
:100F8000C00A10EE100A00F041FD53EC182B00F0DF
:100F900073FF41EC100B01F01DFA53EC102BDFF83E
:100FA000FC05DFF8FC1500F06FFD00F04FFE286037
:100FB000BDEC048BF1BD0000A8000020AE010020B4
:100FC0001CB5DFF8E00500210160DFF8DC05002139
:100FD0000160002400200400642C24DADFF8CC0532
:100FE00000F06EFB00A901A8FFF738FFDFF8B40599
:100FF00090ED000ADDED010A30EE200ADFF8A405CD
:1010000080ED000ADFF8A00590ED000ADDED000A92
:1010100030EE200ADFF8900580ED000A0A2000F08B
:10102000F5FA641CD8E7DFF87C05006800F0EEFCF8
:101030000022DFF87C3500F01FFF00F007FEDFF82C
:1010400064150860DFF86005006800F0DFFC00222E
:10105000DFF85C3500F010FF00F0F8FDDFF8481510
:10106000086013BDB0010020B20100201000002074
:101070000018A5409401002000B583B00121012093
:1010800001F030FA4FF40040009000208DF8040089
:1010900000208DF8060002208DF8070002208DF850
:1010A000050000A9DFF8100501F05AFA07BD00009D
:1010B000180C02401A0C02401000024000B583B028
:1010C0000121022001F01DFA0121062001F00AFA97
:1010D000C020009002208DF8040003208DF8050048
:1010E00000208DF8060001208DF8070000A9DFF828
:1010F000CC0401F035FA0320009000A9DFF8B40415
:1011000001F02EFA02220621DFF8B00401F07DFA88
:1011100002220721DFF8A40401F077FA022200215D
:10112000DFF8900401F071FA02220121DFF8840453
:1011300001F06BFA07BD0000BC01002000B583B0D0
:101140000121102001F0CEF90121012001F0E8F980
:101150004FF4D440009002208DF8040003208DF855
:10116000050000208DF8060000208DF8070000A97A
:10117000DFF84C0401F0F4F901220921DFF8400402
:1011800001F043FA01220B21DFF8340401F03DFAAB
:1011900001220D21DFF8280401F037FA01220E2187
:1011A000DFF81C0401F031FA07BD00003000002018
:1011B00038B504000025DFF80C0400684008DFF8AB
:1011C0000814B0FBF1F0401E0500DFF800040580B4
:1011D000DFF8F80300214180DFF8F0034460DFF816
:1011E000EC0300210181DFF8E40300218172DFF8C4
:1011F000DC13DFF8DC0301F035FADFF8D8037021E7
:101200000180DFF8D00301214180DFF8C803042109
:101210008180DFF8C00300218160DFF8B80302217C
:101220008181DFF8B0030821C181DFF8A8034FF402
:1012300080710182DFF89C0300214182DFF8941362
:10124000DFF88C0301F05FFADFF88803DFF888131A
:1012500009888160DFF87C13DFF8740301F092FAEB
:10126000DFF87003DFF8741309888160DFF8641316
:10127000DFF85C0301F0CCFADFF85803DFF8601305
:1012800009888160DFF84C13DFF8440301F005FBA7
:10129000DFF850034FF400610180DFF848034FF49A
:1012A00080614180DFF83C034FF480718180CD483C
:1012B0000B21C180CB484FF480510181C9484FF4C4
:1012C00000514181C7484FF480418181C549C048E0
:1012D00001F04CFB0121BE4801F007FA0121BC4896
:1012E00001F054FB31BD0000BD010020340400407A
:1012F0003400014038040040380001403C04004004
:101300003C00014040040040B800002020000020C4
:1013100038B504000025AB4800688008AA49B0FB36
:10132000F1F0401E0500A9484460A8480580A74880
:1013300000210181A54800214180A449AA4801F06B
:1013400091F9A44860210180A24801214180A1486F
:10135000002181609F48002181819E49A24801F0BF
:10136000D2F90821A04801F0DBFA9A480121418016
:1013700098480021816097499B4801F003FA0821B1
:10138000994801F0D6FA9348012141809148002103
:1013900081609049944801F03BFA0821924801F09D
:1013A000D2FA8C48012141808A4800218160894914
:1013B0008D4801F072FA08218B4801F0CDFA012125
:1013C000894801F084F90121874801F08EF931BD87
:1013D000A401002000B583B00121082001F082F8AB
:1013E0004FF47040009001208DF8040002208DF829
:1013F000050000208DF8060000208DF8070000A9E8
:101400007A4801F0ADF807BD1C0000201400002050
:10141000C80000201800002080B5FFF72DFE42F222
:10142000F03000F001F801BD10B588B004000121D2
:10143000102001F075F80121022001F053F8C020BE
:10144000019002208DF8080002208DF8090000208C
:101450008DF80A0000208DF80B0001A9554801F015
:101460007FF807220621534801F0CFF80722072111
:10147000504801F0CAF803940020ADF81000002095
:10148000ADF812000020ADF814000020ADF81800EF
:101490000C20ADF8160003A9554801F089FA012285
:1014A00040F22551524801F00FFB25208DF8000035
:1014B00000208DF8010000208DF8020001208DF839
:1014C000030000A801F062FB0121494801F0EEFA97
:1014D00008B010BD400001400088B3400000F03F5C
:1014E00010B540F22551424801F019FB00282DD0DB
:1014F0004048002101704048048840480078404935
:1015000044543E480078401C3C4908703B480078F1
:1015100004281BDB04223A493A4800783A4B13EB83
:10152000800001F071FB37480078FFF7E9F8334895
:101530000021017033480078401C3249087031485E
:101540000078142802DB2F480021017010BD000034
:101550001401002008010020200100203801002093
:101560002C010020FCA9F1D24D62503F4401002023
:10157000FA7E6ABC7493683F50010020B81E85EB68
:1015800051B89E3F5C0100206801002074010020DA
:10159000A8010020AA010020AC010020F6285C8FE1
:1015A000C2A54C409C010020A0010020A800002002
:1015B00000005940000402400000024000080240C0
:1015C0000010024024000020006A18008001002062
:1015D0000000014094000020B4010020B60100206A
:1015E000B8010020F800002000040040000C024078
:1015F000001001402C00002004100140C101002017
:10160000E8000020C00100203000002001B4009854
:10161000411E00910028FAD101B0704780B5012029
:1016200000F020F8012000F029F8092000F032F83D
:10163000002000F03BF801BD80B500F006F834282A
:1016400001D1012000E0002002BD00B583B001A857
:101650000090062306227521D02000F0BDF89DF8E9
:1016600004000EBD10B582B00400E4B20094032360
:1016700002226B21D02000F058F813BD10B582B0C3
:101680000400E4B20094022304221B21D02000F0C5
:101690004CF813BD10B582B00400E4B200940223EC
:1016A00004221C21D02000F040F813BD10B5040026
:1016B0002300DBB206226B21D02000F068F810BDB9
:1016C0001FB504000E233B2200A9D02000F026F90C
:1016D000002003280DDA00A911F81010090200AA51
:1016E00012EB4002527851FA82F124F81010401C9B
:1016F000EFE7042007280FDA00A911F810100902FB
:1017000000AA12EB4002527851FA82F114EB400227
:1017100022F8021C401CEDE79DF8060000029DF82F
:10172000071050FA81F0A0811FBD2DE9F843050094
:101730000E0017009846089C01233200D2B200A97F
:101740002800C0B200F0EAF8012010FA08F0401EAC
:10175000B7EB0801491C10FA01F9B7EB0800401C6F
:10176000844019EA04049DF8000030EA09008DF86D
:1017700000009DF8000020438DF800003200D2B236
:1017800000A92800C0B200F095F8BDE8F183F8B5D3
:1017900004000D0016001F0001232A00D2B200A988
:1017A0002000C0B200F0BAF8FFB2002F05D09DF8BB
:1017B00000000121B140084304E09DF80000012130
:1017C000B14088438DF800002A00D2B200A9200061
:1017D000C0B200F06FF8F1BD2DE9F04182B0040015
:1017E0000D0016001F00DDF8208001232A00D2B270
:1017F00000A92000C0B200F091F80120B840401EBE
:10180000F11B491C88409DF8001001408DF8001024
:101810009DF80010F21B521CD1408DF800109DF86D
:10182000001088F80010BDE8F38100B587B00121F1
:101830005FF4800000F065FE0121022000F052FEFE
:101840004FF44060009002208DF8040002208DF8D3
:10185000050001208DF8060001208DF8070000A981
:10186000624800F07DFE04220A21604800F0CDFEAF
:1018700004220B215D4800F0C8FE5D480290002064
:10188000ADF80C004BF6FF70ADF80E000020ADF87F
:1018900010000020ADF812004FF48040ADF81400A5
:1018A00002A9544801F0BCF90121524801F038FA6C
:1018B00007B000BD70B504000D00160001214D48B1
:1018C00001F03CFA4C494B4801F073FA0028F9D07A
:1018D00000222100C9B2474801F04CFA4749454867
:1018E00001F067FA0028F9D03100C9B2414801F08F
:1018F0005AFA43493F4801F05CFA0028F9D02978A8
:101900003C4801F050FA3E493A4801F052FA0028AA
:10191000F9D00121374801F01FFA70BDF8B5040075
:101920000D0016001F005FF40031324801F05DFA2F
:101930000028F8D101212F4801F000FA2E492D4846
:1019400001F037FA0028F9D000222100C9B2294855
:1019500001F010FA2949274801F02BFA0028F9D0A4
:101960000121244801F0DCF93100C9B2214801F01D
:101970001AFA23491F4801F01CFA0028F9D0012166
:101980001C4801F0DBF91C491A4801F012FA002842
:10199000F9D001222100C9B2164801F0EBF919492A
:1019A000144801F006FA0028F9D0BFB2002F17D072
:1019B000BFB2012F07D100210E4801F0E6F9012145
:1019C0000C4801F0C9F910490A4801F0F2F9002861
:1019D000EBD0084801F0EAF928706D1C7F1EE4E79F
:1019E0000121044801F0D1F9F1BD000000040240DA
:1019F000A08601000058004001000300820007009B
:101A00008400070002000300400003005FF0FF0CA9
:101A10001CEAD05114BF614506E0C110400721F017
:101A2000E04101F16051704779B900F000410002D6
:101A30000AD0B0FA80FC00FA0CF001F16051A1EB81
:101A40000C5101EBD0214005704741020CBF40F41E
:101A5000E0016FF000010020704710B450F8041B43
:101A600081B102681218001D50F8043BDC0744BF26
:101A7000A9F10104E31852F8044B43F8044B091F81
:101A8000F9D1EBE710BC7047B0B581EA030C0CF05C
:101A9000004C40F2FF7515EA11541DBF15EA1357AB
:101AA000AC42AF4239E0E41923EA455343F48013D2
:101AB000C90241F0004141EA505EC7021100A7FB94
:101AC000020200284FF00000EEFB01204FF0000161
:101AD000E3FB072118BF42F00102401800214941F1
:101AE000E3FB0E01A4F580640F0302D252004041D3
:101AF000494154F101046CDD470872F1004250F194
:101B0000000051EB0451A1F580115CBF41EA0C01CA
:101B1000B0BD4CEA05510020B0BD05EA1357AC42F8
:101B200014BFAF4241E050EA410E1CBF52EA430EDF
:101B300002E061460020B0BD24423C441BD15FEA74
:101B4000070EF6D0090302BF01460020AEF1140EC5
:101B5000B1FA81F7AEEB070401FA07FE0C37C7F1C3
:101B6000200100FA07F7C8404EEA000E23EA455369
:101B700043F48013A2E733F00043B3FA83F704BFC2
:101B8000B2FA82FE77440B3FE41BB7F1200E2FBF61
:101B900002FA0EF3BB40C7F1200E22FA0EFE38BF48
:101BA00043EA0E03BA40641C82E750EA410E14BFB8
:101BB00052EA430E6FF000014FF4001717EB430F8A
:101BC0008ABF194617EB410FB5E74CEA05510020D3
:101BD000B0BDD4F10104B4F120070FDAC4F120073D
:101BE000520828BF42F0010210FA07F501FA07F780
:101BF000E1BF2A43E0403843E1400FE0352C98DC58
:101C0000C7F1200452EA400220FA07F218BF42F05E
:101C1000010231FA07F0A1400A43002172F10042AB
:101C200050F1000051EB0C01B0BD50F8041B61B144
:101C300050F8042BD30744BFA9F101039A180023DD
:101C400042F8043B091FFAD1EFE770474FEAF17CF5
:101C5000BCF1E04C2CBFBCF5001F11E05FEA4C0C5E
:101C600034BFBCF17F5F2EE05FEA9C0C4FEA0C1C96
:101C70004FEA3C0CC10071F100414CEB50707047D1
:101C8000C90241EA5051C00218BF41F0010141F0C0
:101C900000414FEA6C50C0F10900212810D240EAFF
:101CA000CC7CCCF1200C11FA0CF070F10040CCF19E
:101CB000200C21FA0CF00CF0004C40EB0C007047AB
:101CC0004FEACC707047490011F5001F04D84FEA65
:101CD000CC10FF30C0057047C8177047010000BF27
:101CE00009D0B0FA80F18840C91CC1F584610905AA
:101CF00001EBD0214005704770B44FF0004591EAE8
:101D0000030F44BF6B4000F0E5B900BF841A71EBCC
:101D1000030604D26E40001BB141121973414FF407
:101D2000001C1CEB410F34BF7CEB430684E00C0D20
:101D3000A4EB1356362E7DDC012E43DC45EAC3238B
:101D400043EA525312BFD20292025B08240545EACD
:101D5000C12141EA5051D2EBC020994125D407D18D
:101D6000B0FA80F610FA06F164D00020203608E0C0
:101D7000B1FA81F6B140C6F1200220FA02F2114315
:101D8000B0404FEAF474B4EB465434F001064FEA25
:101D900074040AD8D6F50016760D04F00044F0401D
:101DA00061FA06F25040F1404840C00A40EA415012
:101DB00021F0004128BF5FEA500550F1000044EBDC
:101DC000D12137E045EAC323DB0A45EAC121C90A2C
:101DD000B6F120050EDD42EA0242120CC5F12006E2
:101DE00003FA06F6EB4042EA06056D42984161F1BE
:101DF00000010DE062FA06F5F240554063FA06FC78
:101E000082EA0C02F3405A406D42904161EB0301BB
:101E100011F4801F05D1641E620502D06D0040419F
:101E2000494121F48011430875F1004350F100004D
:101E300041EB045170BC70471CEB410F15D223F0ED
:101E4000004352EA43060BD04FEA4C0CBCEB410F67
:101E500004D80C0D661E342EB7DDEBE7801A9941CD
:101E600050EA410608BF0021E4E708BF1CEB430F1E
:101E700028BF6FF00001DDE7F0B540F2FF7581EAA1
:101E8000030C0CF0004C15EA11541DBF15EA135752
:101E9000AC42AF42E5E0BC41C1F31301C3F313030D
:101EA000801A994143F4801304D2641E40004941D2
:101EB00080185941C90241EA5051B1FBF3F603FBC6
:101EC0001611A2FB0675D7EBC020A94102D2761EDF
:101ED00080185941C90241EA5051B1FBF3FE03FB9E
:101EE0001E11A2FB0E75D7EBC020A94103D2AEF1A3
:101EF000010E80185941890241EA9051760546EA5F
:101F00008E2EB1FBF3F603FB1611A2FB0675D7EB81
:101F10008020A94102D2761E80185941C90241EAA7
:101F200050514EEA060EB1FBF3F603FB1611A2FB6D
:101F30000675D7EBC020A94102D2761E8018594100
:101F4000C90241EA5051B1FBF3F703FB1711A2FBA1
:101F50000735D3EBC020A94167F100070CBF004251
:101F600047F0010766F3D5274FEA1E31B80814F58C
:101F7000806412DDBD0775F1004250EB0E5051EB4D
:101F8000045111F5801F5CBF41EA0C01F0BD4CF01B
:101F90007F6141F0E0410020F0BDBD076D0840EADF
:101FA0000E5041F48011D4F10104B4F120060ADA94
:101FB000C4F120060200E04001FA06F3E1401843B4
:101FC000B24015430EE0342C13DCC6F1200445EA80
:101FD00040056D0820FA06F2154321FA06F0A140EB
:101FE0000D43002175F1004250F1000051EB0C014E
:101FF000F0BD00205FEA0C01F0BDCFB992185B4143
:10200000B3FA83F704BFB2FA82F6BF190B3FB7F1F8
:1020100020062FBF02FA06F3BB40C7F1200622FAC2
:1020200006F638BF3343BA401CB1E419641E33E7E7
:102030007F4231F00041B1FA81F404BFB0FA80F67A
:10204000A4190B3CB4F120062FBF00FA06F1A14001
:10205000C4F1200620FA06F638BF3143A0403C1BED
:102060001AE7AC421ABF05EA1357AF4212E050EA32
:1020700041061CBF52EA4306BFE750EA410730461B
:1020800061461CBF41EA0551F0BD52EA430C08BF4E
:10209000C143F0BD00204FF4001616EB410F98BF6E
:1020A00016EB430F08BF16EB410F24BFC14305E0F9
:1020B00016EB430F0CBF61464CEA0551F0BD000022
:1020C00070B44FF0004591EA030C44BF6B40FFF73A
:1020D0001DBE00BF841A71EB030603D2001BB14181
:1020E000121973414FF4001C1CEB410F34BF7CEB01
:1020F000430443E00C0DA4EB1356352E50DC45EAA7
:10210000C323DB0A45EAC121C912B6F120050DDD62
:1021100063FA05F6EB4086EA0305124218BF45F064
:102120000105C01851F100010CD213E062FA06F566
:10213000F2405540F3415A40B340F3405A408018B2
:10214000594107D349085FEA30005FEA350528BFE7
:1021500045F0010501F58011420875F1004250F18A
:10216000000041EB045170BC4FF4001C1CEB410F0C
:1021700038BF70470020090D090570471CEB410F5F
:1021800010D252EA43060BD0BCEB410F05D80C0D20
:10219000AB43661E342EB5DD02E0AB4380185941D7
:1021A00070BC704770BC7047F446400D40EAC120D7
:1021B000490006D200F00EF8004248BF6FF0004020
:1021C000604700F007F84FF0004188428CBF084696
:1021D0004042604740F00040490DA1F58061491C34
:1021E00005D4D1F11F0154BFC840C01770474FF04C
:1021F000000070474FF4001C1CEB410F94BF1CEB18
:10220000430F09E041EA030C50EA4C0C52EA0C0C73
:1022100003D28B4208BF8242704714BF994290425A
:102220007047000051EC100B00B500F003F841ECD2
:10223000100B00BD40F2FF7C0B0D4DD0634566D204
:1022400030B421EA035141F4801103F2FD3C5FEA0E
:102250005C0C01D300184941890041EA907180006B
:102260004FF440140023E202D50AB1F5100107D45F
:102270006D081DD2091B641900184941491BF7D587
:102280006D080AD20919641B00184941491BEFD592
:102290006D08F7D301E0520817D0C01861419B1AAE
:1022A000AC4100184941801AA941F4D452080AD01F
:1022B000C01AA1419B186C4100184941801AA941DC
:1022C000E9D45208F4D15B1C6C4161084FEA330039
:1022D00001EB0C5130BC704750EA0103FBD030B425
:1022E000B1FA81F311B9B0FA80F41B190B3BB3F1C9
:1022F00020042FBF00FA04F19940C3F1200420FA12
:1023000004F438BF21439840D3F101039DE76345AE
:10231000E1D011F5801FDED850EA4101DBD0D9436E
:1023200000F086BD13B582B09DED020B8DED000B64
:10233000DDE90023C3F30A5140F2FF72914209D054
:10234000002904BF190350EA113012D1DDE902015E
:1023500004B010BD190350EA1130F7D103980028DA
:102360004CBF9FED170B9FED180B51EC100B04B0F9
:1023700010BDDDE902010022002300F05FFD3DBF3A
:1023800081F00041CDE9020108240024DDE90201C9
:1023900001220F4BFFF72EFF09D81946DDE9022372
:1023A0000020FFF769FDCDE9020184F00204DDE9B8
:1023B0000201224604B0BDE8104000F059BD000003
:1023C000182D4454FB21F9BF182D4454FB21F93F2B
:1023D0000000F03F80B551EC100BFFF7A3FF41EC7C
:1023E000100B01BDF0B400210022002302240025BF
:1023F0000226DFF84C713F6817F00C0739000F0018
:10240000002F04D0042F06D0082F08D03CE0DFF8BE
:10241000387107603BE0DFF83471076037E0DFF8C0
:1024200024713F68C7F380573D00DFF818713F689B
:1024300017F03F073E00002D0DD0DFF81071B7FBFD
:10244000F6F7DFF800C1DCF800C0CCF3881C0CFB09
:1024500007F73B000CE0DFF8F070B7FBF6F7DFF8AA
:10246000E4C0DCF800C0CCF3881C0CFB07F73B0091
:10247000DFF8D0703F68C7F301477F1C7F003C0046
:10248000B3FBF4F7076002E0DFF8BC700760DFF829
:10249000B0703F6817F0F00739000909DFF8B07035
:1024A000CF5D3A000768D7404760DFF894703F6817
:1024B00017F4E0573900890ADFF89470CF5D3A00CD
:1024C0004768D74087601E4F3F6817F46047390060
:1024D000490BDFF87C70CF5D3A004768D740C76092
:1024E000F0BC7047C9B2002905D01A4A12680243ED
:1024F000184B1A6004E0174A12688243154B1A60A1
:102500007047C9B2002905D0134A12680243124B22
:102510001A6004E0104A126882430F4B1A60704739
:10252000C9B2002905D00D4A126802430B4B1A604C
:1025300004E00A4A12688243084B1A6070470000A0
:1025400008380240043802400024F40000127A00E7
:102550000000002030380240403802404438024039
:10256000F0B400220023002400252A00102A4AD2B9
:10257000012595402B000D681D402C009C4240D148
:10258000056803261700FFB27F00BE40B543056013
:1025900005680E791700FFB27F00BE403543056025
:1025A0000D79012D02D00D79022D1AD185680326EF
:1025B0001700FFB27F00BE40B543856085684E7945
:1025C0001700FFB27F00BE40354385604568012695
:1025D0009640B543456045688E799640B6B235431E
:1025E0004560C56803261700FFB27F00BE40B543B3
:1025F000C560C568CE791700FFB27F00BE40354385
:10260000C560521CB2E7F0BC7047F0B40023002450
:10261000D2B211F00705EDB2AD0012FA05F52B00AC
:1026200089B2CD1010EB850589B2CE1010EB86066D
:10263000366A0F2711F0070C5FFA8CFC5FEA8C0CEE
:1026400017FA0CF7BE432E6289B2CD1010EB850548
:102650002D6A1D432C0089B2CD1010EB85052C622C
:10266000F0BC7047002203881A00A64B98420ED097
:10267000AA4B98420BD0B0F1804F08D0A24B9842A1
:1026800005D0A24B984202D0A14B984204D14FF6FC
:102690008F731A404B881A439E4B984207D09E4B2B
:1026A000984204D04FF6FF431A400B891A43028028
:1026B0004B68C3620B880385924B984202D0974BBC
:1026C000984201D18B7A0386012383827047C9B275
:1026D000002904D0028852F08002028004E00288BF
:1026E0004FF67F731A4002807047C9B2002904D0A8
:1026F000028852F00102028004E002884FF6FE7365
:102700001A400280704770B4002300240022058C18
:102710004FF6FE7635400584058C2C0085882A000E
:10272000058B2B004FF68F752B404FF6FC752B4019
:102730000D882B434FF6FD752C408D892C434D8819
:102740002C43704DA84202D0744DA84213D14FF6CD
:10275000F7752C40CD892C434FF6FB752C408D88A6
:102760002C434FF6FF652A404FF6FF552A400D8A4D
:102770002A434D8A2A43828003838D6845630484FB
:1027800070BC704770B4002300240022058C4FF603
:10279000EF7635400584058C2C0085882A00058B52
:1027A0002B0048F6FF752B404FF6FF452B400D8858
:1027B00053EA05234FF6DF752C408D8954EA051442
:1027C0004D8854EA05144F4DA84202D0534DA842FB
:1027D00017D14FF67F752C40CD8954EA05144FF67A
:1027E000BF752C408D8854EA05144FF6FF352A40FA
:1027F0004FF2FF752A400D8A52EA85024D8A52EA4D
:102800008502828003838D688563048470BC704771
:1028100070B4002300240022058C4FF6FF6635407B
:102820000584058C2C0085882A00858B2B004FF6AB
:102830008F752B404FF6FC752B400D882B434FF6C0
:10284000FF552C408D8954EA05244D8854EA05240F
:102850002C4DA84202D0314DA84217D14FF2FF753E
:102860002C40CD8954EA05244FF6FF352C408D8845
:1028700054EA05244EF6FF752A404DF6FF752A40AE
:102880000D8A52EA05124D8A52EA0512828083832C
:102890008D68C563048470BC704770B40023002445
:1028A0000022058C4EF6FF7635400584058C2C0001
:1028B00085882A00858B2B0048F6FF752B404FF644
:1028C000FF452B400D8853EA05234DF6FF752C403C
:1028D0008D8954EA05344D8854EA0534094DA842DF
:1028E00002D00E4DA84205D14BF6FF752A400D8A45
:1028F00052EA8512828083838D680564048470BCEB
:102900007047000000000140000400400008004043
:10291000000C004000100040001400400004014082
:102920000022038B1A004FF6F7731A400A43028302
:1029300070470022038B1A004FF2FF731A4052EACD
:102940000122028370470022838B1A004FF6F7732F
:102950001A400A43828370470022838B1A004FF289
:10296000FF731A4052EA0122828370470A884B881B
:102970001A438B881A43CB881A430B891A434B8915
:102980001A438B891A43A0F844207047C9B2002922
:1029900006D0B0F8442052F40042A0F8442005E0EC
:1029A000B0F844205204520CA0F8442070470000B4
:1029B0002DE9F04385B004000D005FF0000900260A
:1029C00000275FF00008A8890028208A814639F492
:1029D0004059E88850EA0909A4F81090A089814676
:1029E000314810EA0909A8882989084369890843F8
:1029F00050EA0909A4F80C90A08A814639F440797C
:102A0000A88950EA0909A4F8149000A8FFF7EAFC85
:102A10002348844202D02348844202D1039806000E
:102A200001E002980600A089000408D5192000FBE7
:102A300006F029684900B0FBF1F0070007E0192013
:102A400000FB06F029688900B0FBF1F00700642064
:102A5000B7FBF0F0000181465FEA1910642101FB29
:102A600010708046A08900040AD55FEAC8003230A1
:102A70006421B0FBF1F010F0070050EA090909E009
:102A80005FEA081032306421B0FBF1F010F00F0063
:102A900050EA0909A4F8089005B0BDE8F0830000E9
:102AA0000010014000140140F3E9FFFFC9B2002902
:102AB00004D0828952F40052828104E082894DF66A
:102AC000FF731A4082817047F0B400230024002570
:102AD000002689B240F66A17B94206000F00FFB21D
:102AE0007F09FFB23B0089B211F01F073C000127AC
:102AF000A7403D00012B01D10C3604E0022B01D18F
:102B0000103600E01436D2B2002A03D037682F43C3
:102B1000376002E03768AF433760F0BC704770B48D
:102B20000200002300250024002089B240F66A1626
:102B3000B1420E00F6B27609F6B2340089B211F055
:102B40001F063500012616FA05F5012C02D19689DB
:102B5000354006E0022C02D1168A354001E0968A03
:102B6000354089B20E0AB6B23300012616FA03F3D5
:102B700016883340002D04D0002B02D001263000EF
:102B800001E000263000C0B270BC7047F0B40023F2
:102B900000210F22C478002C21D0174C246814F493
:102BA000E064D4F5E064240A2300D3F10404210096
:102BB000D2B21A4144788C402300847814402343D5
:102BC0001B0104780D4D6355047864110C4D0126EA
:102BD000077817F01F07BE4045F8246009E0047825
:102BE0006411084D0126077817F01F07BE4045F80D
:102BF0002460F0BC704700000CED00E000E400E051
:102C000000E100E080E100E070B504000D00160076
:102C100032002900200000F023FA200070BD0000DF
:102C20002DE9F04385B004000D005FF00009002697
:102C30000427DFF8E080A08881464FF6C07010EAD4
:102C4000090900A8FFF7CEFB029880463248B8FB7E
:102C5000F0F0060056EA0909A4F8049020884FF61F
:102C6000FE71084020800020814628682B49884258
:102C70000ED228684000B8FBF0F00700BFB2042F66
:102C800001DA0420070057EA0909701C208426E0B5
:102C9000E8884BF6FF71884206D128680321484333
:102CA000B8FBF0F0070007E0286819214843B8FB9B
:102CB000F0F0070057F48047380501D157F00107BD
:102CC00057F4004050EA0909B6B24FF4967000FB81
:102CD00006F04FF47A7190FBF1F0401C2084A4F8C8
:102CE0001C90208850F001002080208881464FF6FB
:102CF000F53010EA0909A8886989084350EA0909EA
:102D0000A4F80090A88929890843208105B0BDE86E
:102D1000F083000000127A0040420F00A1860100FB
:102D2000C9B2002904D0028852F00102028004E0F6
:102D300002884FF6FE731A4002807047C9B200291C
:102D400004D0028852F48072028004E002884FF6B8
:102D5000FF631A4002807047C9B2002904D002887C
:102D600052F40072028004E002884FF6FF531A40CA
:102D700002807047D2B2002A02D051F0010101E076
:102D800011F0FE01C9B201827047C9B2002904D016
:102D9000028852F48062028004E002884FF6FF331A
:102DA0001A4002807047C9B201827047008AC0B2DF
:102DB000704770B402000023002400250020968A8A
:102DC0003400168B35002D0455EA04063602360A07
:102DD000330011EA03068E4202D10126300001E0E1
:102DE00000263000C0B270BC704782B002000020E4
:102DF000002301930023009300920B0F019309021B
:102E0000090A019B002B03D0009B1433009303E0BD
:102E1000090C009B18330093009B1B680B4202D0E7
:102E20000123180001E000231800C0B202B070476F
:102E30001FB500F051F9212101601FBD4FF4001CA6
:102E40001CEB410F94BF1CEB430F09E041EA030C5C
:102E500050EA4C0C52EA0C0C03D2994208BF904243
:102E6000704714BF8B428242704700000000000090
:102E7000D0B514462DED048B534A544BFFF7BAF9E5
:102E800041EC180B1DD89FED529B53EC182B51ECC5
:102E9000190BFEF7F9FD00224F4BFFF711F906461B
:102EA0000F4653EC182B51EC190BFFF709F90246AA
:102EB0000B4630463946FEF7DFFF41EC180B44F075
:102EC000010451EC180B0022444BFFF7B7FF05D368
:102ED00001224FF07953FFF78DF951D853EC182B9D
:102EE000FEF7D2FD41EC190B53EC182BFEF7CCFD8D
:102EF00006460F4653EC192B39483A49FEF7C4FDF4
:102F0000394A3A4BFFF7DCF853EC192BFEF7BCFDBE
:102F1000374A384BFFF7D4F832463B46FEF7B4FD4C
:102F200053EC182BFFF7CCF806460F4653EC192B41
:102F300031483249FEF7A8FD314A324BFFF7C0F85D
:102F400053EC192BFEF7A0FD2F4A304BFFF7B8F8D2
:102F500053EC192BFEF798FD2D4A2E4BFFF7B0F8D6
:102F600053EC192BFEF790FD2B4B0022FFF7A8F82E
:102F700002460B4630463946FEF77EFF41EC180B01
:102F8000A00705D551EC180B81F0004141EC180B5E
:102F900014F007020BD00FF2880303EBC20251ECCE
:102FA000180B53681268FFF78BF841EC180B2007D9
:102FB00005D551EC180B81F0004141EC180B51EC98
:102FC000180BBDEC048BD0BD57CD9E5E1426D13FAF
:102FD000AA4C58E87AB6FB3F0000F0BF000040BEA4
:102FE000845D57134B57B03FB2934C19ED5EE43FED
:102FF000BEDE02B90240F83FDE39028FC7C0743F1F
:103000008AAB1283000CC83F24D7E508B6D8F03F3E
:103010000F34580E5895FD3F0000F03F00000000AF
:10302000000000000000000066732D3852C1E03F30
:10303000182D4454FB21F93F66732D3852C1F03FDF
:10304000182D4454FB21F93F66732D3852C10040BE
:10305000182D4454FB2109403FD038C6A6F1044046
:1030600062B38B0708D0521E11F8013B00F8013BF8
:1030700000F024808B07F6D1830740F0208000BF4A
:10308000103A07D330B4B1E83810103AA0E838103D
:10309000F9D230BC530724BFB1E80810A0E80810EB
:1030A00044BF51F8043B40F8043BD20724BF31F839
:1030B000022B20F8022B44BF0B7803707047083AAC
:1030C00007D3B1E80810083A40F8043B40F804CBB5
:1030D000F7D25307E4E70000014800F003B800000E
:1030E000280000207047000080B54E48006850F06E
:1030F00001004C4908604C480021016049480068C3
:103100004A4908404749086049484A4901604548DA
:10311000006830F48020434908604748002101607E
:1031200000F005F845485FF00061016001BD82B024
:1031300000200190002000903A48006850F4803050
:10314000384908603748006810F400300090019852
:10315000401C01900098002803D10198B0F5A06FA1
:10316000F0D130480068800302D50120009001E0D2
:1031700000200090009801283ED13148006850F0AE
:1031800080502F4908602F48006850F480402D4936
:10319000086025482449096801602348006850F404
:1031A0000040214908602048006850F4A0501E49A2
:1031B00008601F48244901601A48006850F0807078
:1031C00018490860174800688001FBD51F4840F285
:1031D0000561016014480068800880001249086099
:1031E0001148006850F002000F4908600E4800685E
:1031F00010F00C000828F9D10B48006830F40000EA
:10320000094908601248134901600648006850F0F7
:10321000806004490860034800680001FBD502B0E3
:10322000704700000038024008380240FFFFF6FEF9
:1032300004380240103000240C38024008ED00E051
:10324000403802400070004008544007003C0240F3
:1032500084380240003000507047FEE7FEE7FEE78A
:10326000FEE770477047704718480088411C174AAE
:10327000118080B2002806D0012805D042F20F71DB
:10328000884202D021E020E01FE0104800210180A8
:103290000F4800783B2803DA0D480078401C00E016
:1032A00000200B4908700A480078002809D1094815
:1032B00000783B2803DA07480078401C00E0002033
:1032C00001E004480078034908707047BA01002003
:1032D000BE010020BF01002010B507497944183114
:1032E000064C7C44163404E00A68081D51188847CF
:1032F0000146A142F8D110BD0800000028000000DE
:103300002BE9FFFF940100003000002000000000C6
:103310004BE7FFFF30000000F0010000000000203C
:10332000000000004EF68851CEF20001086840F41B
:10333000700008604FF00070E1EE100A7047000066
:1033400000F009F8002801D0FFF7C6FF0020FCF7C5
:103350004BFF00F002F80120704700F001B80000B8
:103360000746384600F002F8FBE7000080B5C0468B
:10337000C046024A11001820ABBEFBE7260002003F
:103380000148804701480047E930000891330008B0
:10339000C046C046FFF7C6FFFFF7D2FFFFF75CBF8E
:1033A000FFF75BBFFFF75ABFFFF759BFFFF758BFE3
:1033B000FFF757BFFFF756BFFFF755BFFFF754BFE3
:1033C000FFF7FEBFFFF7FEBFFFF7FEBFFFF7FEBF31
:1033D000FFF7FEBFFFF7FEBFFFF7FEBFFFF7FEBF21
:1033E000FFF7FEBFFFF7FEBFFFF7FEBFFFF7FEBF11
:1033F000FFF7FEBFFFF7FEBFFFF7FEBFFFF7FEBF01
:10340000FFF7FEBFFFF7FEBFFFF7FEBFFFF7FEBFF0
:10341000FFF7FEBFFFF7FEBFFFF7FEBFFFF7FEBFE0
:10342000FFF7FEBFFFF7FEBFFFF7FEBFFFF7FEBFD0
:10343000FFF7FEBFFFF7FEBFFFF7FEBFFFF7FEBFC0
:10344000FFF7FEBFFFF7FEBFFFF7FEBFFFF7FEBFB0
:10345000FFF7FEBFFEF744B8FFF7FEBFFFF7FEBF62
:10346000FFF7FEBFFFF7FEBFFFF7FEBFFFF7FEBF90
:10347000FFF7FEBFFFF7FEBFFFF7FEBFFFF7FEBF80
:10348000FFF7FEBFFFF7FEBFFFF7FEBFFFF7FEBF70
:10349000FFF7FEBFFFF7FEBFFFF7FEBFFFF7FEBF60
:1034A000FFF7FEBFFFF7FEBFFFF7FEBFFFF7FEBF50
:1034B000FFF7FEBFFFF7FEBFFFF7FEBFFFF7FEBF40
:1034C000FFF7FEBFFFF7FEBFFFF7FEBFFFF7FEBF30
:1034D000FFF7FEBFFFF7FEBFFFF7FEBFFFF7FEBF20
:1034E000FFF7FEBFFFF7FEBFFFF7FEBFFFF7FEBF10
:1034F000FFF7FEBFFFF7FEBFFFF7FEBFFFF7FEBF00
:10350000FFF7FEBFFFF7FEBF00000000010203044B
:103510000102030406070809103EF83CCDCCCC3E5E
:10352000CDCC4C3E00007A440000A041007A030A52
:08353000000000000100000092
:04000005080033912B
:00000001FF
