:020000040800F2
:10000000B00A002075510008CD4D0008CF4D000802
:10001000D14D0008D34D0008D54D00080000000068
:10002000000000000000000000000000D74D0008A4
:10003000D94D000800000000DB4D0008DD4D000830
:10004000B5510008B9510008BD510008C151000860
:10005000C5510008C9510008CD510008D151000810
:10006000D5510008D9510008DD510008E1510008C0
:10007000E5510008E9510008ED510008F151000870
:10008000F5510008F9510008FD510008015200081F
:1000900005520008095200080D52000811520008CC
:1000A00015520008195200081D520008215200087C
:1000B00025520008295200082D520008315200082C
:1000C00035520008395200083D52000841520008DC
:1000D00045520008A11400084D5200085152000872
:1000E00055520008595200085D520008615200083C
:1000F00065520008695200086D52000871520008EC
:1001000075520008795200087D520008815200089B
:1001100085520008895200088D520008915200084B
:1001200095520008995200089D520008A1520008FB
:10013000A5520008A9520008AD520008B1520008AB
:10014000B5520008B9520008BD520008C15200085B
:10015000C5520008C9520008CD520008D15200080B
:10016000D5520008D9520008DD520008E1520008BB
:10017000E5520008E9520008ED520008F15200086B
:10018000F5520008F952000840B2002809D540B2E3
:1001900010F00F02DFF8EC36D2180B0102F8043C25
:1001A00004E040B2DFF8A42A0B018354704710B575
:1001B0000400B4F1807F01D3012013E02002000A83
:1001C000401EDFF8C41608600F215FF0FF30FFF714
:1001D000DBFFDFF8440A00210160DFF8080C07218B
:1001E0000160002010BD00002DE9F84F2DED028BBD
:1001F00084B0DFF8280A006842F21071B0FBF1F019
:10020000FFF7D5FF00200021CDE9020100208DF885
:1002100000000024002600250027F6B2142E06DA7E
:10022000F6B2DFF82C0A00213154761CF5E701F014
:10023000ADF800F05FFF00F01CFF642000F0A0FFAD
:10024000642001F03DF801F0CCFA01F0C3F901F0AF
:10025000CFF9012806D100F00DFD00F087FE01F076
:10026000B5F800E0FEE7DFF8EC090088DFF8E819F0
:1002700009786422514311FA80F0DFF8E019097817
:1002800041F2707202FB01000700DDE90201381A39
:100290008DF80000FFB238000021CDE90201DFF83F
:1002A000480B01F0E9F9DFF8400BC088DFF8B0191E
:1002B0000988401ADFF8301BC880DFF82C0B008952
:1002C000DFF8A0190988401ADFF81C1B0881DFF845
:1002D000180B4089DFF890190988401ADFF8081BCD
:1002E000488100219DF80000DFF8FC2AB2F90620C1
:1002F00000EE102AF8EEC00ADFF8EC2AB2F900206E
:1003000000EE102AB8EEC00A00F0C0FAF0EE400A83
:100310000020B0EE608A8046DFF85009407800EE99
:10032000100AB8EE400A10EE100A01F04BFB002252
:100330005FF0804301F07EFB01F04EFC00EE100AFE
:100340004046F0EE480A00F0C7F9DFF8240980EDD6
:10035000000A01219DF80000DFF88C2AB2F908207C
:1003600000EE102AF8EEC00ADFF87C2AB2F902206B
:1003700000EE102AB8EEC00A00F088FAF0EE400A4B
:100380000120B0EE608A8046DFF8E008807800EE59
:10039000100AB8EE400A10EE100A01F013FB00221A
:1003A0005FF0804301F046FB01F016FC00EE100AFE
:1003B0004046F0EE480A00F08FF9DFF8B40880ED0F
:1003C000010A02219DF80000DFF81C2AB2F90A2078
:1003D00000EE102AF8EEC00ADFF80C2AB2F9042069
:1003E00000EE102AB8EEC00A00F050FAF0EE400A13
:1003F00002209FED9F0A00F06FF9DFF8740880ED8E
:10040000020ADFF8680800782428C0F29880DFF834
:100410005C08007801F032FC82468B46DFF8500819
:10042000006801F0CFFA02000B0000205FF080416D
:1004300001F032FC80468946DFF83408406801F05C
:10044000C1FA42464B4601F0F5FA52465B4601F0CE
:10045000F1FA01F0C1FB00EE100A00F0E1FBDFF859
:100460008C190870DFF80408007801F007FC824658
:100470008B46DFF8FC07006801F0A4FA8046894645
:10048000DFF8EC07406801F09DFA02000B00002045
:100490005FF0804101F000FC42464B4601F0CAFA91
:1004A00052465B4601F0C6FA01F096FB00EE100AD8
:1004B00000F0B6FBDFF834194870DFF8B0070078B9
:1004C00000EE100AB8EE400ADFF8A407D0ED000AEB
:1004D000DFF89C0790ED011A60EE810A20EE200AF9
:1004E00000F09EFBDFF804198870DFF880070078C1
:1004F00001F0C4FB80468946DFF8740790ED000ADE
:10050000DFF86C07D0ED010A20EE200A10EE100A89
:1005100001F058FA02000B0000205FF0804101F06A
:10052000BBFB42464B4601F085FA01F055FB00EE5D
:10053000100A00F075FBDFF8B418C87008E000205E
:10054000042805DADFF8A41800224254401CF7E71B
:10055000DFF8980890F9001089B2012000F08AF8BD
:10056000DFF8880890F9011089B2022000F082F8C3
:10057000DFF8780890F9021089B2032000F07AF8C9
:10058000DFF8680890F9031089B2042000F072F8CF
:100590002000441CC0B2022190FBF1F202FB1102C8
:1005A000002A05D0DFF8B4094FF48051018004E03F
:1005B000DFF8AC094FF480510180DFF8A4094FF453
:1005C00000410180DFF89C09006800040CD5DFF8C9
:1005D0008C094FF400510180DFF88C090078DFF8B6
:1005E0007016012242540BE0DFF874094FF40051F9
:1005F0000180DFF874090078DFF8541600224254B5
:10060000DFF864090078401CDFF85C190870DFF837
:1006100058090078152803DBDFF84C090021017028
:100620000020050000200600F6B2142E06DAF6B20D
:10063000DFF81C06305C4519761CF5E7EDB2142D89
:1006400009DADFF8AC0A007800280DD0DFF8A00A3C
:100650000021017008E0DFF8980A0078002803D133
:10066000DFF88C0A01210170642000F0ABFFFAE58D
:100670000000000080B2012808D1DFF8E82A89B222
:100680001160DFF8E42A89B2116022E080B202280A
:1006900008D1DFF8D82A89B21160DFF8D42A89B2EC
:1006A000116016E080B2032808D1DFF8C82A89B2A9
:1006B0001160DFF8C42A89B211600AE080B2042810
:1006C00007D1DFF8B82A89B21160DFF8F42C89B2BB
:1006D000116070470000000010B52DED0A8BB0EEE0
:1006E00040AAB0EE608A04003AEE480AF0EE40AA52
:1006F000E4B2DFF8B80B10EB840090ED000A30EEA6
:100700002A0AE4B2DFF8A40B10EB840080ED000AA3
:100710001AEE900A01F056F931F0004141EC190B44
:10072000DFF88C0B006801F04DF953EC192B01F048
:1007300073FB0AD89FED510AB0EE40BAE4B2DFF87D
:100740006C0B002140F824103DE0DFF8680B90EDC1
:10075000000AB0EE40BAE4B2DFF8500B10EB8400B0
:1007600090ED000ADFF8500BD0ED000AB4EE600AFD
:10077000F1EE10FA08DBE4B2DFF8300BDFF8381BDB
:10078000096840F824101EE0DFF82C0B90ED000AF9
:10079000B1EE400AE4B2DFF8140B10EB8400D0EDA8
:1007A000000AB4EE600AF1EE10FA0CDBE4B2DFF8F6
:1007B000FC0A10EB8400DFF8001B91ED000AB1EE9B
:1007C000400A80ED000ADFF8F40A90ED000A2AEEF4
:1007D000800AF0EE40BAE4B2DFF8D00A10EB8400F1
:1007E00090ED000A20EE0B0AB0EE40CAE4B2DFF84A
:1007F000940B10EB840090ED000A3AEEC00ADFF88B
:10080000880BD0ED000A20EE200AF0EE40CAE4B2D8
:10081000DFF8700B10EB8400C0ED00AA3BEE8C0AF1
:1008200030EE2C0A10EE100A01F0CCF80022DFF8AE
:10083000943B01F009FB0022DFF88C3B01F028FC1F
:1008400001F0CAF908EE900A9FED0D0AF4EE408A15
:10085000F1EE10FA04DBB0EE000AF0EE408A08E098
:10086000F5EE408AF1EE10FA03D59FED040AF0EEA2
:10087000408AB0EE680ABDEC0A8B10BD0000000093
:100880000100004018ED00E014E000E02DE9F8431D
:100890002DED048BF0EE408AB0EE608A07000E006A
:1008A000FFB200EE107AB8EE409AF6B2DFF8D80B3D
:1008B00010EB860090ED000A38EE400AF6B2DFF841
:1008C000380C10EB8600D0ED000A40EE090AF6B2B3
:1008D000DFF8240C10EB8600C0ED000AF6B2DFF85A
:1008E000AC0B50F8260001F06DF880468946F6B250
:1008F000DFF89C0B10EB860090ED000AF6B2DFF8F3
:10090000940B10EB8600D0ED000A30EE200AF1EED9
:10091000490A20EE800A10EE100A01F053F8040094
:100920000D0019EE100A01F04DF8DFF86C2BDFF81E
:100930006C3B01F07FF822002B0001F0A9FB42463E
:100940004B4601F0A5FB01F047F9F6B2DFF83C1B7E
:1009500041F82600B1EE490AF6B2DFF8A00B10EB21
:100960008600D0ED000AF6B2DFF8280B10EB860007
:1009700090ED001A00EE201AF6B2DFF8180B10EB1B
:10098000860080ED001AB1EE490AF6B2DFF86C0B72
:1009900010EB8600D0ED000AF6B2DFF8F40A10EB97
:1009A000860090ED001A00EE201AF6B2DFF8E00A99
:1009B00010EB860080ED001AF6B2DFF8400B50F81D
:1009C000260000F0FFFF04000D0019EE100A00F0F1
:1009D000F9FFDFF82C2BDFF82C3B01F02BF822007D
:1009E0002B0001F055FB01F0F7F8F6B2DFF80C1B15
:1009F00041F82600F6B2DFF8000B10EB860090ED10
:100A0000000A38EEC00AF6B2DFF8FC0A10EB8600E6
:100A100080ED000AF6B2DFF8740A50F8260000F004
:100A2000D1FFDFF8E82ADFF8E83A01F031FB01F006
:100A3000D3F8F6B2DFF8DC1A41F82600F6B2DFF898
:100A40004C0A10EB860090ED000AF6B2DFF8C40AFB
:100A500010EB8600D0ED000A80EE200AF6B2DFF837
:100A6000B80A10EB860080ED000AF6B2DFF8200A23
:100A700010EB860090ED000AF6B2DFF8980A10EB52
:100A80008600D0ED000A80EE200AF6B2DFF88C0A6C
:100A900010EB860080ED000AF6B2DFF87C0A10EB5E
:100AA000860090ED000AF6B2DFF85C0A10EB8600D3
:100AB000D0ED000AF6B2DFF8400A10EB860090EDA8
:100AC000001A00EE201AF6B2DFF82C0A10EB8600AE
:100AD00080ED001AF6B2DFF8440A10EB860090EDC4
:100AE000000AF6B2DFF8200A10EB8600D0ED000A0B
:100AF000F6B2DFF8940910EB860090ED001A00EED4
:100B0000201AF6B2DFF8800910EB860080ED001A9B
:100B1000F6B2DFF8040A10EB860090ED000AF6B298
:100B2000DFF8680910EB8600D0ED000AF6B2DFF8B6
:100B30005C0910EB860090ED001A00EE601AF6B228
:100B4000DFF8480910EB860080ED001AF6B2DFF8F6
:100B5000C80910EB860090ED000AF6B2DFF8340900
:100B600010EB8600D0ED000AF6B2DFF8280910EB92
:100B7000860090ED001A00EE601AF6B2DFF8140954
:100B800010EB860080ED001AF6B2DFF8900910EB4A
:100B9000860090ED000AF6B2DFF8F00810EB860050
:100BA000D0ED000AF6B2DFF8E80810EB860090ED11
:100BB000001A00EE601AF6B2DFF8D40810EB8600D7
:100BC00080ED001AF6B2DFF8540910EB860090EDC4
:100BD000000AF6B2DFF8BC0810EB8600D0ED000A80
:100BE000F6B2DFF8180910EB860090ED001A00EE5F
:100BF000601AF6B2DFF8040910EB860080ED001AE7
:100C0000F6B2DFF8F40810EB860090ED000ABDECB8
:100C1000048BBDE8F183000018E000E0040200202E
:100C2000B5EE400AF1EE10FA01D500200DE0DFED3F
:100C3000CA0AB4EE600AF1EE10FA01DBFF2003E00D
:100C4000BDEEC00A10EE100AC0B2704700E400E02A
:100C500074050020A2060020A6060020A70600209A
:100C600096060020980600209A06002084060020A0
:100C7000CC05002010B5002400200400B4F57A7FD4
:100C80003DDA594800F0F8FCDFF89408008856492E
:100C9000C9880818DFF888180880DFF888080088F5
:100CA000514909890818DFF87C180880DFF87808AE
:100CB00000884D4949890818DFF86C180880DFF86A
:100CC0006C080088484909880818DFF8601808800F
:100CD000DFF85C080088444949880818DFF8501894
:100CE0000880DFF8500800883F4989880818DFF835
:100CF00044180880642000F065FC641CBEE7DFF83F
:100D00002008B0F900004FF47A7190FBF1F0DFF8A1
:100D100010180880DFF80C08B0F900004FF47A7161
:100D200090FBF1F0DFF8FC170880DFF8FC07B0F962
:100D300000004FF47A7190FBF1F0DFF8EC170880B7
:100D4000DFF8E807B0F900004FF47A7190FBF1F09A
:100D5000DFF8D8170880DFF8D807B0F900004FF4A3
:100D60007A7190FBF1F0DFF8C8170880DFF8C4074C
:100D7000B0F900004FF47A7190FBF1F0DFF8B4178E
:100D80000880DFF89C07B0F90010DFF8AC0701F02D
:100D9000F3F9DFF89007B0F90010DFF8A00701F0D1
:100DA000EBF9DFF88407B0F90010DFF8940701F0E1
:100DB000E3F9DFF87807B0F90010DFF8880701F0F1
:100DC000DBF9DFF86C07B0F90010DFF87C0701F001
:100DD000D3F9DFF86007B0F90010DFF8700701F011
:100DE000CBF910BD10E000E09C0500208806002033
:100DF000F8B52DED048B04000D00DFF85407B0F9B1
:100E0000040000EE100AB8EEC00A10EE100A00F05E
:100E1000D9FD41EC180BDFF83807B0F9000000EEFF
:100E2000100AB8EEC00A10EE100A00F0CBFD41EC3B
:100E3000190B53EC182B51EC180B00F0FBFD0600BE
:100E40000F0053EC192B51EC190B00F0F3FD32009D
:100E50003B0001F01DF941EC100B01F09FF9B0EEE1
:100E6000408AF0EE608ADFF8E806B0F9020000EE92
:100E7000100AB8EEC00A10EE100A00F0A3FD53EC01
:100E8000182B00F0E1FF41EC100B01F05FFA53EC7E
:100E9000102BDFF8C006DFF8C01600F0CBFD00F025
:100EA0009BFE2060DFF8A806B0F9040000EE100AEF
:100EB000B8EEC00A10EE100A00F084FD41EC180BE9
:100EC000DFF88C06B0F9020000EE100AB8EEC00A96
:100ED00010EE100A00F076FD41EC190B53EC182BC4
:100EE00051EC180B00F0A6FD06000F0053EC192B77
:100EF00051EC190B00F09EFD32003B0001F0C8F8E8
:100F000041EC100B01F04AF9B0EE408AF0EE608A35
:100F1000DFF83C06B0F90000404200EE100AB8EEDF
:100F2000C00A10EE100A00F04DFD53EC182B00F033
:100F30008BFF41EC100B01F009FA53EC102BDFF89A
:100F40001406DFF8141600F075FD00F045FE286069
:100F5000BDEC048BF1BD000001007F43180C024082
:100F60001A0C024010000240A40600201CB5DFF855
:100F7000EC0500210160DFF8E80500210160002494
:100F800000200400642C24DADFF8C40500F074FBB0
:100F900000A901A8FFF72CFFDFF8C00590ED000ABB
:100FA000DDED010A30EE200ADFF8B00580ED000A21
:100FB000DFF8AC0590ED000ADDED000A30EE200A06
:100FC000DFF89C0580ED000A0A2000F0FBFA641CA3
:100FD000D8E7DFF88805006800F0F4FC0022DFF8AD
:100FE000843500F031FF00F0F7FDDFF87015086080
:100FF000DFF86C05006800F0E5FC0022DFF86435DE
:1010000000F022FF00F0E8FDDFF854150860DFF87B
:101010004C05006800F0D6FC02000B00DFF8480524
:1010200001F0AAF8DFF83805006800F0CBFC0200F8
:101030000B00DFF8380501F09FF813BD00B583B051
:101040000121012001F00AFA4FF400400090002035
:101050008DF8040000208DF8060002208DF80700AE
:1010600002208DF8050000A9DFF8080501F034FA28
:1010700007BD00B583B00121022001F0FEF9012176
:10108000062001F0EBF9C020009002208DF804004A
:1010900003208DF8050000208DF8060001208DF852
:1010A000070000A9DFF8D00401F016FA0320009031
:1010B00000A9DFF8BC0401F00FFA02220621DFF8D4
:1010C000B80401F05EFA02220721DFF8AC0401F057
:1010D00058FA02220021DFF8980401F052FA0222A5
:1010E0000121DFF88C0401F04CFA07BD000000007C
:1010F000A506002000B583B00121102001F0AEF953
:101100000121012001F0C8F94FF4D44000900220E1
:101110008DF8040003208DF8050000208DF80600EE
:1011200000208DF8070000A9DFF8500401F0D4F981
:1011300001220921DFF8440401F023FA01220B21E6
:10114000DFF8380401F01DFA01220D21DFF82C042C
:1011500001F017FA01220E21DFF8200401F011FA44
:1011600007BD000034040040340001403804004052
:10117000380001403C0400403C0001404004004075
:1011800038B504000025DFF8F803006840084FF484
:101190007A51B0FBF1F0401E0500DFF8E80305804E
:1011A000DFF8E00300214180DFF8D8034460DFF876
:1011B000D40300210181DFF8CC0300218172DFF824
:1011C000C413DFF8C40301F009FADFF8C00370218B
:1011D0000180DFF8B80301214180DFF8B00304216A
:1011E0008180DFF8A80300218160DFF8A0030221DD
:1011F0008181DFF898030821C181DFF890034FF463
:1012000080710182DFF8840300214182DFF87C13C2
:10121000DFF8740301F033FADFF87003DFF87013BE
:1012200009888160DFF86413DFF85C0301F066FA77
:10123000DFF85803DFF85C1309888160DFF84C138E
:10124000DFF8440301F0A0FADFF84003DFF84813A9
:1012500009888160CD49CC4801F0DBFACF484FF4D2
:1012600000610180CD484FF480614180CB484FF44C
:1012700080718180C9480B21C180C8484FF48051DA
:101280000181C6484FF400514181C4484FF4804168
:101290008181C249BC4801F025FB0121BA4801F017
:1012A000E0F90121B84801F02DFB31BDAC0500206B
:1012B0000002002080060020FC010020F401002034
:1012C00038B504000025AE48006880084FF47A5114
:1012D000B0FBF1F0401E0500AA484460A948058013
:1012E000A84800210181A74800214180A549AC48B8
:1012F00001F074F9A54860210180A44801214180D2
:10130000A24800218160A148002181819F49A44811
:1013100001F0B5F90821A24801F0BEFA9B4801216D
:1013200041809A480021816098499D4801F0E6F982
:1013300008219B4801F0B9FA944801214180934863
:10134000002181609149964801F01EFA08219448D5
:1013500001F0B5FA8D48012141808C48002181605F
:101360008A498F4801F055FA08218D4801F0B0FAFA
:1013700001218B4801F067F90121894801F071F9D9
:1013800031BD0000BC050020F801002000B583B08D
:101390000121082001F062F84FF470400090012014
:1013A0008DF8040002208DF8050000208DF806005D
:1013B00000208DF8070000A97A4801F08DF807BDDC
:1013C000400001400088B3400000F03F80B5FFF7C7
:1013D00035FE42F2F03000F001F801BD10B588B0E2
:1013E00004000121102001F057F80121022001F032
:1013F00035F8C020019002208DF8080002208DF8F9
:10140000090000208DF80A0000208DF80B0001A9CA
:10141000574801F061F807220621554801F0B1F85C
:1014200007220721524801F0ACF803940020ADF8E0
:1014300010000020ADF812000020ADF814000020CC
:10144000ADF818000C20ADF8160003A9564801F0BD
:101450006BFA012240F22551534801F0F1FA2520A0
:101460008DF8000000208DF8010000208DF80200AA
:1014700001208DF8030000A801F044FB01214A4837
:1014800001F0D0FA08B010BDF805002004060020D5
:101490001C06002010060020FCA9F1D24D62503F2E
:1014A00010B540F22551404801F0F5FA002822D04D
:1014B0003E48002101703E4804883E4800783E497D
:1014C00044543C480078401C3A4908703948007838
:1014D000042810DB374800210170042236493748C0
:1014E0000078374B13EB800001F04AFB334800785B
:1014F000401C3249087010BDEC0500202806002071
:10150000FA7E6ABC7493683F34060020B81E85EBEF
:1015100051B89E3F400600204C060020580600208F
:1015200096060020980600209A06002090060020CB
:101530009206002094060020AC3E0008E850000807
:10154000FC500008105100082451000838510008D0
:101550009C050020F6285C8FC2A54C407806002030
:101560007C060020000059404C51000860510008E2
:101570000004024000000240000802400010024047
:1015800004020020640600200000014088050020BD
:101590009C0600209E060020A0060020DC050020FE
:1015A00000040040000C0240001001400C0200202A
:1015B00004100140A906002010020020A806002007
:1015C0003C03002001B40098411E00910028FAD18C
:1015D00001B0704780B5012000F020F8012000F034
:1015E00029F8092000F032F8002000F03BF801BD96
:1015F00080B500F006F8342801D1012000E0002079
:1016000002BD00B583B001A8009006230622752113
:10161000D02000F0BDF89DF804000EBD10B582B0DA
:101620000400E4B20094032302226B21D02000F0D6
:1016300058F813BD10B582B00400E4B20094022340
:1016400004221B21D02000F04CF813BD10B582B04D
:101650000400E4B20094022304221C21D02000F0F4
:1016600040F813BD10B504002300DBB206226B2145
:10167000D02000F068F810BD1FB504000E233B22F7
:1016800000A9D02000F026F9002003280DDA00A9D7
:1016900011F81010090200AA12EB4002527851FA18
:1016A00082F124F81010401CEFE7042007280FDA1D
:1016B00000A911F81010090200AA12EB400252789A
:1016C00051FA82F114EB400222F8021C401CEDE7B3
:1016D0009DF8060000029DF8071050FA81F0A081E5
:1016E0001FBD2DE9F84305000E0017009846089C21
:1016F00001233200D2B200A92800C0B200F0EAF8FB
:10170000012010FA08F0401EB7EB0801491C10FA3E
:1017100001F9B7EB0800401C844019EA04049DF865
:10172000000030EA09008DF800009DF80000204319
:101730008DF800003200D2B200A92800C0B200F03B
:1017400095F8BDE8F183F8B504000D0016001F0000
:1017500001232A00D2B200A92000C0B200F0BAF8DA
:10176000FFB2002F05D09DF800000121B1400843D1
:1017700004E09DF800000121B14088438DF800008D
:101780002A00D2B200A92000C0B200F06FF8F1BD6B
:101790002DE9F04182B004000D0016001F00DDF8B5
:1017A000208001232A00D2B200A92000C0B200F09C
:1017B00091F80120B840401EF11B491C88409DF85B
:1017C000001001408DF800109DF80010F21B521C13
:1017D000D1408DF800109DF8001088F80010BDE889
:1017E000F38100B587B001215FF4800000F045FE71
:1017F0000121022000F032FE4FF4406000900220F0
:101800008DF8040002208DF8050001208DF80600F7
:1018100001208DF8070000A9624800F05DFE042257
:101820000A21604800F0ADFE04220B215D4800F063
:10183000A8FE5D4802900020ADF80C004BF6FF704A
:10184000ADF80E000020ADF810000020ADF8120039
:101850004FF48040ADF8140002A9544801F09CF9FF
:101860000121524801F018FA07B000BD70B504001C
:101870000D00160001214D4801F01CFA4C494B485F
:1018800001F053FA0028F9D000222100C9B24748DC
:1018900001F02CFA4749454801F047FA0028F9D0F1
:1018A0003100C9B2414801F03AFA43493F4801F0DA
:1018B0003CFA0028F9D029783C4801F030FA3E493A
:1018C0003A4801F032FA0028F9D00121374801F0F6
:1018D000FFF970BDF8B504000D0016001F005FF49D
:1018E0000031324801F03DFA0028F8D101212F489B
:1018F00001F0E0F92E492D4801F017FA0028F9D03F
:1019000000222100C9B2294801F0F0F929492748ED
:1019100001F00BFA0028F9D00121244801F0BCF9AC
:101920003100C9B2214801F0FAF923491F4801F0FA
:10193000FCF90028F9D001211C4801F0BBF91C4931
:101940001A4801F0F2F90028F9D001222100C9B2A9
:10195000164801F0CBF91949144801F0E6F90028BE
:10196000F9D0BFB2002F17D0BFB2012F07D100218D
:101970000E4801F0C6F901210C4801F0A9F91049FF
:101980000A4801F0D2F90028EBD0084801F0CAF962
:1019900028706D1C7F1EE4E70121044801F0B1F9B5
:1019A000F1BD000000040240A08601000058004084
:1019B000010003008200070084000700020003000A
:1019C000400003005FF0FF0C1CEAD05114BF6145DA
:1019D00006E0C110400721F0E04101F1605170477D
:1019E00079B900F0004100020AD0B0FA80FC00FA98
:1019F0000CF001F16051A1EB0C5101EBD02140053D
:101A0000704741020CBF40F4E0016FF0000100207C
:101A1000704750F8041B61B150F8042BD30744BF42
:101A2000A9F101039A18002342F8043B091FFAD1D7
:101A3000EFE77047B0B581EA030C0CF0004C40F2C0
:101A4000FF7515EA11541DBF15EA1357AC42AF429A
:101A500039E0E41923EA455343F48013C90241F005
:101A6000004141EA505EC7021100A7FB02020028B4
:101A70004FF00000EEFB01204FF00001E3FB0721D7
:101A800018BF42F00102401800214941E3FB0E015A
:101A9000A4F580640F0302D252004041494154F141
:101AA00001046CDD470872F1004250F1000051EB77
:101AB0000451A1F580115CBF41EA0C01B0BD4CEAB4
:101AC00005510020B0BD05EA1357AC4214BFAF4228
:101AD00041E050EA410E1CBF52EA430E02E061466B
:101AE0000020B0BD24423C441BD15FEA070EF6D073
:101AF000090302BF01460020AEF1140EB1FA81F7CE
:101B0000AEEB070401FA07FE0C37C7F1200100FA1B
:101B100007F7C8404EEA000E23EA455343F480130A
:101B2000A2E733F00043B3FA83F704BFB2FA82FEB0
:101B300077440B3FE41BB7F1200E2FBF02FA0EF3E0
:101B4000BB40C7F1200E22FA0EFE38BF43EA0E0357
:101B5000BA40641C82E750EA410E14BF52EA430EB9
:101B60006FF000014FF4001717EB430F8ABF1946BF
:101B700017EB410FB5E74CEA05510020B0BDD4F199
:101B80000104B4F120070FDAC4F12007520828BF7E
:101B900042F0010210FA07F501FA07F7E1BF2A4304
:101BA000E0403843E1400FE0352C98DCC7F12004D9
:101BB00052EA400220FA07F218BF42F0010231FA5D
:101BC00007F0A1400A43002172F1004250F10000E9
:101BD00051EB0C01B0BD00004FEAF17CBCF1E04CD0
:101BE0002CBFBCF5001F11E05FEA4C0C34BFBCF108
:101BF0007F5F2EE05FEA9C0C4FEA0C1C4FEA3C0C26
:101C0000C10071F100414CEB50707047C90241EACC
:101C10005051C00218BF41F0010141F000414FEAAC
:101C20006C50C0F10900212810D240EACC7CCCF1E4
:101C3000200C11FA0CF070F10040CCF1200C21FACC
:101C40000CF00CF0004C40EB0C0070474FEACC70ED
:101C50007047490011F5001F04D84FEACC10FF303F
:101C6000C0057047C8177047010040F10980F4466D
:101C7000404200F005F851F000416047010000BF0C
:101C800009D0B0FA80F18840C91CC1F5846109050A
:101C900001EBD0214005704770B44FF0004591EA48
:101CA000030F44BF6B4000F0FDB900BF841A71EB15
:101CB000030604D26E40001BB141121973414FF468
:101CC000001C1CEB410F34BF7CEB430684E00C0D81
:101CD000A4EB1356362E7DDC012E43DC45EAC323EC
:101CE00043EA525312BFD20292025B08240545EA2E
:101CF000C12141EA5051D2EBC020994125D407D1EE
:101D0000B0FA80F610FA06F164D00020203608E020
:101D1000B1FA81F6B140C6F1200220FA02F2114375
:101D2000B0404FEAF474B4EB465434F001064FEA85
:101D300074040AD8D6F50016760D04F00044F0407D
:101D400061FA06F25040F1404840C00A40EA415072
:101D500021F0004128BF5FEA500550F1000044EB3C
:101D6000D12137E045EAC323DB0A45EAC121C90A8C
:101D7000B6F120050EDD42EA0242120CC5F1200642
:101D800003FA06F6EB4042EA06056D42984161F11E
:101D900000010DE062FA06F5F240554063FA06FCD8
:101DA00082EA0C02F3405A406D42904161EB03011C
:101DB00011F4801F05D1641E620502D06D00404100
:101DC000494121F48011430875F1004350F10000AE
:101DD00041EB045170BC70471CEB410F15D223F04E
:101DE000004352EA43060BD04FEA4C0CBCEB410FC8
:101DF00004D80C0D661E342EB7DDEBE7801A99412E
:101E000050EA410608BF0021E4E708BF1CEB430F7E
:101E100028BF6FF00001DDE74FF4001C1CEB410F01
:101E200094BF1CEB430F09E041EA030C50EA4C0C51
:101E300052EA0C0C03D28B4208BF8242704714BF97
:101E40009942904270470000F0B540F2FF7581EA78
:101E5000030C0CF0004C15EA11541DBF15EA135782
:101E6000AC42AF42E5E0BC41C1F31301C3F313033D
:101E7000801A994143F4801304D2641E4000494102
:101E800080185941C90241EA5051B1FBF3F603FBF6
:101E90001611A2FB0675D7EBC020A94102D2761E0F
:101EA00080185941C90241EA5051B1FBF3FE03FBCE
:101EB0001E11A2FB0E75D7EBC020A94103D2AEF1D3
:101EC000010E80185941890241EA9051760546EA8F
:101ED0008E2EB1FBF3F603FB1611A2FB0675D7EBB2
:101EE0008020A94102D2761E80185941C90241EAD8
:101EF00050514EEA060EB1FBF3F603FB1611A2FB9E
:101F00000675D7EBC020A94102D2761E8018594130
:101F1000C90241EA5051B1FBF3F703FB1711A2FBD1
:101F20000735D3EBC020A94167F100070CBF004281
:101F300047F0010766F3D5274FEA1E31B80814F5BC
:101F4000806412DDBD0775F1004250EB0E5051EB7D
:101F5000045111F5801F5CBF41EA0C01F0BD4CF04B
:101F60007F6141F0E0410020F0BDBD076D0840EA0F
:101F70000E5041F48011D4F10104B4F120060ADAC4
:101F8000C4F120060200E04001FA06F3E1401843E4
:101F9000B24015430EE0342C13DCC6F1200445EAB0
:101FA00040056D0820FA06F2154321FA06F0A1401B
:101FB0000D43002175F1004250F1000051EB0C017E
:101FC000F0BD00205FEA0C01F0BDCFB992185B4173
:101FD000B3FA83F704BFB2FA82F6BF190B3FB7F129
:101FE00020062FBF02FA06F3BB40C7F1200622FAF3
:101FF00006F638BF3343BA401CB1E419641E33E718
:102000007F4231F00041B1FA81F404BFB0FA80F6AA
:10201000A4190B3CB4F120062FBF00FA06F1A14031
:10202000C4F1200620FA06F638BF3143A0403C1B1D
:102030001AE7AC421ABF05EA1357AF4212E050EA62
:1020400041061CBF52EA4306BFE750EA410730464B
:1020500061461CBF41EA0551F0BD52EA430C08BF7E
:10206000C143F0BD00204FF4001616EB410F98BF9E
:1020700016EB430F08BF16EB410F24BFC14305E029
:1020800016EB430F0CBF61464CEA0551F0BD000052
:1020900070B44FF0004591EA030C44BF6B40FFF76A
:1020A00005BE00BF841A71EB030603D2001BB141C9
:1020B000121973414FF4001C1CEB410F34BF7CEB31
:1020C000430443E00C0DA4EB1356352E50DC45EAD7
:1020D000C323DB0A45EAC121C912B6F120050DDD93
:1020E00063FA05F6EB4086EA0305124218BF45F095
:1020F0000105C01851F100010CD213E062FA06F597
:10210000F2405540F3415A40B340F3405A408018E2
:10211000594107D349085FEA30005FEA350528BF17
:1021200045F0010501F58011420875F1004250F1BA
:10213000000041EB045170BC4FF4001C1CEB410F3C
:1021400038BF70470020090D090570471CEB410F8F
:1021500010D252EA43060BD0BCEB410F05D80C0D50
:10216000AB43661E342EB5DD02E0AB438018594107
:1021700070BC704770BC70470EB400B582B003A944
:102180000091024600AB0121034878440A3000F078
:102190000BFE06BC5DF810FB2F2F000051EC100B5E
:1021A00000B500F003F841EC100B00BD40F2FF7CDD
:1021B0000B0D4DD0634566D230B421EA035141F492
:1021C000801103F2FD3C5FEA5C0C01D30018494129
:1021D000890041EA907180004FF440140023E2022C
:1021E000D50AB1F5100107D46D081DD2091B641979
:1021F00000184941491BF7D56D080AD20919641B1B
:1022000000184941491BEFD56D08F7D301E052088A
:1022100017D0C01861419B1AAC4100184941801A7F
:10222000A941F4D452080AD0C01AA1419B186C41AC
:1022300000184941801AA941E9D45208F4D15B1C25
:102240006C4161084FEA330001EB0C5130BC704720
:1022500050EA0103FBD030B4B1FA81F311B9B0FAFE
:1022600080F41B190B3BB3F120042FBF00FA04F1DB
:102270009940C3F1200420FA04F438BF2143984068
:10228000D3F101039DE76345E1D011F5801FDED84E
:1022900050EA4101DBD0D94301F0EABD13B582B069
:1022A0009DED020B8DED000BDDE90023C3F30A5118
:1022B00040F2FF72914209D0002904BF190350EA8D
:1022C000113012D1DDE9020104B010BD190350EA4A
:1022D0001130F7D1039800284CBF9FED170B9FEDED
:1022E000180B51EC100B04B010BDDDE90201002207
:1022F000002301F0C3FD3DBF81F00041CDE90201A3
:1023000008240024DDE9020101220F4BFFF784FDC0
:1023100009D81946DDE902230020FFF795FDCDE934
:10232000020184F00204DDE90201224604B0BDE8A6
:10233000104001F0C5BD0000182D4454FB21F9BF29
:10234000182D4454FB21F93F0000F03F80B551ECBB
:10235000100BFFF7A3FF41EC100B01BDF0B40021FF
:1023600000220023022400250226DFF84C713F687A
:1023700017F00C0739000F00002F04D0042F06D0EF
:10238000082F08D03CE0DFF8387107603BE0DFF849
:102390003471076037E0DFF824713F68C7F3805776
:1023A0003D00DFF818713F6817F03F073E00002D31
:1023B0000DD0DFF81071B7FBF6F7DFF800C1DCF8DD
:1023C00000C0CCF3881C0CFB07F73B000CE0DFF8E7
:1023D000F070B7FBF6F7DFF8E4C0DCF800C0CCF330
:1023E000881C0CFB07F73B00DFF8D0703F68C7F391
:1023F00001477F1C7F003C00B3FBF4F7076002E05D
:10240000DFF8BC700760DFF8B0703F6817F0F007C6
:1024100039000909DFF8B070CF5D3A000768D7408E
:102420004760DFF894703F6817F4E0573900890A75
:10243000DFF89470CF5D3A004768D74087601E4F41
:102440003F6817F460473900490BDFF87C70CF5DB7
:102450003A004768D740C760F0BC7047C9B200294E
:1024600005D01A4A12680243184B1A6004E0174A52
:1024700012688243154B1A607047C9B2002905D013
:10248000134A12680243124B1A6004E0104A1268A1
:1024900082430F4B1A607047C9B2002905D00D4A1C
:1024A000126802430B4B1A6004E00A4A1268824326
:1024B000084B1A6070470000083802400438024098
:1024C0000024F40000127A00DC01002030380240C1
:1024D0004038024044380240F0B400220023002477
:1024E00000252A00102A4AD2012595402B000D68AC
:1024F0001D402C009C4240D1056803261700FFB206
:102500007F00BE40B543056005680E791700FFB235
:102510007F00BE40354305600D79012D02D00D7955
:10252000022D1AD1856803261700FFB27F00BE4036
:10253000B543856085684E791700FFB27F00BE40C5
:1025400035438560456801269640B543456045683A
:102550008E799640B6B235434560C56803261700AC
:10256000FFB27F00BE40B543C560C568CE79170095
:10257000FFB27F00BE403543C560521CB2E7F0BCDD
:102580007047F0B400230024D2B211F00705EDB279
:10259000AD0012FA05F52B0089B2CD1010EB8505C0
:1025A00089B2CE1010EB8606366A0F2711F0070CA1
:1025B0005FFA8CFC5FEA8C0C17FA0CF7BE432E62B4
:1025C00089B2CD1010EB85052D6A1D432C0089B210
:1025D000CD1010EB85052C62F0BC704700220388FB
:1025E0001A00A64B98420ED0AA4B98420BD0B0F1DD
:1025F000804F08D0A24B984205D0A24B984202D0FF
:10260000A14B984204D14FF68F731A404B881A435E
:102610009E4B984207D09E4B984204D04FF6FF4302
:102620001A400B891A4302804B68C3620B880385EA
:10263000924B984202D0974B984201D18B7A0386F5
:10264000012383827047C9B2002904D0028852F066
:102650008002028004E002884FF67F731A400280F5
:102660007047C9B2002904D0028852F001020280EA
:1026700004E002884FF6FE731A400280704770B47F
:10268000002300240022058C4FF6FE763540058499
:10269000058C2C0085882A00058B2B004FF68F7542
:1026A0002B404FF6FC752B400D882B434FF6FD75E4
:1026B0002C408D892C434D882C43704DA84202D06C
:1026C000744DA84213D14FF6F7752C40CD892C4399
:1026D0004FF6FB752C408D882C434FF6FF652A4042
:1026E0004FF6FF552A400D8A2A434D8A2A4382809D
:1026F00003838D684563048470BC704770B4002305
:1027000000240022058C4FF6EF7635400584058CB9
:102710002C0085882A00058B2B0048F6FF752B407E
:102720004FF6FF452B400D8853EA05234FF6DF7522
:102730002C408D8954EA05144D8854EA05144F4DF8
:10274000A84202D0534DA84217D14FF67F752C40B6
:10275000CD8954EA05144FF6BF752C408D8854EA94
:1027600005144FF6FF352A404FF2FF752A400D8AB7
:1027700052EA85024D8A52EA8502828003838D687F
:102780008563048470BC704770B400230024002269
:10279000058C4FF6FF6635400584058C2C00858836
:1027A0002A00858B2B004FF68F752B404FF6FC755A
:1027B0002B400D882B434FF6FF552C408D8954EA52
:1027C00005244D8854EA05242C4DA84202D0314DF1
:1027D000A84217D14FF2FF752C40CD8954EA052449
:1027E0004FF6FF352C408D8854EA05244EF6FF75D0
:1027F0002A404DF6FF752A400D8A52EA05124D8A8D
:1028000052EA0512828083838D68C563048470BC9C
:10281000704770B4002300240022058C4EF6FF762A
:1028200035400584058C2C0085882A00858B2B007B
:1028300048F6FF752B404FF6FF452B400D8853EAB5
:1028400005234DF6FF752C408D8954EA05344D88DB
:1028500054EA0534094DA84202D00E4DA84205D1D4
:102860004BF6FF752A400D8A52EA851282808383D7
:102870008D680564048470BC70470000000001404E
:102880000004004000080040000C00400010004020
:1028900000140040000401400022038B1A004FF690
:1028A000F7731A400A43028370470022038B1A0011
:1028B0004FF2FF731A4052EA01220283704700224E
:1028C000838B1A004FF6F7731A400A4382837047CE
:1028D0000022838B1A004FF2FF731A4052EA012242
:1028E000828370470A884B881A438B881A43CB88A7
:1028F0001A430B891A434B891A438B891A43A0F850
:1029000044207047C9B2002906D0B0F8442052F4E0
:102910000042A0F8442005E0B0F844205204520CD4
:10292000A0F84420704700002DE9F04385B0040072
:102930000D005FF00009002600275FF00008A8895D
:102940000028208A814639F44059E88850EA09096C
:10295000A4F81090A0898146314810EA0909A88896
:10296000298908436989084350EA0909A4F80C90A9
:10297000A08A814639F44079A88950EA0909A4F867
:10298000149000A8FFF7EAFC2348844202D02348B1
:10299000844202D10398060001E002980600A08953
:1029A000000408D5192000FB06F029684900B0FB97
:1029B000F1F0070007E0192000FB06F02968890004
:1029C000B0FBF1F007006420B7FBF0F00001814696
:1029D0005FEA1910642101FB10708046A089000491
:1029E0000AD55FEAC80032306421B0FBF1F010F084
:1029F000070050EA090909E05FEA08103230642153
:102A0000B0FBF1F010F00F0050EA0909A4F80890AB
:102A100005B0BDE8F0830000001001400014014043
:102A2000F3E9FFFFC9B2002904D0828952F40052B1
:102A3000828104E082894DF6FF731A4082817047DB
:102A4000F0B4002300240025002689B240F66A175E
:102A5000B94206000F00FFB27F09FFB23B0089B206
:102A600011F01F073C000127A7403D00012B01D1B9
:102A70000C3604E0022B01D1103600E01436D2B23D
:102A8000002A03D037682F43376002E03768AF432E
:102A90003760F0BC704770B40200002300250024AA
:102AA000002089B240F66A16B1420E00F6B27609ED
:102AB000F6B2340089B211F01F063500012616FA6D
:102AC00005F5012C02D19689354006E0022C02D191
:102AD000168A354001E0968A354089B20E0AB6B2B0
:102AE0003300012616FA03F316883340002D04D074
:102AF000002B02D00126300001E000263000C0B2D9
:102B000070BC7047F0B4002300210F22C478002C61
:102B100021D0174C246814F4E064D4F5E064240A4E
:102B20002300D3F104042100D2B21A4144788C402E
:102B300023008478144023431B0104780D4D635512
:102B4000047864110C4D0126077817F01F07BE406A
:102B500045F8246009E004786411084D01260778DF
:102B600017F01F07BE4045F82460F0BC7047000016
:102B70000CED00E000E400E000E100E080E100E0B6
:102B800070B504000D00160032002900200001F08D
:102B90008FFA200070BD00002DE9F04385B00400DD
:102BA0000D005FF0000900260427DFF8E080A08810
:102BB00081464FF6C07010EA090900A8FFF7CEFB66
:102BC000029880463248B8FBF0F0060056EA090940
:102BD000A4F8049020884FF6FE7108402080002061
:102BE000814628682B4988420ED228684000B8FBED
:102BF000F0F00700BFB2042F01DA0420070057EA03
:102C00000909701C208426E0E8884BF6FF71884291
:102C100006D1286803214843B8FBF0F0070007E01D
:102C2000286819214843B8FBF0F0070057F48047A3
:102C3000380501D157F0010757F4004050EA09095F
:102C4000B6B24FF4967000FB06F04FF47A7190FB29
:102C5000F1F0401C2084A4F81C90208850F0010062
:102C60002080208881464FF6F53010EA0909A888AF
:102C70006989084350EA0909A4F80090A8892989BC
:102C80000843208105B0BDE8F083000000127A00FF
:102C900040420F00A1860100C9B2002904D0028879
:102CA00052F00102028004E002884FF6FE731A40DF
:102CB00002807047C9B2002904D0028852F48072A1
:102CC000028004E002884FF6FF631A4002807047DA
:102CD000C9B2002904D0028852F40072028004E0D4
:102CE00002884FF6FF531A4002807047D2B2002A82
:102CF00002D051F0010101E011F0FE01C9B20182E0
:102D00007047C9B2002904D0028852F48062028060
:102D100004E002884FF6FF331A4002807047C9B2C0
:102D200001827047008AC0B2704770B4020000236D
:102D3000002400250020968A3400168B35002D04CF
:102D400055EA04063602360A330011EA03068E42BB
:102D500002D10126300001E000263000C0B270BC74
:102D6000704782B0020000200023019300230093EB
:102D700000920B0F01930902090A019B002B03D05B
:102D8000009B1433009303E0090C009B183300935D
:102D9000009B1B680B4202D00123180001E00023B6
:102DA0001800C0B202B070472DE9F04F80460FF214
:102DB000B450A5B017461D46D0E90023CDE9122333
:102DC00004AE00200491706214AC00E04F44002077
:102DD000ADF8020012AB4FF0FF3239460DF10200A0
:102DE00001F0A1F98146B9F1010F08DA3878B0F1A4
:102DF000010969EB09096FEA09004FEAD079BDF8CA
:102E0000020025280CBFA9F101034B46012B07DB6B
:102E10003A4602A9404601F005F8002800F19D82DB
:102E2000BDF80200252807D10020F06030617061F4
:102E3000B061F061306205E00028C7D1706A8EE2AF
:102E400040F0010017F8011F2029F9D023290DD0E7
:102E50002B2904D02D2906D030290AD00CE040F0CF
:102E6000020080B2EEE740F00400FAE740F008000C
:102E7000F7E740F01000F4E72A290DD129680A1D70
:102E80002A600968F162002904D5494240F0040033
:102E9000F16280B27F1C13E00021F1620BE0F16A65
:102EA0006FF00043994205D001EB810302EB43012F
:102EB0003039F1627F1C3A78A2F130010A29EED351
:102EC00039782E2903D04FF0FF31B1621EE017F898
:102ED000011F2A2906D129680A1D2A607F1C09685A
:102EE000B16213E00021B1620BE0B16A6FF0004300
:102EF000994205D001EB810302EB43013039B16205
:102F00007F1C3A78A2F130010A29EED330860FF205
:102F10005C40397801F018F908B117F8010B8DF809
:102F200042009DF84200682802BF39786829622073
:102F300005D06C2804BF38786C2803D171208DF837
:102F400042007F1C14A8B0603978B1F1250025D06B
:102F50001C387BD0001F022878D9133800F0A080DD
:102F6000093873D0801E00F03181401E00F0DB80F4
:102F7000401E02286AD9001F00F0D580401F3AD0B9
:102F8000401E00F08D80401E2AD0C01E0BD0801E37
:102F900000F08680C01E00F0838037E1F068411C9D
:102FA000F16025213BE19DF842006C28286813D090
:102FB000011D29600068B26A7060002A02D501F024
:102FC000CFF807E0002101F0E7F800281ABF716888
:102FD000401AB06A306123E1011D296002680EE1E8
:102FE0002868011D296000210068CDE9020114A8AC
:102FF00070607821E6E09DF84200622818D06828C9
:1030000006D06A280BD06C2819D0712807D016E09A
:103010002868011D29600068716A018000E12A6842
:10302000101D28601268706AC117C2E90001F7E03C
:103030002868011D29600068716A0170F0E0286845
:10304000011D29600068716A0160E9E02868C01DFF
:1030500020F00700286000F108022A60D0E9002370
:10306000CDE90223002B04D5F068421CF2602D222A
:103070000DE0308E820704D5F068421CF2602B22EE
:1030800005E0C00704D5F068421CF260202202551A
:10309000F06814AA8018706002A800F0BBFBBFE0C3
:1030A0009DF842006C2808BF2A6811D0712808BF1B
:1030B0002A6802D02A686A280AD1D21D22F00702A3
:1030C0002A6094460CF108022A60DCE9002303E040
:1030D000131D2B6000231268CDE90223682808BF66
:1030E00092B207D0622808BFD2B203D0742818BFAA
:1030F0007A2802D10023CDE9022396F83000000798
:103100005CD5DDE90223002B08BF002A56D041F030
:103110002000782852D1F06830220255401C421C11
:10312000F26001554AE09DF8420062280CD0682800
:1031300010D06A281AD06C2823D0712816D0742891
:103140001FD07A280CD01CE02868021D2A6090F954
:1031500000201AE02868021D2A60B0F9002014E05F
:103160002868021D2A60002302680FE02868C01D3D
:1031700020F00700286000F108022A60D0E900234F
:1031800004E02868021D2A600268D317CDE90223F3
:10319000002B04DAF068421CF2602D220DE0308E24
:1031A000820704D5F068421CF2602B2205E0C007BC
:1031B00004D5F068421CF26020220255F06814AA7F
:1031C0008018706002A800F076FA29E09DF84200AD
:1031D0006C2807D0F068411CF16029680A1D2A603C
:1031E00009681CE02868011D296001AA0068ADF883
:1031F00004000020ADF806004FF0FF30B06202A9D5
:10320000404600F0B7F800280AD5A6E0F068421C56
:10321000F2602522025519B1F068421CF260015596
:10322000F06AF168401AB169401A3169401AF169CF
:10323000401A7169401A316AA0EB010996F8300012
:103240007F1C400711D420208DF800004FF0000AA9
:1032500009E0012300AA02A9404600F0E3FD00288E
:103260007BD10AF1010ACA45F3DBF36814AA02A96B
:10327000404600F0D7FD00286FD13020D6F818A0C6
:103280008DF800004FF0000B09E0012300AA02A90D
:10329000404600F0C7FD00285FD10BF1010BD3457C
:1032A000F3DB3369726802A9404600F0BBFD0028D9
:1032B00053D13020D6F81CA08DF800004FF0000B41
:1032C00009E0012300AA02A9404600F0ABFD002856
:1032D00043D10BF1010BD345F3DB30697168D6F8AC
:1032E00014A000EB010B0AE01BF8011B0498C04777
:1032F000049090B3706A401C7062AAF1010ABAF19E
:10330000000FF1D13020D6F820A08DF800004FF04A
:10331000000B08E0012300AA02A9404600F082FD4C
:10332000D8B90BF1010BD345F4DB96F83000400718
:103330007FF54DAD20208DF800004FF0000A01E030
:103340000AF1010ACA45BFF642AD012300AA02A94B
:10335000404600F067FD0028F2D04FF0FF3025B066
:10336000BDE8F08F0000000000000000686A6C7487
:103370007A4C00002DE9F04F0F4695B03C6B834628
:103380009146002C48BF6FF0004400F031FF796B8C
:10339000401802900FF6BC22D2E90001CDE90301EA
:1033A00097F83800400702D40298412805D24020FF
:1033B0000DF1140A0290002509E000F01FFF5FEAFA
:1033C000000AF8D14FF0FF3072E1A4EB0804012CA1
:1033D000C0F2B580B9F8001003AA0DF1010000F0A9
:1033E00065FF8046002800F1C180B9F8000018B9D7
:1033F000B8F1010800F1BA804445C0F2A0807869B4
:10340000029908EB0002914280F08A807D6340427D
:10341000396A401AB969401A796A401AF969401A3A
:10342000B96A451A97F83800400710D420208DF863
:103430000000002609E0012300AA3946584600F0A2
:10344000F1FC002840F09280761CAE42F3DB7B69F1
:1034500052463946584600F0E5FC002840F0868088
:1034600030208DF800000026386A019008E0012322
:1034700000AA3946584600F0D5FC002876D1761CC3
:1034800001988642F3DBBB69FA683946584600F07A
:10349000C9FC00286AD130208DF800000026786A27
:1034A000019008E0012300AA3946584600F0BAFC12
:1034B00000285BD1761C01988642F3DBB869F96875
:1034C000FB6942183946584600F0ACFC00284DD143
:1034D00030208DF800000026B86A019008E0012332
:1034E00000AA3946584600F09DFC00283ED1761CC3
:1034F00001988642F3DB97F8380040070ED520206C
:103500008DF80000002607E0012300AA394658463E
:1035100000F088FC50BB761CAE42F5DB00257D61D7
:10352000424678690DF10101504400F0C1FD78690F
:103530004044786139F8020B00287FF446AF786B7D
:103540007969401A396A401AB969401A796A401A89
:10355000F969401AB96AA0EB010897F838004007EA
:1035600019D420208DF80000A94612E04FF0FF3555
:1035700097E0012400AE16F8011BB868D847B86080
:103580000028F3D0F86A401CF862641EF3D109F1F8
:103590000109C145EDDB7B6952463946584600F0CA
:1035A00041FC0028E2D130208DF80000A946386A9D
:1035B00001900FE0012400AE16F8011BB868D8474F
:1035C000B8600028D2D0F86A401CF862641EF3D1BB
:1035D00009F1010901988145ECDBBB69FA683946BC
:1035E000584600F01FFC0028C0D130208DF80000A4
:1035F000A946786A01900FE0012400AE16F8011B7D
:10360000B868D847B8600028B0D0F86A401CF862A3
:10361000641EF3D109F1010901988145ECDBB86919
:10362000F968FB6942183946584600F0FBFB002850
:103630009CD130208DF80000A946B86A01900FE0B7
:10364000012400AE16F8011BB868D847B8600028FE
:103650008CD0F86A401CF862641EF3D109F10109AC
:1036600001988145ECDB97F83800400717D52020FA
:103670008DF80000A94610E0012400AE16F8011BE9
:10368000B868D847B86000283FF470AFF86A401CAB
:10369000F862641EF2D109F10109C145ECDB7D61DC
:1036A0007D6305A882451CBF504600F00DFE2846EC
:1036B00015B0BDE8F08F2DE9FA47064682B03569AE
:1036C0000A466F2A08BF082705D041F02000782855
:1036D00014BF0A271027D6E900013C2480468946FA
:1036E000642A18BF692A05D1002903DAD8F1000835
:1036F00069EB4909B9F1000F08BFB8F1000F0CD10F
:10370000306B50B9082F3BD196F83800000737D5F9
:1037100030203B2485F83B0032E0CDE90089FB17DF
:10372000404649463A4600F00FFEB846A8FB002343
:10373000DDE90089A8EB02023032A4F1010AD2B21D
:1037400054463A2A03DB9DF80830513B9A180AF890
:10375000052080465FEA010908BFB8F1000F03D0D9
:10376000F06861198842D8D3082F09D196F838003B
:10377000000705D5605D302802D0641E30206055FA
:10378000C4F13C00B0616119F160316B884207DA25
:10379000081A30624FF6EF71308F0840308710E022
:1037A00000290ED596F8381001F01401102908D11F
:1037B000716B7269891A326A891A081A0128A8BFBE
:1037C000306204B0BDE8F0872DE9D04306460F46CD
:1037D00014464FF00008DFF8389012E0E00707D5F4
:1037E00042464B4630463946FEF724F906460F4618
:1037F00064104046494642464B46FEF71BF9804658
:103800008946002CEAD130463946BDE8D083000015
:10381000000024402DE9F04F04468FB08A46D4E9D9
:103820000001CDE9020104AF4AF0200061280BD06D
:10383000206B002848BF062005D404BF4AF02000B2
:10384000672801D1012020636168C1F30A5040F26A
:10385000FF7290421AD1080304BF2068002808D1E3
:103860000320A061AAF161001A2835D30FF2F851A4
:1038700007E00320A061AAF161001A2829D30FF202
:10388000E051E068032200F013FCA4E1012816DAFD
:10389000204600F0D0FD012811DB002500204AF071
:1038A000200161291FD1E168302201F8012B4A1C57
:1038B000E260BAF1610F0CBF782258220FE0626813
:1038C00040F2FE3161F31E52451A62604FF0FF3044
:1038D000E5E70FF28851D4E70FF28851D1E70A707B
:1038E0006169891C616110B9002600256BE14AF00D
:1038F0002000612840F09580206B00284CBF2126D5
:10390000461CDDE9020136B2771CD4E900890022A9
:10391000002300F0B3FA3ABF89F00040CDE90280FD
:10392000CDE902892D1F8DF810200DF1110901E05C
:1039300000F20709012F32DBDDE90201002200233A
:10394000FEF76AFA2BD21C2102A800F095FDDDE9F2
:10395000020100F01BFEFF1F8046012F09DBFEF76E
:1039600083F902460B46DDE90201FEF795F9CDE940
:10397000020109F20700072105E008F00F0200F834
:10398000012D4FEA2818B8F1010F01DB491EF4D5CB
:10399000491E5CBF002200F8012DF9D5C8E70DF1E2
:1039A0001100A9EB00010DF11107B142B8BF0E469D
:1039B00036B230002ED4884206DA04A9411849787C
:1039C0000829A8BF0F2100DA002104AA821800E00C
:1039D000761E12F80139401E8B42F9D00F2904D10E
:1039E00004A941184A78521C4A70002802D504AF35
:1039F000761C2D1D36B2701E0CD4C119AAF13A03E3
:103A00000A783032D2B23A2AA8BF9A1801F80129AE
:103A1000401EF5D5206B002840F1D580701E206334
:103A2000D1E0DDE902010022002300F027FA3CBFCB
:103A300081F00041CDE902012DB247F29750684371
:103A40003F4990FBF1F52DB2C5F10702012A04DBD5
:103A5000DDE90201FFF7B8FE25E0C2F1000B002608
:103A6000384FDFF8E490984614E05FEACB7007D552
:103A700042464B4630463946FDF7DCFF06460F46C8
:103A80004FEA6B0B4046494642464B46FDF7D2FF94
:103A900080468946BBF1000FE7D1DDE902013246DD
:103AA0003B46FEF7D1F9CDE902014AF02000662835
:103AB0000CBF05F10A000620216B4618142EA8BF82
:103AC000132630208DF810000DF11107DFF87C90DF
:103AD000012E3DDBDDE9020100F06EFD07F108017A
:103AE00004220A23B0FBF3F303EB8307A0EB4700A8
:103AF000303001F8010D0A20B3FBF0F000EB800735
:103B0000A3EB4703303301F8013D521EE9D1083ED3
:103B100001F10807012EDBDBDDE9020100F04CFDBD
:103B2000FEF7ACF802460B46DDE90201FEF7B4F8F9
:103B300000224B46FDF77EFFCDE90201CAE700BF38
:103B4000A08601000000F03F0000244084D7974188
:103B50000DF11100381A0DF1110702E0401E6D1E23
:103B60007F1C39783029F9D04AF02001662902D12A
:103B70002DB2691C03E065290CBF01210021226BD5
:103B80008E1836B2B042B8BF064636B231001AD4EB
:103B9000814204DAC85D3528A8BF392000DA302018
:103BA000CA19521E00E0761E12F80139491E8342DE
:103BB000F9D0392802D1C85D401CC855002902D56A
:103BC0007F1E761C6D1C2DB2009533B23A465146CD
:103BD000204600F003F80FB0BDE8F08F2DE9F04764
:103BE00086B006468A4690461D4600F018FD406A9B
:103BF000376B90F80090012D02DA01250FF26C2846
:103C00004AF02000BDF93840662808BF641C12D075
:103C1000672875D114F1040F78DBBC4276DA96F888
:103C20003800641C000702D4BD42B8BF2F4624B23E
:103C30003F1B48BF0027F068B16924B2012C21DA8C
:103C400030234A1C0B54012F03DA96F83810090769
:103C500002D502F80090521CB261E742B8BF7C4224
:103C600024B26142E7197162AF42B8BF3D462DB23E
:103C7000F5612A46B3694146181800F019FA781B15
:103C8000B062B8E00818A54216DA2A46414600F0AC
:103C90000FFAB1696918B161601B7062012F03DA14
:103CA00096F83800000705D5F06801F80090F06933
:103CB000401CF061B7629EE02246414600F0F8F9F0
:103CC000B06920182D1B012F03DA96F83810090768
:103CD00003D5F16800F80190401C2DB2B061AF42ED
:103CE000B8BF3D46F3682DB22A4604EB0801C01860
:103CF00000F0DEF9B0692818B061781B70627AE0D4
:103D00005046612814D14FF0700A15E0BD4204DA24
:103D100096F83810090758BF2F467F1E48BF002766
:103D2000BAF1670F14BF4FF0450A4FF0650A03E080
:103D3000412808BF4FF0500AB169F06818F8013BFC
:103D40000B544A1C012F05DA96F83810090758BFA2
:103D5000B26115D502F80090531CB361012F0FDB3F
:103D60006D1E2DB2AF42B8BF3D462DB22A46414628
:103D7000181800F09DF9B0692818B061781B7062BE
:103D8000B069F16800EB0108200008F801AB03D42A
:103D90002B2008F8010B03E02D2108F8011B4442F9
:103DA000002502AF08E00A2200A800F051FC0198AB
:103DB00007F8010B6D1C009C21B20129F3DA022DDA
:103DC00006DA4AF02000652804BF302008F8010B0D
:103DD0004DB9302008F8010B07E06D1E02A8285CE1
:103DE000303008F8010B012DF7DAB069F16840189E
:103DF000A8EB0000F06196F8380000F014001028DD
:103E00000DD17069B1690818716A0818F16908184C
:103E1000B16A0818716B8842BCBF081A306206B0DC
:103E2000BDE8F087F8B504460D4616461F4600204B
:103E300004E0E86A401CE8627F1E002047B116F8E3
:103E4000011BA868A047A8600028F2D14FF0FF30FE
:103E5000F2BD000000000000000000006E616E0076
:103E60004E414E00696E6600494E4600300000002B
:103E70001FB500F0F5FB212101601FBD4FF4001CB0
:103E80001CEB410F94BF1CEB430F09E041EA030C0C
:103E900050EA4C0C52EA0C0C03D2994208BF9042F3
:103EA000704714BF8B428242704700004779726F9F
:103EB0002058206F66667365743A2025640A0000F6
:103EC000D0B514462DED048B534A544BFDF7A4FF97
:103ED00041EC180B1DD89FED529B53EC182B51EC65
:103EE000190BFDF7A7FD00224F4BFEF7D1F8064650
:103EF0000F4653EC182B51EC190BFEF7C9F802468C
:103F00000B4630463946FDF79FFF41EC180B44F055
:103F1000010451EC180B0022444BFFF7AFFF05D30F
:103F200001224FF07953FDF777FF51D853EC182B4E
:103F3000FDF780FD41EC190B53EC182BFDF77AFDD2
:103F400006460F4653EC192B39483A49FDF772FDE6
:103F5000394A3A4BFEF79CF853EC192BFDF76AFDF2
:103F6000374A384BFEF794F832463B46FDF762FD80
:103F700053EC182BFEF78CF806460F4653EC192B22
:103F800031483249FDF756FD314A324BFEF780F891
:103F900053EC192BFDF74EFD2F4A304BFEF778F806
:103FA00053EC192BFDF746FD2D4A2E4BFEF770F80A
:103FB00053EC192BFDF73EFD2B4B0022FEF768F862
:103FC00002460B4630463946FDF73EFF41EC180BE2
:103FD000A00705D551EC180B81F0004141EC180BFE
:103FE00014F007020BD00FF2880303EBC20251EC6E
:103FF000180B53681268FEF74BF841EC180B2007BA
:1040000005D551EC180B81F0004141EC180B51EC37
:10401000180BBDEC048BD0BD57CD9E5E1426D13F4E
:10402000AA4C58E87AB6FB3F0000F0BF000040BE43
:10403000845D57134B57B03FB2934C19ED5EE43F8C
:10404000BEDE02B90240F83FDE39028FC7C0743FBE
:104050008AAB1283000CC83F24D7E508B6D8F03FDE
:104060000F34580E5895FD3F0000F03F000000004F
:10407000000000000000000066732D3852C1E03FD0
:10408000182D4454FB21F93F66732D3852C1F03F7F
:10409000182D4454FB21F93F66732D3852C100405E
:1040A000182D4454FB2109403FD038C6A6F10440E6
:1040B00062B38B0708D0521E11F8013B00F8013B98
:1040C00000F024808B07F6D1830740F0208000BFEA
:1040D000103A07D330B4B1E83810103AA0E83810DD
:1040E000F9D230BC530724BFB1E80810A0E808108B
:1040F00044BF51F8043B40F8043BD20724BF31F8D9
:10410000022B20F8022B44BF0B7803707047083A4B
:1041100007D3B1E80810083A40F8043B40F804CB54
:10412000F7D25307E4E7F8B504460D4616461F4696
:1041300000F09CFA3B4632462946204601B0BDE8D5
:10414000F04000F0AABA00000278C9B28A421AB15F
:104150001CBF10F8012FF9E718BF002070470000BE
:1041600000F10103810704D010F8011B89B1810718
:10417000FAD10268B2F10131914311F0803F04BFDE
:1041800050F8042FF6E710F8011B11B110F8011BCD
:10419000FBE7C01A70470000C9B2830706D0521E61
:1041A00022D310F8013B9942F7D11FE0083A13D30C
:1041B00002F1040241EA012141EA014150F8043BC5
:1041C000121F21BF4B40A3F1013C2CEA030C1CF051
:1041D000803FF3D0C9B2001F083210F8013B521ED5
:1041E00028BF91EA030FF8D818BF0120401E70477E
:1041F00080B500F03BFA012002BD000070B5054615
:1042000005F10F00C408E400C046C046A54232D202
:10421000082C04D2082402E0083000F055F82248A7
:10422000026811000CD1011D0A6802B31368A34291
:1042300038BF111DF8D310E01D68A5420DD2191D1D
:104240000B68002BF8D11268011D00E0191D0B68E6
:1042500093420CD01D68A542F8D361B10D682A685D
:10426000A2F10803A3420AD26A680A600FE000F0D4
:1042700037FA0028D0D1C046C046002070BD63196F
:104280000B60121B6E685E600B681A602C60096818
:1042900000291DBF4A68002A091D00210160C0468F
:1042A000C04605F1080070BD7006002070B50446D8
:1042B0000D46164600F0DAF9324629462046BDE89A
:1042C000704000F0DDB9000000B9704710B5A0F1F2
:1042D00008042068082833D310F0070F30D1C046F7
:1042E000C0461848416809B18C4203D261604460FD
:1042F00017E019464B680BB1A342FAD30A6853186A
:104300009C421BD3A34204D123689A180A600C462E
:1043100007E04A681AB123681B199A420ED36260FB
:104320004C60616851B1226813198B4206D1002399
:10433000036008688018206048686060C046C04616
:1043400010BD0000700600201B4213D1094236D177
:104350002AB18446B0FBF2F002FB10C2704700F0B5
:10436000D5B9FCD30022002370470B0002000021C6
:1043700000207047904271EB030CF6D370B5B1FA90
:1043800081F4B3FA83F52C1BA340C4F1200532FA63
:1043900005F63343A2405FF00046E64002E05B08CA
:1043A0005FEA3202841A71EB030524BF20462946D6
:1043B0007641F4D302000B003000002170BD012AC9
:1043C000CFD970B5140C20D0B1FA81F4B2FA82F5CD
:1043D000C4F120046419B4F12006D6D3B2405FF0D2
:1043E0000044F440002502E052085FEA3303C61A95
:1043F00071EB020E24BF3046714664416D41F3D328
:1044000002000B002000290070BD0C46B1FBF2F148
:1044100002FB11452D0445EA1045B5FBF2F402FB01
:10442000145580B240EA0545B5FBF2F002FB10528C
:1044300040EA044070BD30B4436803F000420121FB
:104440001B031B0B436004BF0368002B08D10DE066
:104450000368DD0F45EA440444605B000360491EC5
:104460004468E302F4D523031B0B436043681A43FB
:104470004260084630BC704770B504460D4660681F
:10448000C0F30A5040F2FF71884207D16068000310
:1044900004BF2068002817D0022070BD20B9204634
:1044A000FFF7C9FF012867DA012D0FDB40F2FF712A
:1044B000091A8D420AD3606800284CBF9FED2F0B6C
:1044C0009FED300B84ED000B012070BD4142A942ED
:1044D000616806DA6FF31E51401941EA00506060CE
:1044E00041E0401E63680122451962F31F5305F144
:1044F000350001F000416360352803D3616000207E
:10450000206070BD002215F11F0F04DA22682360BD
:10451000002020356060684213D0521E2568924109
:10452000C0F12003D2439D4045EAD27225686668F7
:10453000C54006FA03F32B432360636823FA00F0B7
:104540006060606808436060B2F1004F03D80DD12D
:104550002078C0070AD52068401C2060206828B950
:104560006068401C60604FF0FF3070BD606888423A
:1045700004BF20680028F6D1002070BD00000000B4
:104580000000F0FF000000000000F07FF446400D46
:1045900040EAC120490006D200F014F8004248BFAA
:1045A0006FF00040604700F00DF84FF00041884286
:1045B0008CBF084640426047400D40EAC120490098
:1045C00080F00D8040F00040490DA1F58061491C4C
:1045D00005D4D1F11F0154BFC840C01770474FF038
:1045E0000000704780B5134800F091F80FF24801C1
:1045F000016041608160C1600161416181610FF2D0
:104600003C0242628162C162016341630FF2300287
:1046100082630FF23402C2630164416401BD10B5CC
:10462000044800F074F80446206808B9FFF7DAFF80
:10463000204610BD00000020000000002E000000F9
:1046400066616C736500000074727565000000009F
:1046500091FBF2F303FB1211C0E900317047000037
:10466000014800F054B800000802002080B5DFF8CF
:104670000C0000F04CF8806902BD000090000020A2
:1046800030B430B90FF24800D0E90045C2E9004526
:104690001BE00170012030BC704730B431B90FF21B
:1046A0003800D0E90045C3E900450EE01AB930BC36
:1046B0006FF00100704708B10A7802800978481E3F
:1046C000804130BCC043C00F7047002030BC7047F1
:1046D00000000000000000000000000000000000DA
:1046E0000749086808B1002070470648C008C000A4
:1046F00008600549C908C900091A0160704700BF70
:104700008C060020B70A0020B00C002070477047CC
:1047100080B54E48006850F001004C4908604C4894
:1047200000210160494800684A490840474908603B
:1047300049484A4901604548006830F480204349AF
:10474000086047480021016000F005F845485FF027
:104750000061016001BD82B0002001900020009046
:104760003A48006850F4803038490860374800689B
:1047700010F4003000900198401C0190009800282F
:1047800003D10198B0F5A06FF0D1304800688003E4
:1047900002D50120009001E000200090009801283F
:1047A0003ED13148006850F080502F4908602F48B2
:1047B000006850F480402D49086025482449096864
:1047C00001602348006850F40040214908602048F7
:1047D000006850F4A0501E4908601F482449016039
:1047E0001A48006850F0807018490860174800683F
:1047F0008001FBD51F4840F2056101601448006844
:1048000080088000124908601148006850F00200DA
:104810000F4908600E48006810F00C000828F9D114
:104820000B48006830F40000094908601248134939
:1048300001600648006850F0806004490860034841
:1048400000680001FBD502B070470000003802404C
:1048500008380240FFFFF6FE043802401030002402
:104860000C38024008ED00E0403802400070004083
:1048700008544007003C0240843802400030005099
:1048800010B4364A0021134653F8084B844207D12E
:10489000002342F8313002EBC1014B6010BC70477D
:1048A00053F8084B491C84421EBF491C53F8084B5F
:1048B00084421EBF491C53F8084B8442E8D0491C6F
:1048C0001029E1D310BC704770B4244C0023254656
:1048D00055F8086B8E4209D1014604EBC303012A47
:1048E00004BF5A685118596070BC704755F8086B7E
:1048F0005B1C8E421EBF5B1C55F8086B8E421EBFB0
:104900005B1C55F8086B8E42E6D05B1C102BDFD386
:1049100070BC704710B4114A0021134653F8084B7D
:10492000844204D102EBC10010BC4068704753F8C8
:10493000084B491C84421EBF491C53F8084B844253
:104940001EBF491C53F8084B8442EBD0491C102968
:10495000E4D310BC00207047000000005404002085
:104960002DE9F04104460D462078032116461F46E6
:10497000084258D0204600F09AF8002853D115B1CB
:10498000D5E900018619012F3DD12088C00416D534
:10499000A16904F13D02204600F0A6F8626A804653
:1049A00002B92269E168204600F09EF8A6EB0801F2
:1049B0000E1AA26AE168204600F096F8361A46BB45
:1049C00020884FF4405108420ED06068E0602061BA
:1049D000A06260616068E06204F23D00A06104F1E1
:1049E0002400E061002060622DB1D5E9022304F1CA
:1049F0003000C0E9002320884CF6FF610840208089
:104A00000020BDE8F081022F03D04FB916F1010F4D
:104A100009D094F903003A46314600F06BF8064697
:104A200016F1010FCCD1FFF71BFE232101604FF0DF
:104A3000FF30BDE8F081000038B500F081F8044691
:104A4000208880042ED5656809E04A1B294600F0BD
:104A500079F810F1010F18BF00280CD04519E16852
:104A600094F903008D42F0D30022002100F06AF88F
:104A700010F1010F0DD16068E0606061E062208894
:104A800040F400702080204600F05BF84FF0FF30CB
:104A900032BD6568E5606561E5624DF6FF712088AD
:104AA00008402080204600F04CF8002032BDF8B5C8
:104AB000A0B9C046C04600240A4D08264FF0FF3773
:104AC000286820B1FFF7B8FF002848BF3C462D1DDD
:104AD000761EF5D1C046C0462046F2BDBDE8F24084
:104AE000AAE70000BC010020914201D2501A704791
:104AF0000020704730B583B004000D00012A02D1B8
:104B0000FFF708FF07E0022A07D100940020019078
:104B100069460C20ABBE2D1801E0002A0CD1009490
:104B2000019569460A20ABBE002805D1002221006C
:104B30002800FFF7C9FE01E00020C04303B030BDEC
:104B40007047704780B5002802D400F003F802BD1A
:104B5000002002BD80B5002901D1002002BD01283E
:104B600001D0022802D100F004F802BD00F011F8D3
:104B700002BD30B583B00C001500012000F032F802
:104B800000900194029569460520ABBE281A03B037
:104B900030BD10B584B01300009001910293012242
:104BA000040069460520ABBE181A2100FFF78CFEF1
:104BB00004B010BD80B500F033F802000023DB43E1
:104BC0001068984204D011000220ABBE0020106093
:104BD0005068984204D0111D0220ABBE00205060E6
:104BE00001BD000010B584B0040000F019F8A10068
:104BF000421810680021C94388420DD107A00090D7
:104C0000002C01D1002000E004200190032002903C
:104C100069460120ABBE106004B010BD3A74740048
:104C200000487047EC01002010B50446E068616957
:104C3000884252D3218849F202020A40022A08D04F
:104C400008044CBF4FF400704FF4844008432080A8
:104C50003CE001F4C041B1F5C04F06D1A1688842E3
:104C600003D32046FFF723FF80BB20884FF4406129
:104C7000084202BF606804F13D01884217D14FF439
:104C80000070FFF7BBFA606030B904F23D0060606D
:104C9000E060401CA0600AE0218841F040012180D2
:104CA000E06000F50071A160A0626068E062606889
:104CB0002061A0686061207840070AD502220021A7
:104CC000204600F00CF810F1010F02D14FF0FF3038
:104CD00010BD208840F4C0402080002010BD70B579
:104CE0000C461546FFF72CFF06462B4622460021B0
:104CF000FFF736FE04463046FFF723FF204670BD1F
:104D0000816807E002681168536889185B18C360FE
:104D100008320260C2689142F4D04A1C826008786E
:104D200070472DE9FF4D00F1080100914FF0000A96
:104D30000168009A490802EBC1010191D3460021A4
:104D4000029103910168490800EBC101406800F03D
:104D5000010501F10804400804EBC0061FE000A8AB
:104D6000FFF7CEFF47B200A8FFF7CAFF8046DA453B
:104D70000DD1B44208BF00F01BF8D4F800A005B173
:104D8000CA44606800EB0A0B0834DA45F1D00AF82F
:104D9000018B002F09D57F1CE9D1DA45DFD1B44260
:104DA000DDD1304604B0BDE8F08D7F1EDBD5F4E7E1
:104DB000012000F001B8000080B5FFF7FBFE024AB9
:104DC00011001820ABBEFBE7260002007047FEE78B
:104DD000FEE7FEE7FEE77047704770471848008817
:104DE000411C174A118080B2002806D0012805D046
:104DF00042F20F71884202D021E020E01FE010480B
:104E0000002101800F4800783B2803DA0D48007824
:104E1000401C00E000200B4908700A480078002878
:104E200009D1094800783B2803DA07480078401C7C
:104E300000E0002001E00448007803490870704752
:104E4000A2060020A6060020A70600200178090679
:104E500027D51D4A13680021834204D1002342F85C
:104E60002130FFF731BA0121536883421EBF02216E
:104E700093688342F2D0D368032183421EBF04218A
:104E800013698342EAD05369052183421EBF06217C
:104E9000936983421EBF0721D3698342DED0FFF7A7
:104EA00013BA002101804FF0FF31C17000F23D01C3
:104EB0004160C160016181624161C162816100F153
:104EC0002401C16170470000BC01002038B50446D0
:104ED00003212078084202D06056002809D5C04638
:104EE000C0462046FFF7B2FFC046C0464FF0FF3530
:104EF00027E02046FFF7DBFD0546C046C046207888
:104F0000400644BF6068FFF7DFF90020606094F955
:104F10000300022804D900F016F808B14FF0FF355D
:104F2000A06B48B100F01CF808B14FF0FF35A06B42
:104F3000FFF7CAF90020A0632046FFF787FFC046AD
:104F4000C046284632BD10B582B0020000926946C4
:104F50000220ABBE04001000FFF792FC200016BD3B
:104F600000B583B00090FFF7FBF8019069460E2072
:104F7000ABBE03B000BD000010B5144C206808B1F2
:104F8000FFF7A4FF606808B1FFF7A0FFA06808B1B1
:104F9000FFF79CFFE06808B1FFF798FF206908B1B0
:104FA000FFF794FF606908B1FFF790FFA06908B1AF
:104FB000FFF78CFFE06908B1FFF788FFBDE81040FC
:104FC000002200214FF0FF30FFF7BCBDBC010020E4
:104FD00038B505460846FFF7B3FD0446E068616949
:104FE000884204D32046FFF71FFE002810D4E06853
:104FF000401CE06000F8015D2088010504D44005F4
:105000000CD5EDB20A2D09D12046FFF750FD28B18D
:105010002046FFF796FD4FF0FF3032BD2046FFF7E8
:1050200090FDE8B232BD000010B50749794418314F
:10503000064C7C44163404E00A68081D5118884761
:105040000146A142F8D110BD080000003000000068
:10505000C3C9FFFF9C0400001002002000000000F4
:10506000C3FCFFFF020000000200000090020000ED
:10507000AC000000000000200D0200004EF6885138
:10508000CEF20001086840F4700008604FF0007034
:10509000E1EE100A7047000000F009F8002801D086
:1050A000FFF7C2FF0020FBF79FF800F002F8012095
:1050B000704700F001B800000746FFF75DFF384673
:1050C000FFF77AFEFBE738B504460D46284600F0A8
:1050D00005F8A84218BF0024204632BD0149FFF759
:1050E00077BF00BF3C0100204779726F2059206FC5
:1050F00066667365743A2025640A00004779726F0A
:10510000205A206F66667365743A2025640A000091
:105110004163632058206F66667365743A20256486
:105120000A0000004163632059206F66667365744E
:105130003A2025640A000000416363205A206F660C
:10514000667365743A2025640A0000004779726F1F
:10515000205820616E676C65203A2025660A0000A1
:105160004779726F205920616E676C65203A20255F
:10517000660A0000014880470148004711470008BF
:1051800085510008C046C046FFF778FFFFF784FF4F
:10519000FFF71CBEFFF71BBEFFF71ABEFFF719BED5
:1051A000FFF718BEFFF717BEFFF716BEFFF715BED5
:1051B000FFF714BEFFF7FEBFFFF7FEBFFFF7FEBF0E
:1051C000FFF7FEBFFFF7FEBFFFF7FEBFFFF7FEBF13
:1051D000FFF7FEBFFFF7FEBFFFF7FEBFFFF7FEBF03
:1051E000FFF7FEBFFFF7FEBFFFF7FEBFFFF7FEBFF3
:1051F000FFF7FEBFFFF7FEBFFFF7FEBFFFF7FEBFE3
:10520000FFF7FEBFFFF7FEBFFFF7FEBFFFF7FEBFD2
:10521000FFF7FEBFFFF7FEBFFFF7FEBFFFF7FEBFC2
:10522000FFF7FEBFFFF7FEBFFFF7FEBFFFF7FEBFB2
:10523000FFF7FEBFFFF7FEBFFFF7FEBFFFF7FEBFA2
:10524000FFF7FEBFFFF7FEBFFCF72AB9FFF7FEBF6F
:10525000FFF7FEBFFFF7FEBFFFF7FEBFFFF7FEBF82
:10526000FFF7FEBFFFF7FEBFFFF7FEBFFFF7FEBF72
:10527000FFF7FEBFFFF7FEBFFFF7FEBFFFF7FEBF62
:10528000FFF7FEBFFFF7FEBFFFF7FEBFFFF7FEBF52
:10529000FFF7FEBFFFF7FEBFFFF7FEBFFFF7FEBF42
:1052A000FFF7FEBFFFF7FEBFFFF7FEBFFFF7FEBF32
:1052B000FFF7FEBFFFF7FEBFFFF7FEBFFFF7FEBF22
:1052C000FFF7FEBFFFF7FEBFFFF7FEBFFFF7FEBF12
:1052D000FFF7FEBFFFF7FEBFFFF7FEBFFFF7FEBF02
:1052E000FFF7FEBFFFF7FEBFFFF7FEBFFFF7FEBFF2
:1052F000FFF7FEBFFFF7FEBFFFF7FEBFE400F8FFBA
:10530000DC00FAFF8100D1001F0104000039010018
:10531000203A010020390100203901002039010024
:10532000203901002020010020E0001F02040101BB
:1053300024050020740500202405002024050020F9
:10534000240500207901002060010020E0001F02F8
:10535000080202D404002024050020D4040020D434
:10536000040020D4040020B9010020A0010020E0A6
:10537000000BFC0000203C0100207C010020E80024
:105380000B010203040102030406070809F8FF13D6
:10539000CDCCCC3ECDCC4C3E00007A440000A041A8
:0853A000007A030AFC00000181
:040000050800518519
:00000001FF
