:020000040800F2
:1000000080040020B91800085F1800086118000873
:100010006318000865180008671800080000000051
:100020000000000000000000000000006918000847
:100030006B180008000000006D1800086F18000819
:1000400005190008091900080D1900081119000800
:1000500015190008191900081D19000821190008B0
:1000600025190008291900082D1900083119000860
:1000700035190008391900083D1900084119000810
:1000800045190008491900084D19000851190008C0
:1000900055190008591900085D1900086119000870
:1000A00065190008691900086D1900087119000820
:1000B00075190008791900087D19000881190008D0
:1000C00085190008891900088D1900089119000880
:1000D00095190008530300089D190008A11900088C
:1000E000A5190008A9190008AD190008B1190008E0
:1000F000B5190008B9190008BD190008C119000890
:10010000C5190008C9190008CD190008D11900083F
:10011000D5190008D9190008DD190008E1190008EF
:10012000E5190008E9190008ED190008F11900089F
:10013000F5190008F9190008FD190008011A00084E
:10014000051A0008091A00080D1A0008111A0008FB
:10015000151A0008191A00081D1A0008211A0008AB
:10016000251A0008291A00082D1A0008311A00085B
:10017000351A0008391A00083D1A0008411A00080B
:10018000451A0008491A0008FEB500A8DFF8B017A4
:10019000092200F029FC012400F0B8FB00F004FA69
:1001A00000F01CFA42F2F03000F077F800F048F866
:1001B00000F0A0FA00F02DFA642000F0CDFA6420DF
:1001C00000F044FB002000F020F8012000F029F8A6
:1001D0004FF4FA71012000F056FA0021022000F0DD
:1001E00052FA0021032000F04EFA0021042000F012
:1001F0004AFA1E25012600273C21012000F043FA7F
:100200001E21012000F03FFAF6E7002804D0DFF8B5
:10021000381701220A8003E0DFF8301701220A8034
:100220007047002805D0DFF828174FF400420A80F5
:1002300004E0DFF820174FF400420A807047FEE721
:1002400080B5DFF8140740210170DFF80C070021AA
:100250004170DFF8040707218170DFF8FC060021F8
:10026000C170DFF8F40600210171DFF8EC0600F040
:10027000FDFB1E2000F036FADFF8E00620210170B9
:10028000DFF8D80601214170DFF8D0060C2181701B
:10029000DFF8C80600F003FC01BD10B588B004000B
:1002A0000121102000F0D6FD0121022000F0B4FD54
:1002B000C020019002208DF8080002208DF809006E
:1002C00000208DF80A0000208DF80B0001A9DFF84E
:1002D000900600F001FE07220621DFF8840600F0F8
:1002E00054FE07220721DFF8780600F04EFE039443
:1002F0000020ADF810000020ADF812000020ADF88D
:1003000014000020ADF818000C20ADF8160003A969
:10031000DFF8300600F066FE012240F22551DFF8DA
:10032000240600F0EBFE25208DF8000000208DF85B
:10033000010000208DF8020001208DF8030000A8C4
:1003400000F03EFF0121DFF8FC0500F0C9FE08B017
:1003500010BD80B540F22551DFF8E80500F0F9FE48
:10036000002800F02081DFF8FC050088C0B26E286C
:1003700000F01581DFF8F0150978142980F20F815B
:10038000DFF8E4150978DFF8E4258854DFF8D8159C
:100390000978042940F0C480DFF8CC150978DFF82B
:1003A000CC25891811F8041C4C2958D1DFF8B81550
:1003B0000978DFF8B825891811F8031C582921D1CC
:1003C000DFF8A4150978DFF8A425891811F8021CB4
:1003D000642211FB02F1DFF890251278DFF88C35EA
:1003E000D21812F8012C0A2312FB0311DFF878252A
:1003F0001278DFF87835D25C51183031DFF870258B
:1004000011708DE0DFF860150978DFF86025891834
:1004100011F8031C592940F08380DFF84C15097846
:10042000DFF84825891811F8021C642211FB02F13B
:10043000DFF834251278DFF83435D21812F8012CA1
:100440000A2312FB0311DFF820251278DFF81C3590
:10045000D25C51183031DFF81C25117060E0DFF8F4
:1004600008150978DFF80425891811F8041C5229A9
:1004700056D1DFF8F4140978DFF8F024891811F860
:10048000031C582921D1DFF8E0140978DFF8DC24B7
:10049000891811F8021C642211FB02F1DFF8C8244C
:1004A0001278DFF8C834D21812F8012C0A2312FB94
:1004B0000311DFF8B4241278DFF8B034D25C51189D
:1004C0003031DFF8B42411702AE0DFF89C14097889
:1004D000DFF89824891811F8031C592920D1DFF876
:1004E00088140978DFF88424891811F8021C642222
:1004F00011FB02F1DFF870241278DFF87034D218A3
:1005000012F8012C0A2312FB0311DFF85C24127885
:10051000DFF85834D25C51183031DFF860241170A4
:10052000DFF844140978DFF84424891811F8011C15
:10053000432906D1C0B2312803D1DFF84414012287
:100540000A70DFF824140978DFF82024891811F8DC
:10055000011C432906D1C0B2302803D1DFF8201492
:1005600000220A70DFF800140978022291FBF2F3EE
:1005700003FB1213002B05D0DFF808144FF40042E0
:100580000A8004E0DFF800144FF400420A80DFF82C
:10059000D8130978491CDFF8D023117003E0DFF885
:1005A000C81300220A7001BD00B583B001210220EA
:1005B00000F032FC0120009001208DF804000020A2
:1005C0008DF8060001208DF8070002208DF8050047
:1005D00000A9DFF88C0300F07FFC07BD00B583B0F5
:1005E0000121012000F018FC4FF400400090012090
:1005F0008DF8040000208DF8060001208DF807001A
:1006000002208DF8050000A9DFF8800300F064FCEB
:1006100007BD00B583B00121022000F00CFC0121D0
:10062000062000F0F9FBC020009002208DF80400A5
:1006300003208DF8050000208DF8060001208DF8BC
:10064000070000A9DFF8480300F046FC03200090F3
:1006500000A9C34800F040FC02220621DFF8300365
:1006600000F093FC02220721DFF8240300F08DFC48
:1006700002220021BA4800F088FC02220121B84879
:1006800000F083FC07BD80B2012806D1C14A89B2BF
:100690001160C14A89B2116019E080B2022806D106
:1006A000BE4A89B21160BE4A89B211600FE080B2C1
:1006B000032806D1BB4A89B21160BB4A89B21160D6
:1006C00005E0BA4A89B21160B94A89B2116070472F
:1006D000B8480068002804D0B6480068401EB549F4
:1006E0000860704701B40098411E00910028FAD1BB
:1006F00001B0704700B583B00121102000F08CFBE1
:100700000121012000F0A6FB4FF4D440009002200C
:100710008DF8040003208DF8050000208DF80600F8
:1007200000208DF8070000A9A34800F0D5FB0122A6
:100730000921A14800F029FC01220B219E4800F06C
:1007400024FC01220D219C4800F01FFC01220E21F7
:10075000994800F01AFC07BD38B5040000259748F9
:10076000006840084FF47A51B0FBF1F0401E0500DC
:100770009348058092480021418091484460904808
:10078000002101818E48002181728D498D4800F041
:1007900055FD8D48702101808B48012141808A4898
:1007A000042181808848002181608748022181815D
:1007B00085480821C18184484FF4807101828248B4
:1007C0000021418280497F4800F089FD7E487F49B1
:1007D000098881607C497B4800F0C0FD7A487C49EB
:1007E000098881607849774800F0FEFD76487949AC
:1007F000098881607449734800F03BFE76484FF4E5
:100800000061018074484FF48061418072484FF468
:100810008071818070480B21C1806F484FF48051F6
:1008200001816D484FF4005141816B484FF4804184
:1008300081816949634800F085FE0121614800F02B
:1008400040FD01215F4800F08DFE31BD38B5040048
:1008500000255A48006840086049B0FBF1F0401E8E
:1008600005005748446056480580554800210181DD
:100870005348002141805249594800F0DFFC52485A
:10088000602101805048012141804F480021816052
:100890004D48002181814C49514800F020FD08213C
:1008A0004F4800F029FE4848012141804648002178
:1008B000816045494A4800F051FD0821484800F050
:1008C00024FE4148012141803F48002181603E498A
:1008D000434800F089FD0821414800F020FE3A48D5
:1008E0000121418038480021816037493C4800F0AF
:1008F000C0FD08213A4800F01BFE0121384800F0F5
:10090000D2FC0121364800F0DCFC31BD00B583B0DB
:100910000121082000F080FA4FF47040009001207F
:100920008DF8040002208DF8050000208DF80600E7
:1009300000208DF8070000A92A4800F0CDFA07BD75
:10094000C818000800100140180402401A040240B0
:10095000180002401A000240600000206C000020D5
:1009600000040240041001407B0000201800002019
:100970007700002078000020790000207A00002015
:1009800076000020180C02401A0C024000000240C1
:1009900000080240340400403400014038040040A4
:1009A000380001403C0400403C000140400400404D
:1009B00040000140680000200010024014000020A8
:1009C0005400002000000140300000207000002092
:1009D000720000207400002044000020003FAB01A2
:1009E00000040040000C0240103A07D330B4B1E8D4
:1009F0003810103AA0E83810F9D230BC530724BFA1
:100A0000B1E80810A0E8081044BF51F8043B40F8D2
:100A1000043BD20724BF31F8022B20F8022B44BF3D
:100A20000B7803707047083A07D3B1E80810083A0A
:100A300040F8043B40F804CBF7D25307E4E710B486
:100A400050F8041B81B102681218001D50F8043BD5
:100A5000DC0744BFA9F10104E31852F8044B43F842
:100A6000044B091FF9D1EBE710BC704710B582B0F9
:100A7000040000208DF8000000F074F86078217800
:100A80000843E178084321790843A17808438DF8A9
:100A900000000122202100A800F022F813BD10B5AB
:100AA00082B0040000208DF800000122212100A85E
:100AB00000F035F89DF8000010F0D0008DF800002F
:100AC0009DF80000217862781143A2781143084311
:100AD0008DF800000122212100A800F001F813BDCB
:100AE00070B504000D001600B6B2022E01DB55F001
:100AF00040050821844800F046FA2800C0B200F002
:100B0000CAF8B6B2002E05D0207800F0C4F8761EE0
:100B1000641CF6E708217C4800F033FA70BD70B51C
:100B200004000D001600B6B2022E02DB55F0C0051F
:100B300001E055F080050821734800F024FA2800F0
:100B4000C0B200F0A8F8B6B2002E06D0002000F027
:100B5000A2F82070761E641CF5E708216A4800F0B0
:100B600010FA70BD00B587B001214FF4805000F03D
:100B700071F90121012000F04FF90121102000F04E
:100B80004BF90121102000F047F90121102000F05D
:100B900043F9052205215D4800F0F7F905220621F9
:100BA0005A4800F0F2F905220721584800F0EDF903
:100BB00002208DF8040000208DF8060002208DF838
:100BC000070002208DF805002020009000A94F4862
:100BD00000F082F98020009000A94C4800F07CF9D8
:100BE0004020009000A9494800F076F9484800F0FC
:100BF000DBFC0020ADF808000020ADF80C00002060
:100C0000ADF80E000020ADF810004FF40070ADF804
:100C100012000820ADF814000020ADF816000720DF
:100C2000ADF818004FF48270ADF80A0002A93848F8
:100C300000F0E6FC0121364800F008FD0820009095
:100C400001208DF8040000208DF8060002208DF8A8
:100C5000050000A92C4800F03FF908212A4800F0BF
:100C600090F90120009000208DF8040000208DF8FC
:100C7000060002208DF8050000208DF8070000A96D
:100C8000214800F029F90220009000A91E4800F038
:100C900023F907B000BD10B504001E484FF4805181
:100CA000016002211A4800F0E3FC00280AD119482B
:100CB0000068411E174A11600028F2D1FFF7BFFA01
:100CC000C0B21EE0E4B2210089B2114800F0CEFCAF
:100CD00010484FF48051016001210D4800F0C8FC1C
:100CE00000280AD10B480068411E0A4A11600028FA
:100CF000F2D1FFF7A4FAC0B203E0054800F0B4FC5B
:100D0000C0B210BD00000000001002400000024010
:100D10000030014010000020F0B400210022002328
:100D2000022400250226DFF888713F6817F00C07BF
:100D300039000F00002F04D0042F06D0082F08D050
:100D40003CE0DFF8747107603BE0DFF8707107602A
:100D500037E0DFF860713F68C7F380573D00DFF888
:100D600054713F6817F03F073E00002D0DD0DFF8AB
:100D70004C71B7FBF6F7DFF83CC1DCF800C0CCF3F0
:100D8000881C0CFB07F73B000CE0DFF82C71B7FB6D
:100D9000F6F7DFF820C1DCF800C0CCF3881C0CFBB0
:100DA00007F73B00DFF80C713F68C7F301477F1C72
:100DB0007F003C00B3FBF4F7076002E0DFF8F87057
:100DC0000760DFF8EC703F6817F0F0073900090999
:100DD000DFF8EC70CF5D3A000768D7404760DFF876
:100DE000D0703F6817F4E0573900890ADFF8D070F7
:100DF000CF5D3A004768D74087602D4F3F6817F4B2
:100E000060473900490BDFF8B870CF5D3A0047689A
:100E1000D740C760F0BC7047C9B2002905D0294A45
:100E200012680243274B1A6004E0264A1268824384
:100E3000244B1A607047C9B2002905D0224A1268B3
:100E40000243214B1A6004E01F4A126882431E4B82
:100E50001A607047C9B2002905D01C4A12680243C3
:100E60001A4B1A6004E0194A12688243174B1A6041
:100E70007047C9B2002905D0154A12680243144BC5
:100E80001A6004E0124A12688243114B1A607047DC
:100E9000C9B2002905D00F4A126802430D4B1A60EF
:100EA00004E00C4A126882430A4B1A607047000043
:100EB00008380240043802400024F40000127A008E
:100EC00000000020303802404038024044380240E0
:100ED0002038024024380240F0B4002200230024CD
:100EE00000252A00102A4AD2012595402B000D68C2
:100EF0001D402C009C4240D1056803261700FFB21C
:100F00007F00BE40B543056005680E791700FFB24B
:100F10007F00BE40354305600D79012D02D00D796B
:100F2000022D1AD1856803261700FFB27F00BE404C
:100F3000B543856085684E791700FFB27F00BE40DB
:100F400035438560456801269640B5434560456850
:100F50008E799640B6B235434560C56803261700C2
:100F6000FFB27F00BE40B543C560C568CE791700AB
:100F7000FFB27F00BE403543C560521CB2E7F0BCF3
:100F800070470183704741837047F0B40023002409
:100F9000D2B211F00705EDB2AD0012FA05F52B0043
:100FA00089B2CD1010EB850589B2CE1010EB860604
:100FB000366A0F2711F0070C5FFA8CFC5FEA8C0C85
:100FC00017FA0CF7BE432E6289B2CD1010EB8505DF
:100FD0002D6A1D432C0089B2CD1010EB85052C62C3
:100FE000F0BC70472DE9F04385B004000D005FF0C0
:100FF0000009002600275FF00008A8890028208A41
:10100000814639F44059E88850EA0909A4F810905B
:10101000A0898146314810EA0909A888298908432E
:101020006989084350EA0909A4F80C90A08A81460E
:1010300039F44079A88950EA0909A4F8149000A865
:10104000FFF76AFE2348844202D02348844202D13B
:101050000398060001E002980600A089000408D564
:10106000192000FB06F029684900B0FBF1F00700E9
:1010700007E0192000FB06F029688900B0FBF1F0B9
:1010800007006420B7FBF0F0000181465FEA191009
:10109000642101FB10708046A08900040AD55FEA34
:1010A000C80032306421B0FBF1F010F0070050EAC4
:1010B000090909E05FEA081032306421B0FBF1F061
:1010C00010F00F0050EA0909A4F8089005B0BDE837
:1010D000F08300000010014000140140F3E9FFFF1D
:1010E000C9B2002904D0828952F40052828104E0FE
:1010F00082894DF6FF731A4082817047F0B4002355
:1011000000240025002689B240F66A17B94206007D
:101110000F00FFB27F09FFB23B0089B211F01F0739
:101120003C000127A7403D00012B01D10C3604E013
:10113000022B01D1103600E01436D2B2002A03D0BF
:1011400037682F43376002E03768AF433760F0BC41
:10115000704770B40200002300250024002089B2EB
:1011600040F66A16B1420E00F6B27609F6B23400C5
:1011700089B211F01F063500012616FA05F5012C7B
:1011800002D19689354006E0022C02D1168A3540FC
:1011900001E0968A354089B20E0AB6B233000126C4
:1011A00016FA03F316883340002D04D0002B02D02A
:1011B0000126300001E000263000C0B270BC70474C
:1011C000F0B4002300210F22C478002C21D0174C4A
:1011D000246814F4E064D4F5E064240A2300D3F115
:1011E00004042100D2B21A4144788C402300847850
:1011F000144023431B0104780D4D6355047864119A
:101200000C4D0126077817F01F07BE4045F82460F3
:1012100009E004786411084D0126077817F01F07CC
:10122000BE4045F82460F0BC704700000CED00E0C3
:1012300000E400E000E100E080E100E0002203883B
:101240001A00A64B98420ED0AA4B98420BD0B0F190
:10125000804F08D0A24B984205D0A24B984202D0B2
:10126000A14B984204D14FF68F731A404B881A4312
:101270009E4B984207D09E4B984204D04FF6FF43B6
:101280001A400B891A4302804B68C3620B8803859E
:10129000924B984202D0974B984201D18B7A0386A9
:1012A000012383827047C9B2002904D0028852F01A
:1012B0008002028004E002884FF67F731A400280A9
:1012C0007047C9B2002904D0028852F0010202809E
:1012D00004E002884FF6FE731A400280704770B433
:1012E000002300240022058C4FF6FE76354005844D
:1012F000058C2C0085882A00058B2B004FF68F75F6
:101300002B404FF6FC752B400D882B434FF6FD7597
:101310002C408D892C434D882C43704DA84202D01F
:10132000744DA84213D14FF6F7752C40CD892C434C
:101330004FF6FB752C408D882C434FF6FF652A40F5
:101340004FF6FF552A400D8A2A434D8A2A43828050
:1013500003838D684563048470BC704770B40023B8
:1013600000240022058C4FF6EF7635400584058C6D
:101370002C0085882A00058B2B0048F6FF752B4032
:101380004FF6FF452B400D8853EA05234FF6DF75D6
:101390002C408D8954EA05144D8854EA05144F4DAC
:1013A000A84202D0534DA84217D14FF67F752C406A
:1013B000CD8954EA05144FF6BF752C408D8854EA48
:1013C00005144FF6FF352A404FF2FF752A400D8A6B
:1013D00052EA85024D8A52EA8502828003838D6833
:1013E0008563048470BC704770B40023002400221D
:1013F000058C4FF6FF6635400584058C2C008588EA
:101400002A00858B2B004FF68F752B404FF6FC750D
:101410002B400D882B434FF6FF552C408D8954EA05
:1014200005244D8854EA05242C4DA84202D0314DA4
:10143000A84217D14FF2FF752C40CD8954EA0524FC
:101440004FF6FF352C408D8854EA05244EF6FF7583
:101450002A404DF6FF752A400D8A52EA05124D8A40
:1014600052EA0512828083838D68C563048470BC50
:10147000704770B4002300240022058C4EF6FF76DE
:1014800035400584058C2C0085882A00858B2B002F
:1014900048F6FF752B404FF6FF452B400D8853EA69
:1014A00005234DF6FF752C408D8954EA05344D888F
:1014B00054EA0534094DA84202D00E4DA84205D188
:1014C0004BF6FF752A400D8A52EA8512828083838B
:1014D0008D680564048470BC704700000000014002
:1014E0000004004000080040000C004000100040D4
:1014F00000140040000401400022038B1A004FF644
:10150000F7731A400A43028370470022038B1A00C4
:101510004FF2FF731A4052EA012202837047002201
:10152000838B1A004FF6F7731A400A438283704781
:101530000022838B1A004FF2FF731A4052EA0122F5
:10154000828370470A884B881A438B881A43CB885A
:101550001A430B891A434B891A438B891A43A0F803
:1015600044207047C9B2002906D0B0F8442052F494
:101570000042A0F8442005E0B0F844205204520C88
:10158000A0F84420704750F8041B61B150F8042BB8
:10159000D30744BFA9F101039A18002342F8043B82
:1015A000091FFAD1EFE7704710B5040024488442C0
:1015B0000AD101214FF48050FFF76AFC00214FF45B
:1015C0008050FFF765FC1AE01E4884420AD10121D1
:1015D0004FF48040FFF74DFC00214FF48040FFF7AF
:1015E00048FC0CE01848844209D101214FF4004026
:1015F000FFF73FFC00214FF40040FFF73AFC10BD1D
:1016000010B4002203881A0012F441520B884C884F
:1016100023438C882343CC8823430C8923434C8960
:1016200023438C892343CC8923431A430280838B31
:101630004FF2FF74234083830B8A038210BC7047F0
:101640000030014000380040003C0040C9B2002991
:1016500004D0028852F04002028004E002884FF673
:10166000BF731A400280704780897047818170473C
:101670000200002013890B4202D00123180001E070
:1016800000231800C0B2704780B54E48006850F083
:1016900001004C4908604C4800210160494800683D
:1016A0004A4908404749086049484A490160454855
:1016B000006830F4802043490860474800210160F9
:1016C00000F005F845485FF00061016001BD82B09F
:1016D00000200190002000903A48006850F48030CB
:1016E000384908603748006810F4003000900198CD
:1016F000401C01900098002803D10198B0F5A06F1C
:10170000F0D130480068800302D50120009001E04C
:1017100000200090009801283ED13148006850F028
:1017200080502F4908602F48006850F480402D49B0
:10173000086025482449096801602348006850F47E
:101740000040214908602048006850F4A0501E491C
:1017500008601F48244901601A48006850F08070F2
:1017600018490860174800688001FBD51F4840F2FF
:101770000561016014480068800880001249086013
:101780001148006850F002000F4908600E480068D8
:1017900010F00C000828F9D10B48006830F4000064
:1017A000094908601248134901600648006850F072
:1017B000806004490860034800680001FBD502B05E
:1017C000704700000038024008380240FFFFF6FE74
:1017D00004380240103000240C38024008ED00E0CC
:1017E000403802400070004008544007003C02406E
:1017F000843802400030005010B507497944183150
:10180000064C7C44163404E00A68081D51188847C9
:101810000146A142F8D110BD0800000028000000D8
:1018200067FDFFFF640000001800002000000000BA
:101830000FF2FFFF1800000014020000000000205B
:10184000000000004EF68851CEF20001086840F416
:10185000700008604FF00070E1EE100A70477047AA
:10186000FEE7FEE7FEE7FEE770477047704780B58A
:10187000FEF72EFF01BD000000F009F8002801D09E
:10188000FFF7BAFF0020FEF77FFC00F002F801200E
:10189000704700F001B800000746384600F002F833
:1018A000FBE7000080B5C046C046024A1100182080
:1018B000ABBEFBE726000200014880470148004715
:1018C00089160008D5180008787879797A7A0D0A8F
:1018D00000000000C046C046FFF7B4FFFFF7CCFF92
:1018E000FFF7BDBFFFF7BCBFFFF7BBBFFFF7BABF36
:1018F000FFF7B9BFFFF7B8BFFFF7B7BFFFF7B6BF36
:10190000FFF7B5BFFFF7FEBFFFF7FEBFFFF7FEBF54
:10191000FFF7FEBFFFF7FEBFFFF7FEBFFFF7FEBFFB
:10192000FFF7FEBFFFF7FEBFFFF7FEBFFFF7FEBFEB
:10193000FFF7FEBFFFF7FEBFFFF7FEBFFFF7FEBFDB
:10194000FFF7FEBFFFF7FEBFFFF7FEBFFFF7FEBFCB
:10195000FFF7FEBFFFF7FEBFFFF7FEBFFFF7FEBFBB
:10196000FFF7FEBFFFF7FEBFFFF7FEBFFFF7FEBFAB
:10197000FFF7FEBFFFF7FEBFFFF7FEBFFFF7FEBF9B
:10198000FFF7FEBFFFF7FEBFFFF7FEBFFFF7FEBF8B
:10199000FFF7FEBFFFF7FEBFFEF7DBBCFFF7FEBFA2
:1019A000FFF7FEBFFFF7FEBFFFF7FEBFFFF7FEBF6B
:1019B000FFF7FEBFFFF7FEBFFFF7FEBFFFF7FEBF5B
:1019C000FFF7FEBFFFF7FEBFFFF7FEBFFFF7FEBF4B
:1019D000FFF7FEBFFFF7FEBFFFF7FEBFFFF7FEBF3B
:1019E000FFF7FEBFFFF7FEBFFFF7FEBFFFF7FEBF2B
:1019F000FFF7FEBFFFF7FEBFFFF7FEBFFFF7FEBF1B
:101A0000FFF7FEBFFFF7FEBFFFF7FEBFFFF7FEBF0A
:101A1000FFF7FEBFFFF7FEBFFFF7FEBFFFF7FEBFFA
:101A2000FFF7FEBFFFF7FEBFFFF7FEBFFFF7FEBFEA
:101A3000FFF7FEBFFFF7FEBFFFF7FEBFFFF7FEBFDA
:101A4000FFF7FEBFFFF7FEBFFFF7FEBF000000007D
:101A50000102030401020304060708090010000044
:041A6000007A030AFB
:04000005080018D502
:00000001FF
